{
  "_format": "hh-sol-artifact-1",
  "contractName": "HitAndBlow",
  "sourceName": "contracts/HitAndBlow.sol",
  "abi": [
    {
      "inputs": [
        {
          "internalType": "contract IHasher",
          "name": "_hasher",
          "type": "address"
        }
      ],
      "stateMutability": "nonpayable",
      "type": "constructor"
    },
    {
      "anonymous": false,
      "inputs": [
        {
          "indexed": true,
          "internalType": "address",
          "name": "player",
          "type": "address"
        },
        {
          "indexed": false,
          "internalType": "uint256",
          "name": "solutionHash",
          "type": "uint256"
        }
      ],
      "name": "CommitSolutionHash",
      "type": "event"
    },
    {
      "anonymous": false,
      "inputs": [
        {
          "indexed": true,
          "internalType": "address",
          "name": "winner",
          "type": "address"
        }
      ],
      "name": "GameFinish",
      "type": "event"
    },
    {
      "anonymous": false,
      "inputs": [],
      "name": "Initialize",
      "type": "event"
    },
    {
      "anonymous": false,
      "inputs": [
        {
          "indexed": true,
          "internalType": "address",
          "name": "previousOwner",
          "type": "address"
        },
        {
          "indexed": true,
          "internalType": "address",
          "name": "newOwner",
          "type": "address"
        }
      ],
      "name": "OwnershipTransferred",
      "type": "event"
    },
    {
      "anonymous": false,
      "inputs": [
        {
          "indexed": true,
          "internalType": "address",
          "name": "player",
          "type": "address"
        }
      ],
      "name": "Register",
      "type": "event"
    },
    {
      "anonymous": false,
      "inputs": [
        {
          "indexed": true,
          "internalType": "address",
          "name": "player",
          "type": "address"
        },
        {
          "indexed": false,
          "internalType": "uint8",
          "name": "a",
          "type": "uint8"
        },
        {
          "indexed": false,
          "internalType": "uint8",
          "name": "b",
          "type": "uint8"
        },
        {
          "indexed": false,
          "internalType": "uint8",
          "name": "c",
          "type": "uint8"
        },
        {
          "indexed": false,
          "internalType": "uint8",
          "name": "d",
          "type": "uint8"
        }
      ],
      "name": "Reveal",
      "type": "event"
    },
    {
      "anonymous": false,
      "inputs": [
        {
          "indexed": false,
          "internalType": "uint8",
          "name": "round",
          "type": "uint8"
        }
      ],
      "name": "RoundChange",
      "type": "event"
    },
    {
      "anonymous": false,
      "inputs": [
        {
          "indexed": false,
          "internalType": "enum HitAndBlow.Stages",
          "name": "stage",
          "type": "uint8"
        }
      ],
      "name": "StageChange",
      "type": "event"
    },
    {
      "anonymous": false,
      "inputs": [
        {
          "indexed": true,
          "internalType": "address",
          "name": "player",
          "type": "address"
        },
        {
          "indexed": false,
          "internalType": "uint8",
          "name": "currentRound",
          "type": "uint8"
        },
        {
          "indexed": false,
          "internalType": "uint8",
          "name": "a",
          "type": "uint8"
        },
        {
          "indexed": false,
          "internalType": "uint8",
          "name": "b",
          "type": "uint8"
        },
        {
          "indexed": false,
          "internalType": "uint8",
          "name": "c",
          "type": "uint8"
        },
        {
          "indexed": false,
          "internalType": "uint8",
          "name": "d",
          "type": "uint8"
        }
      ],
      "name": "SubmitGuess",
      "type": "event"
    },
    {
      "anonymous": false,
      "inputs": [
        {
          "indexed": true,
          "internalType": "address",
          "name": "player",
          "type": "address"
        },
        {
          "indexed": false,
          "internalType": "uint8",
          "name": "currentRound",
          "type": "uint8"
        },
        {
          "indexed": false,
          "internalType": "uint8",
          "name": "hit",
          "type": "uint8"
        },
        {
          "indexed": false,
          "internalType": "uint8",
          "name": "blow",
          "type": "uint8"
        }
      ],
      "name": "SubmitHB",
      "type": "event"
    },
    {
      "inputs": [],
      "name": "MAX_ROUND",
      "outputs": [
        {
          "internalType": "uint8",
          "name": "",
          "type": "uint8"
        }
      ],
      "stateMutability": "view",
      "type": "function"
    },
    {
      "inputs": [
        {
          "internalType": "uint256",
          "name": "solutionHash",
          "type": "uint256"
        }
      ],
      "name": "commitSolutionHash",
      "outputs": [],
      "stateMutability": "nonpayable",
      "type": "function"
    },
    {
      "inputs": [],
      "name": "currentRound",
      "outputs": [
        {
          "internalType": "uint8",
          "name": "",
          "type": "uint8"
        }
      ],
      "stateMutability": "view",
      "type": "function"
    },
    {
      "inputs": [
        {
          "internalType": "address",
          "name": "player",
          "type": "address"
        }
      ],
      "name": "getSubmittedGuess",
      "outputs": [
        {
          "components": [
            {
              "internalType": "uint8",
              "name": "one",
              "type": "uint8"
            },
            {
              "internalType": "uint8",
              "name": "two",
              "type": "uint8"
            },
            {
              "internalType": "uint8",
              "name": "three",
              "type": "uint8"
            },
            {
              "internalType": "uint8",
              "name": "four",
              "type": "uint8"
            },
            {
              "internalType": "bool",
              "name": "submitted",
              "type": "bool"
            }
          ],
          "internalType": "struct HitAndBlow.Guess[]",
          "name": "",
          "type": "tuple[]"
        }
      ],
      "stateMutability": "view",
      "type": "function"
    },
    {
      "inputs": [
        {
          "internalType": "address",
          "name": "player",
          "type": "address"
        }
      ],
      "name": "getSubmittedHB",
      "outputs": [
        {
          "components": [
            {
              "internalType": "uint8",
              "name": "hit",
              "type": "uint8"
            },
            {
              "internalType": "uint8",
              "name": "blow",
              "type": "uint8"
            },
            {
              "internalType": "bool",
              "name": "submitted",
              "type": "bool"
            }
          ],
          "internalType": "struct HitAndBlow.HB[]",
          "name": "",
          "type": "tuple[]"
        }
      ],
      "stateMutability": "view",
      "type": "function"
    },
    {
      "inputs": [],
      "name": "getplayers",
      "outputs": [
        {
          "internalType": "address[2]",
          "name": "",
          "type": "address[2]"
        }
      ],
      "stateMutability": "view",
      "type": "function"
    },
    {
      "inputs": [],
      "name": "hasher",
      "outputs": [
        {
          "internalType": "contract IHasher",
          "name": "",
          "type": "address"
        }
      ],
      "stateMutability": "view",
      "type": "function"
    },
    {
      "inputs": [],
      "name": "initialize",
      "outputs": [],
      "stateMutability": "nonpayable",
      "type": "function"
    },
    {
      "inputs": [],
      "name": "lastActionTimestamp",
      "outputs": [
        {
          "internalType": "uint256",
          "name": "",
          "type": "uint256"
        }
      ],
      "stateMutability": "view",
      "type": "function"
    },
    {
      "inputs": [],
      "name": "owner",
      "outputs": [
        {
          "internalType": "address",
          "name": "",
          "type": "address"
        }
      ],
      "stateMutability": "view",
      "type": "function"
    },
    {
      "inputs": [
        {
          "internalType": "uint256",
          "name": "",
          "type": "uint256"
        }
      ],
      "name": "players",
      "outputs": [
        {
          "internalType": "address",
          "name": "",
          "type": "address"
        }
      ],
      "stateMutability": "view",
      "type": "function"
    },
    {
      "inputs": [],
      "name": "register",
      "outputs": [],
      "stateMutability": "nonpayable",
      "type": "function"
    },
    {
      "inputs": [],
      "name": "renounceOwnership",
      "outputs": [],
      "stateMutability": "nonpayable",
      "type": "function"
    },
    {
      "inputs": [
        {
          "internalType": "uint256",
          "name": "salt",
          "type": "uint256"
        },
        {
          "internalType": "uint8",
          "name": "a",
          "type": "uint8"
        },
        {
          "internalType": "uint8",
          "name": "b",
          "type": "uint8"
        },
        {
          "internalType": "uint8",
          "name": "c",
          "type": "uint8"
        },
        {
          "internalType": "uint8",
          "name": "d",
          "type": "uint8"
        }
      ],
      "name": "reveal",
      "outputs": [],
      "stateMutability": "nonpayable",
      "type": "function"
    },
    {
      "inputs": [
        {
          "internalType": "address",
          "name": "",
          "type": "address"
        }
      ],
      "name": "solutionHashes",
      "outputs": [
        {
          "internalType": "uint256",
          "name": "",
          "type": "uint256"
        }
      ],
      "stateMutability": "view",
      "type": "function"
    },
    {
      "inputs": [],
      "name": "stage",
      "outputs": [
        {
          "internalType": "enum HitAndBlow.Stages",
          "name": "",
          "type": "uint8"
        }
      ],
      "stateMutability": "view",
      "type": "function"
    },
    {
      "inputs": [
        {
          "internalType": "uint8",
          "name": "guess1",
          "type": "uint8"
        },
        {
          "internalType": "uint8",
          "name": "guess2",
          "type": "uint8"
        },
        {
          "internalType": "uint8",
          "name": "guess3",
          "type": "uint8"
        },
        {
          "internalType": "uint8",
          "name": "guess4",
          "type": "uint8"
        }
      ],
      "name": "submitGuess",
      "outputs": [],
      "stateMutability": "nonpayable",
      "type": "function"
    },
    {
      "inputs": [
        {
          "internalType": "uint256[2]",
          "name": "a",
          "type": "uint256[2]"
        },
        {
          "internalType": "uint256[2][2]",
          "name": "b",
          "type": "uint256[2][2]"
        },
        {
          "internalType": "uint256[2]",
          "name": "c",
          "type": "uint256[2]"
        },
        {
          "internalType": "uint256[8]",
          "name": "input",
          "type": "uint256[8]"
        }
      ],
      "name": "submitHbProof",
      "outputs": [],
      "stateMutability": "nonpayable",
      "type": "function"
    },
    {
      "inputs": [
        {
          "internalType": "uint256",
          "name": "",
          "type": "uint256"
        },
        {
          "internalType": "address",
          "name": "",
          "type": "address"
        }
      ],
      "name": "submittedGuess",
      "outputs": [
        {
          "internalType": "uint8",
          "name": "one",
          "type": "uint8"
        },
        {
          "internalType": "uint8",
          "name": "two",
          "type": "uint8"
        },
        {
          "internalType": "uint8",
          "name": "three",
          "type": "uint8"
        },
        {
          "internalType": "uint8",
          "name": "four",
          "type": "uint8"
        },
        {
          "internalType": "bool",
          "name": "submitted",
          "type": "bool"
        }
      ],
      "stateMutability": "view",
      "type": "function"
    },
    {
      "inputs": [
        {
          "internalType": "uint256",
          "name": "",
          "type": "uint256"
        },
        {
          "internalType": "address",
          "name": "",
          "type": "address"
        }
      ],
      "name": "submittedHB",
      "outputs": [
        {
          "internalType": "uint8",
          "name": "hit",
          "type": "uint8"
        },
        {
          "internalType": "uint8",
          "name": "blow",
          "type": "uint8"
        },
        {
          "internalType": "bool",
          "name": "submitted",
          "type": "bool"
        }
      ],
      "stateMutability": "view",
      "type": "function"
    },
    {
      "inputs": [
        {
          "internalType": "address",
          "name": "newOwner",
          "type": "address"
        }
      ],
      "name": "transferOwnership",
      "outputs": [],
      "stateMutability": "nonpayable",
      "type": "function"
    },
    {
      "inputs": [
        {
          "internalType": "uint256[2]",
          "name": "a",
          "type": "uint256[2]"
        },
        {
          "internalType": "uint256[2][2]",
          "name": "b",
          "type": "uint256[2][2]"
        },
        {
          "internalType": "uint256[2]",
          "name": "c",
          "type": "uint256[2]"
        },
        {
          "internalType": "uint256[8]",
          "name": "input",
          "type": "uint256[8]"
        }
      ],
      "name": "verifyProof",
      "outputs": [
        {
          "internalType": "bool",
          "name": "r",
          "type": "bool"
        }
      ],
      "stateMutability": "view",
      "type": "function"
    },
    {
      "inputs": [],
      "name": "winner",
      "outputs": [
        {
          "internalType": "address",
          "name": "",
          "type": "address"
        }
      ],
      "stateMutability": "view",
      "type": "function"
    }
  ],
  "bytecode": "0x60806040526001600060146101000a81548160ff021916908360ff1602179055506000600660006101000a81548160ff021916908360038111156200006d577f4e487b7100000000000000000000000000000000000000000000000000000000600052602160045260246000fd5b02179055503480156200007f57600080fd5b5060405162006442380380620064428339818101604052810190620000a5919062000307565b620000c5620000b96200015860201b60201c565b6200016060201b60201c565b620001106040518060400160405280601781526020017f4465706c6f79696e67206120486974416e64426c6f77210000000000000000008152506200022460201b620025a91760201c565b80606b60006101000a81548173ffffffffffffffffffffffffffffffffffffffff021916908373ffffffffffffffffffffffffffffffffffffffff160217905550506200045d565b600033905090565b60008060009054906101000a900473ffffffffffffffffffffffffffffffffffffffff169050816000806101000a81548173ffffffffffffffffffffffffffffffffffffffff021916908373ffffffffffffffffffffffffffffffffffffffff1602179055508173ffffffffffffffffffffffffffffffffffffffff168173ffffffffffffffffffffffffffffffffffffffff167f8be0079c531659141344cd1fd0a4f28419497f9722a3daafe3b4186f6b6457e060405160405180910390a35050565b620002c4816040516024016200023b919062000374565b6040516020818303038152906040527f41304fac000000000000000000000000000000000000000000000000000000007bffffffffffffffffffffffffffffffffffffffffffffffffffffffff19166020820180517bffffffffffffffffffffffffffffffffffffffffffffffffffffffff8381831617835250505050620002c760201b60201c565b50565b60008151905060006a636f6e736f6c652e6c6f679050602083016000808483855afa5050505050565b600081519050620003018162000443565b92915050565b6000602082840312156200031a57600080fd5b60006200032a84828501620002f0565b91505092915050565b6000620003408262000398565b6200034c8185620003a3565b93506200035e818560208601620003fc565b620003698162000432565b840191505092915050565b6000602082019050818103600083015262000390818462000333565b905092915050565b600081519050919050565b600082825260208201905092915050565b6000620003c182620003dc565b9050919050565b6000620003d582620003b4565b9050919050565b600073ffffffffffffffffffffffffffffffffffffffff82169050919050565b60005b838110156200041c578082015181840152602081019050620003ff565b838111156200042c576000848401525b50505050565b6000601f19601f8301169050919050565b6200044e81620003c8565b81146200045a57600080fd5b50565b615fd5806200046d6000396000f3fe608060405234801561001057600080fd5b506004361061014d5760003560e01c8063c040e6b8116100c3578063eac697c91161007c578063eac697c91461036a578063ecb3db5214610388578063ed33639f146103a6578063f2ca7688146103c4578063f2fde38b146103f6578063f71d96cb146104125761014d565b8063c040e6b81461027e578063c9219a7a1461029c578063c997ce08146102cc578063ce9af863146102fc578063d1b8fe7814610330578063dfbf53ae1461034c5761014d565b80638a19c8bc116101155780638a19c8bc146101bc5780638da5cb5b146101da57806395f2d1f4146101f8578063a695c3ae14610214578063ab56c0d514610230578063b4ac62c5146102605761014d565b80631aa3a00814610152578063682834871461015c578063715018a61461018c57806375c8fd6c146101965780638129fc1c146101b2575b600080fd5b61015a610442565b005b61017660048036038101906101719190614cca565b61086e565b6040516101839190615672565b60405180910390f35b610194610886565b005b6101b060048036038101906101ab9190614cf3565b61090e565b005b6101ba61100c565b005b6101c4611016565b6040516101d1919061568d565b60405180910390f35b6101e2611029565b6040516101ef91906153ca565b60405180910390f35b610212600480360381019061020d9190614e5d565b611052565b005b61022e60048036038101906102299190614d58565b6113e7565b005b61024a60048036038101906102459190614cca565b611618565b6040516102579190615422565b60405180910390f35b610268611808565b604051610275919061568d565b60405180910390f35b61028661180d565b6040516102939190615495565b60405180910390f35b6102b660048036038101906102b19190614cf3565b611820565b6040516102c3919061545f565b60405180910390f35b6102e660048036038101906102e19190614cca565b611cd4565b6040516102f39190615400565b60405180910390f35b61031660048036038101906103119190614daa565b611f3c565b60405161032795949392919061575b565b60405180910390f35b61034a60048036038101906103459190614de6565b611fc3565b005b610354612347565b60405161036191906153ca565b60405180910390f35b61037261236d565b60405161037f9190615672565b60405180910390f35b610390612373565b60405161039d91906153e5565b60405180910390f35b6103ae6123f4565b6040516103bb919061547a565b60405180910390f35b6103de60048036038101906103d99190614daa565b61241a565b6040516103ed939291906156a8565b60405180910390f35b610410600480360381019061040b9190614cca565b61247b565b005b61042c60048036038101906104279190614d58565b612573565b60405161043991906153ca565b60405180910390f35b600080600381111561047d577f4e487b7100000000000000000000000000000000000000000000000000000000600052602160045260246000fd5b600660009054906101000a900460ff1660038111156104c5577f4e487b7100000000000000000000000000000000000000000000000000000000600052602160045260246000fd5b14610505576040517f08c379a00000000000000000000000000000000000000000000000000000000081526004016104fc906155b2565b60405180910390fd5b600073ffffffffffffffffffffffffffffffffffffffff166001600060028110610558577f4e487b7100000000000000000000000000000000000000000000000000000000600052603260045260246000fd5b0160009054906101000a900473ffffffffffffffffffffffffffffffffffffffff1673ffffffffffffffffffffffffffffffffffffffff161415610659573360016000600281106105d2577f4e487b7100000000000000000000000000000000000000000000000000000000600052603260045260246000fd5b0160006101000a81548173ffffffffffffffffffffffffffffffffffffffff021916908373ffffffffffffffffffffffffffffffffffffffff1602179055503373ffffffffffffffffffffffffffffffffffffffff167feeda149c76076b34d4b9d8896c2f7efc0d33d1c7b53ea3c5db490d64613f603a60405160405180910390a261086b565b3373ffffffffffffffffffffffffffffffffffffffff1660016000600281106106ab577f4e487b7100000000000000000000000000000000000000000000000000000000600052603260045260246000fd5b0160009054906101000a900473ffffffffffffffffffffffffffffffffffffffff1673ffffffffffffffffffffffffffffffffffffffff161415610724576040517f08c379a000000000000000000000000000000000000000000000000000000000815260040161071b90615592565b60405180910390fd5b336001806002811061075f577f4e487b7100000000000000000000000000000000000000000000000000000000600052603260045260246000fd5b0160006101000a81548173ffffffffffffffffffffffffffffffffffffffff021916908373ffffffffffffffffffffffffffffffffffffffff1602179055506001600660006101000a81548160ff021916908360038111156107ea577f4e487b7100000000000000000000000000000000000000000000000000000000600052602160045260246000fd5b02179055503373ffffffffffffffffffffffffffffffffffffffff167feeda149c76076b34d4b9d8896c2f7efc0d33d1c7b53ea3c5db490d64613f603a60405160405180910390a27fc2c79e90970e807cdffdfc0896c48a489b0f6882b90beb4c9d6386ddc0fc95cf60016040516108629190615495565b60405180910390a15b50565b60046020528060005260406000206000915090505481565b61088e612642565b73ffffffffffffffffffffffffffffffffffffffff166108ac611029565b73ffffffffffffffffffffffffffffffffffffffff1614610902576040517f08c379a00000000000000000000000000000000000000000000000000000000081526004016108f990615572565b60405180910390fd5b61090c600061264a565b565b6002806003811115610949577f4e487b7100000000000000000000000000000000000000000000000000000000600052602160045260246000fd5b600660009054906101000a900460ff166003811115610991577f4e487b7100000000000000000000000000000000000000000000000000000000600052602160045260246000fd5b146109d1576040517f08c379a00000000000000000000000000000000000000000000000000000000081526004016109c8906155b2565b60405180910390fd5b6109dd85858585611820565b610a1c576040517f08c379a0000000000000000000000000000000000000000000000000000000008152600401610a1390615652565b60405180910390fd5b600082600560088110610a58577f4e487b7100000000000000000000000000000000000000000000000000000000600052603260045260246000fd5b60200201519050600083600660088110610a9b577f4e487b7100000000000000000000000000000000000000000000000000000000600052603260045260246000fd5b60200201519050600060405180606001604052808460ff1681526020018360ff1681526020016001151581525090508060396001600060149054906101000a900460ff16610ae99190615a64565b60ff1660328110610b23577f4e487b7100000000000000000000000000000000000000000000000000000000600052603260045260246000fd5b0160003373ffffffffffffffffffffffffffffffffffffffff1673ffffffffffffffffffffffffffffffffffffffff16815260200190815260200160002060008201518160000160006101000a81548160ff021916908360ff16021790555060208201518160000160016101000a81548160ff021916908360ff16021790555060408201518160000160026101000a81548160ff021916908315150217905550905050600060048460ff161415610cbf57600073ffffffffffffffffffffffffffffffffffffffff16600360009054906101000a900473ffffffffffffffffffffffffffffffffffffffff1673ffffffffffffffffffffffffffffffffffffffff1614610c7557600190506000600360006101000a81548173ffffffffffffffffffffffffffffffffffffffff021916908373ffffffffffffffffffffffffffffffffffffffff160217905550610cbe565b610c7d61270e565b600360006101000a81548173ffffffffffffffffffffffffffffffffffffffff021916908373ffffffffffffffffffffffffffffffffffffffff1602179055505b5b6000610cc961270e565b90508115610d87576000600360009054906101000a900473ffffffffffffffffffffffffffffffffffffffff169050610d00612866565b610d3e6040518060400160405280600a81526020017f47616d6546696e697368000000000000000000000000000000000000000000008152506125a9565b8073ffffffffffffffffffffffffffffffffffffffff167fa8e13a2604f0d85ed8a48561f2e18e44a35a8bb4c0b7a657ac6254a5fd51cd4b60405160405180910390a250610f9f565b6001151560396001600060149054906101000a900460ff16610da99190615a64565b60ff1660328110610de3577f4e487b7100000000000000000000000000000000000000000000000000000000600052603260045260246000fd5b0160008373ffffffffffffffffffffffffffffffffffffffff1673ffffffffffffffffffffffffffffffffffffffff16815260200190815260200160002060000160029054906101000a900460ff1615151415610f9e57600073ffffffffffffffffffffffffffffffffffffffff16600360009054906101000a900473ffffffffffffffffffffffffffffffffffffffff1673ffffffffffffffffffffffffffffffffffffffff1614610f1e576003600660006101000a81548160ff02191690836003811115610edc577f4e487b7100000000000000000000000000000000000000000000000000000000600052602160045260246000fd5b02179055507fc2c79e90970e807cdffdfc0896c48a489b0f6882b90beb4c9d6386ddc0fc95cf6003604051610f119190615495565b60405180910390a1610f9d565b6000601481819054906101000a900460ff1680929190610f3d90615be3565b91906101000a81548160ff021916908360ff160217905550507f371fb02a4cc0a41fcae1f4fd11318eb53a56d544d9cdb81f8221b0b012962bd8600060149054906101000a900460ff16604051610f94919061568d565b60405180910390a15b5b5b3373ffffffffffffffffffffffffffffffffffffffff167f0ddf3cb018d1be71b7b8753c6aca06c057a0389952bdde8c9cf074581ef78152600060149054906101000a900460ff168787604051610ff8939291906156df565b60405180910390a250505050505050505050565b611014612866565b565b600060149054906101000a900460ff1681565b60008060009054906101000a900473ffffffffffffffffffffffffffffffffffffffff16905090565b600280600381111561108d577f4e487b7100000000000000000000000000000000000000000000000000000000600052602160045260246000fd5b600660009054906101000a900460ff1660038111156110d5577f4e487b7100000000000000000000000000000000000000000000000000000000600052602160045260246000fd5b14611115576040517f08c379a000000000000000000000000000000000000000000000000000000000815260040161110c906155b2565b60405180910390fd5b6000151560076001600060149054906101000a900460ff166111379190615a64565b60ff1660328110611171577f4e487b7100000000000000000000000000000000000000000000000000000000600052603260045260246000fd5b0160003373ffffffffffffffffffffffffffffffffffffffff1673ffffffffffffffffffffffffffffffffffffffff16815260200190815260200160002060000160049054906101000a900460ff16151514611202576040517f08c379a00000000000000000000000000000000000000000000000000000000081526004016111f9906154f2565b60405180910390fd5b60006040518060a001604052808760ff1681526020018660ff1681526020018560ff1681526020018460ff1681526020016001151581525090508060076001600060149054906101000a900460ff1661125b9190615a64565b60ff1660328110611295577f4e487b7100000000000000000000000000000000000000000000000000000000600052603260045260246000fd5b0160003373ffffffffffffffffffffffffffffffffffffffff1673ffffffffffffffffffffffffffffffffffffffff16815260200190815260200160002060008201518160000160006101000a81548160ff021916908360ff16021790555060208201518160000160016101000a81548160ff021916908360ff16021790555060408201518160000160026101000a81548160ff021916908360ff16021790555060608201518160000160036101000a81548160ff021916908360ff16021790555060808201518160000160046101000a81548160ff0219169083151502179055509050503373ffffffffffffffffffffffffffffffffffffffff167f03e5493440227aef0d1ce2c10c361defa2acc053c5881daa8b734853e216efd1600060149054906101000a900460ff16888888886040516113d79594939291906157ae565b60405180910390a2505050505050565b6001806003811115611422577f4e487b7100000000000000000000000000000000000000000000000000000000600052602160045260246000fd5b600660009054906101000a900460ff16600381111561146a577f4e487b7100000000000000000000000000000000000000000000000000000000600052602160045260246000fd5b146114aa576040517f08c379a00000000000000000000000000000000000000000000000000000000081526004016114a1906155b2565b60405180910390fd5b81600460003373ffffffffffffffffffffffffffffffffffffffff1673ffffffffffffffffffffffffffffffffffffffff168152602001908152602001600020819055503373ffffffffffffffffffffffffffffffffffffffff167fc83617f8aff831bee99216a4007ee8436f8a36cc0b5bab8c816f52d0aef5e438836040516115349190615672565b60405180910390a260006004600061154a61270e565b73ffffffffffffffffffffffffffffffffffffffff1673ffffffffffffffffffffffffffffffffffffffff1681526020019081526020016000205414611614576002600660006101000a81548160ff021916908360038111156115d6577f4e487b7100000000000000000000000000000000000000000000000000000000600052602160045260246000fd5b02179055507fc2c79e90970e807cdffdfc0896c48a489b0f6882b90beb4c9d6386ddc0fc95cf600260405161160b9190615495565b60405180910390a15b5050565b606060008060149054906101000a900460ff1660ff1667ffffffffffffffff81111561166d577f4e487b7100000000000000000000000000000000000000000000000000000000600052604160045260246000fd5b6040519080825280602002602001820160405280156116a657816020015b61169361490e565b81526020019060019003908161168b5790505b50905060005b600060149054906101000a900460ff1660ff168160ff1610156117fe5760398160ff1660328110611706577f4e487b7100000000000000000000000000000000000000000000000000000000600052603260045260246000fd5b0160008573ffffffffffffffffffffffffffffffffffffffff1673ffffffffffffffffffffffffffffffffffffffff1681526020019081526020016000206040518060600160405290816000820160009054906101000a900460ff1660ff1660ff1681526020016000820160019054906101000a900460ff1660ff1660ff1681526020016000820160029054906101000a900460ff161515151581525050828260ff16815181106117e0577f4e487b7100000000000000000000000000000000000000000000000000000000600052603260045260246000fd5b602002602001018190525080806117f690615be3565b9150506116ac565b5080915050919050565b603281565b600660009054906101000a900460ff1681565b600061182a614937565b60405180604001604052808760006002811061186f577f4e487b7100000000000000000000000000000000000000000000000000000000600052603260045260246000fd5b60200201518152602001876001600281106118b3577f4e487b7100000000000000000000000000000000000000000000000000000000600052603260045260246000fd5b602002015181525081600001819052506040518060400160405280604051806040016040528088600060028110611913577f4e487b7100000000000000000000000000000000000000000000000000000000600052603260045260246000fd5b6020020151600060028110611951577f4e487b7100000000000000000000000000000000000000000000000000000000600052603260045260246000fd5b6020020151815260200188600060028110611995577f4e487b7100000000000000000000000000000000000000000000000000000000600052603260045260246000fd5b60200201516001600281106119d3577f4e487b7100000000000000000000000000000000000000000000000000000000600052603260045260246000fd5b60200201518152508152602001604051806040016040528088600160028110611a25577f4e487b7100000000000000000000000000000000000000000000000000000000600052603260045260246000fd5b6020020151600060028110611a63577f4e487b7100000000000000000000000000000000000000000000000000000000600052603260045260246000fd5b6020020151815260200188600160028110611aa7577f4e487b7100000000000000000000000000000000000000000000000000000000600052603260045260246000fd5b6020020151600160028110611ae5577f4e487b7100000000000000000000000000000000000000000000000000000000600052603260045260246000fd5b60200201518152508152508160200181905250604051806040016040528085600060028110611b3d577f4e487b7100000000000000000000000000000000000000000000000000000000600052603260045260246000fd5b6020020151815260200185600160028110611b81577f4e487b7100000000000000000000000000000000000000000000000000000000600052603260045260246000fd5b602002015181525081604001819052506000600867ffffffffffffffff811115611bd4577f4e487b7100000000000000000000000000000000000000000000000000000000600052604160045260246000fd5b604051908082528060200260200182016040528015611c025781602001602082028036833780820191505090505b50905060005b6008811015611ca757848160088110611c4a577f4e487b7100000000000000000000000000000000000000000000000000000000600052603260045260246000fd5b6020020151828281518110611c88577f4e487b7100000000000000000000000000000000000000000000000000000000600052603260045260246000fd5b6020026020010181815250508080611c9f90615b9a565b915050611c08565b506000611cb48284613047565b1415611cc557600192505050611ccc565b6000925050505b949350505050565b6060611d146040518060400160405280601281526020017f6765745375626d697474656447756573732100000000000000000000000000008152506125a9565b60008060149054906101000a900460ff1660ff1667ffffffffffffffff811115611d67577f4e487b7100000000000000000000000000000000000000000000000000000000600052604160045260246000fd5b604051908082528060200260200182016040528015611da057816020015b611d8d61496a565b815260200190600190039081611d855790505b50905060005b600060149054906101000a900460ff1660ff168160ff161015611f325760078160ff1660328110611e00577f4e487b7100000000000000000000000000000000000000000000000000000000600052603260045260246000fd5b0160008573ffffffffffffffffffffffffffffffffffffffff1673ffffffffffffffffffffffffffffffffffffffff1681526020019081526020016000206040518060a00160405290816000820160009054906101000a900460ff1660ff1660ff1681526020016000820160019054906101000a900460ff1660ff1660ff1681526020016000820160029054906101000a900460ff1660ff1660ff1681526020016000820160039054906101000a900460ff1660ff1660ff1681526020016000820160049054906101000a900460ff161515151581525050828260ff1681518110611f14577f4e487b7100000000000000000000000000000000000000000000000000000000600052603260045260246000fd5b60200260200101819052508080611f2a90615be3565b915050611da6565b5080915050919050565b60078260328110611f4c57600080fd5b01602052806000526040600020600091509150508060000160009054906101000a900460ff16908060000160019054906101000a900460ff16908060000160029054906101000a900460ff16908060000160039054906101000a900460ff16908060000160049054906101000a900460ff16905085565b6003806003811115611ffe577f4e487b7100000000000000000000000000000000000000000000000000000000600052602160045260246000fd5b600660009054906101000a900460ff166003811115612046577f4e487b7100000000000000000000000000000000000000000000000000000000600052602160045260246000fd5b14612086576040517f08c379a000000000000000000000000000000000000000000000000000000000815260040161207d906155b2565b60405180910390fd5b600460003373ffffffffffffffffffffffffffffffffffffffff1673ffffffffffffffffffffffffffffffffffffffff16815260200190815260200160002054606b60009054906101000a900473ffffffffffffffffffffffffffffffffffffffff1673ffffffffffffffffffffffffffffffffffffffff16634937a2586040518060a001604052808a81526020018960ff1681526020018860ff1681526020018760ff1681526020018660ff168152506040518263ffffffff1660e01b81526004016121539190615444565b60206040518083038186803b15801561216b57600080fd5b505afa15801561217f573d6000803e3d6000fd5b505050506040513d601f19601f820116820180604052508101906121a39190614d81565b146121e3576040517f08c379a00000000000000000000000000000000000000000000000000000000081526004016121da906155f2565b60405180910390fd5b3373ffffffffffffffffffffffffffffffffffffffff167f5e7fdf2512ab9b99d72e078bab23ce002274ef0f42e29746a2012e8e2bdf00208686868660405161222f9493929190615716565b60405180910390a2600360009054906101000a900473ffffffffffffffffffffffffffffffffffffffff1673ffffffffffffffffffffffffffffffffffffffff163373ffffffffffffffffffffffffffffffffffffffff16141561233f576000600360009054906101000a900473ffffffffffffffffffffffffffffffffffffffff1690506122bc612866565b6122fa6040518060400160405280600a81526020017f47616d6546696e697368000000000000000000000000000000000000000000008152506125a9565b8073ffffffffffffffffffffffffffffffffffffffff167fa8e13a2604f0d85ed8a48561f2e18e44a35a8bb4c0b7a657ac6254a5fd51cd4b60405160405180910390a2505b505050505050565b600360009054906101000a900473ffffffffffffffffffffffffffffffffffffffff1681565b60055481565b61237b6149a7565b60016002806020026040519081016040528092919082600280156123ea576020028201915b8160009054906101000a900473ffffffffffffffffffffffffffffffffffffffff1673ffffffffffffffffffffffffffffffffffffffff16815260200190600101908083116123a0575b5050505050905090565b606b60009054906101000a900473ffffffffffffffffffffffffffffffffffffffff1681565b6039826032811061242a57600080fd5b01602052806000526040600020600091509150508060000160009054906101000a900460ff16908060000160019054906101000a900460ff16908060000160029054906101000a900460ff16905083565b612483612642565b73ffffffffffffffffffffffffffffffffffffffff166124a1611029565b73ffffffffffffffffffffffffffffffffffffffff16146124f7576040517f08c379a00000000000000000000000000000000000000000000000000000000081526004016124ee90615572565b60405180910390fd5b600073ffffffffffffffffffffffffffffffffffffffff168173ffffffffffffffffffffffffffffffffffffffff161415612567576040517f08c379a000000000000000000000000000000000000000000000000000000000815260040161255e906154d2565b60405180910390fd5b6125708161264a565b50565b6001816002811061258357600080fd5b016000915054906101000a900473ffffffffffffffffffffffffffffffffffffffff1681565b61263f816040516024016125bd91906154b0565b6040516020818303038152906040527f41304fac000000000000000000000000000000000000000000000000000000007bffffffffffffffffffffffffffffffffffffffffffffffffffffffff19166020820180517bffffffffffffffffffffffffffffffffffffffffffffffffffffffff83818316178352505050506132d2565b50565b600033905090565b60008060009054906101000a900473ffffffffffffffffffffffffffffffffffffffff169050816000806101000a81548173ffffffffffffffffffffffffffffffffffffffff021916908373ffffffffffffffffffffffffffffffffffffffff1602179055508173ffffffffffffffffffffffffffffffffffffffff168173ffffffffffffffffffffffffffffffffffffffff167f8be0079c531659141344cd1fd0a4f28419497f9722a3daafe3b4186f6b6457e060405160405180910390a35050565b60003373ffffffffffffffffffffffffffffffffffffffff166001600060028110612762577f4e487b7100000000000000000000000000000000000000000000000000000000600052603260045260246000fd5b0160009054906101000a900473ffffffffffffffffffffffffffffffffffffffff1673ffffffffffffffffffffffffffffffffffffffff16141561280357600180600281106127da577f4e487b7100000000000000000000000000000000000000000000000000000000600052603260045260246000fd5b0160009054906101000a900473ffffffffffffffffffffffffffffffffffffffff169050612863565b600160006002811061283e577f4e487b7100000000000000000000000000000000000000000000000000000000600052603260045260246000fd5b0160009054906101000a900473ffffffffffffffffffffffffffffffffffffffff1690505b90565b6000600660006101000a81548160ff021916908360038111156128b2577f4e487b7100000000000000000000000000000000000000000000000000000000600052602160045260246000fd5b02179055506001600060146101000a81548160ff021916908360ff16021790555060005b603260ff168160ff161015612d9e5760078160ff1660328110612922577f4e487b7100000000000000000000000000000000000000000000000000000000600052603260045260246000fd5b0160006001600060028110612960577f4e487b7100000000000000000000000000000000000000000000000000000000600052603260045260246000fd5b0160009054906101000a900473ffffffffffffffffffffffffffffffffffffffff1673ffffffffffffffffffffffffffffffffffffffff1673ffffffffffffffffffffffffffffffffffffffff168152602001908152602001600020600080820160006101000a81549060ff02191690556000820160016101000a81549060ff02191690556000820160026101000a81549060ff02191690556000820160036101000a81549060ff02191690556000820160046101000a81549060ff0219169055505060078160ff1660328110612a60577f4e487b7100000000000000000000000000000000000000000000000000000000600052603260045260246000fd5b01600060018060028110612a9d577f4e487b7100000000000000000000000000000000000000000000000000000000600052603260045260246000fd5b0160009054906101000a900473ffffffffffffffffffffffffffffffffffffffff1673ffffffffffffffffffffffffffffffffffffffff1673ffffffffffffffffffffffffffffffffffffffff168152602001908152602001600020600080820160006101000a81549060ff02191690556000820160016101000a81549060ff02191690556000820160026101000a81549060ff02191690556000820160036101000a81549060ff02191690556000820160046101000a81549060ff0219169055505060398160ff1660328110612b9d577f4e487b7100000000000000000000000000000000000000000000000000000000600052603260045260246000fd5b0160006001600060028110612bdb577f4e487b7100000000000000000000000000000000000000000000000000000000600052603260045260246000fd5b0160009054906101000a900473ffffffffffffffffffffffffffffffffffffffff1673ffffffffffffffffffffffffffffffffffffffff1673ffffffffffffffffffffffffffffffffffffffff168152602001908152602001600020600080820160006101000a81549060ff02191690556000820160016101000a81549060ff02191690556000820160026101000a81549060ff0219169055505060398160ff1660328110612cb3577f4e487b7100000000000000000000000000000000000000000000000000000000600052603260045260246000fd5b01600060018060028110612cf0577f4e487b7100000000000000000000000000000000000000000000000000000000600052603260045260246000fd5b0160009054906101000a900473ffffffffffffffffffffffffffffffffffffffff1673ffffffffffffffffffffffffffffffffffffffff1673ffffffffffffffffffffffffffffffffffffffff168152602001908152602001600020600080820160006101000a81549060ff02191690556000820160016101000a81549060ff02191690556000820160026101000a81549060ff021916905550508080612d9690615be3565b9150506128d6565b506000600460006001600060028110612de0577f4e487b7100000000000000000000000000000000000000000000000000000000600052603260045260246000fd5b0160009054906101000a900473ffffffffffffffffffffffffffffffffffffffff1673ffffffffffffffffffffffffffffffffffffffff1673ffffffffffffffffffffffffffffffffffffffff1681526020019081526020016000208190555060006004600060018060028110612e80577f4e487b7100000000000000000000000000000000000000000000000000000000600052603260045260246000fd5b0160009054906101000a900473ffffffffffffffffffffffffffffffffffffffff1673ffffffffffffffffffffffffffffffffffffffff1673ffffffffffffffffffffffffffffffffffffffff1681526020019081526020016000208190555060006001600060028110612f1d577f4e487b7100000000000000000000000000000000000000000000000000000000600052603260045260246000fd5b0160006101000a81548173ffffffffffffffffffffffffffffffffffffffff021916908373ffffffffffffffffffffffffffffffffffffffff160217905550600060018060028110612f98577f4e487b7100000000000000000000000000000000000000000000000000000000600052603260045260246000fd5b0160006101000a81548173ffffffffffffffffffffffffffffffffffffffff021916908373ffffffffffffffffffffffffffffffffffffffff1602179055506000600360006101000a81548173ffffffffffffffffffffffffffffffffffffffff021916908373ffffffffffffffffffffffffffffffffffffffff1602179055507f80f860092ed8101278311dd6b10dda4920a40ea5dfcbacfe724e2accfaf63efc60405160405180910390a1565b6000807f30644e72e131a029b85045b68181585d2833e84879b9709143e1f593f0000001905060006130776132fb565b90508060800151516001865161308d9190615980565b146130cd576040517f08c379a00000000000000000000000000000000000000000000000000000000081526004016130c490615512565b60405180910390fd5b60006040518060400160405280600081526020016000815250905060005b865181101561322e578387828151811061312e577f4e487b7100000000000000000000000000000000000000000000000000000000600052603260045260246000fd5b602002602001015110613176576040517f08c379a000000000000000000000000000000000000000000000000000000000815260040161316d90615552565b60405180910390fd5b61321982613214856080015160018561318f9190615980565b815181106131c6577f4e487b7100000000000000000000000000000000000000000000000000000000600052603260045260246000fd5b60200260200101518a8581518110613207577f4e487b7100000000000000000000000000000000000000000000000000000000600052603260045260246000fd5b6020026020010151613bc3565b613d12565b9150808061322690615b9a565b9150506130eb565b5061327e818360800151600081518110613271577f4e487b7100000000000000000000000000000000000000000000000000000000600052603260045260246000fd5b6020026020010151613d12565b90506132b46132908660000151613ead565b8660200151846000015185602001518587604001518b604001518960600151613f52565b6132c457600193505050506132cc565b600093505050505b92915050565b60008151905060006a636f6e736f6c652e6c6f679050602083016000808483855afa5050505050565b6133036149c9565b60405180604001604052807f08e140af541a31cf67bb292b1438ad8502155adf4089bd1eff48fdc2cca75f1781526020017f12ac4e6ed1d15796f2b7ff5b53e4e6ecc4923e9d0cc9fc393a7f25dfada658718152508160000181905250604051806040016040528060405180604001604052807f06bfd34a8db0ff7162bd3d7a0f9e2f692727b4aa09195b60aa9f67b32f8d52a981526020017f305fa61064c5a1981218126ccb75935f1fcfe231c041dafc724549a25eedb740815250815260200160405180604001604052807f0af2596dd29fc5ac366971aad4d886de31597058fb476747763743de152b6b7181526020017f16aab7dc636a987525c3d42aad047c75fe3dab3ce0a2d6bebfa1a7358ad621908152508152508160200181905250604051806040016040528060405180604001604052807f198e9393920d483a7260bfb731fb5d25f1aa493335a9e71297e485b7aef312c281526020017f1800deef121f1e76426a00665e5c4479674322d4f75edadd46debd5cd992f6ed815250815260200160405180604001604052807f090689d0585ff075ec9e99ad690c3395bc4b313370b38ef355acdadcd122975b81526020017f12c85ea5db8c6deb4aab71808dcb408fe3d1e7690c43d37b4ce6cc0166fa7daa8152508152508160400181905250604051806040016040528060405180604001604052807f25a858442b7c8bdcab9e10408aa8e033beccc37e0efcd76a4e7d77ea58e29c6981526020017f028752dee249ff370cd732edbc7f86667109517818730520f8b65ca5b98d850b815250815260200160405180604001604052807f22cf9ef6b41888018a7a9f1d428027e09a69a6b114637f5e7fe1377f8309f42981526020017f202285795b83464e74a8a112b139709441e7a9db7a0ffd2aa02d67fc33494ead8152508152508160600181905250600967ffffffffffffffff8111156135f0577f4e487b7100000000000000000000000000000000000000000000000000000000600052604160045260246000fd5b60405190808252806020026020018201604052801561362957816020015b613616614a10565b81526020019060019003908161360e5790505b50816080018190525060405180604001604052807f213a07e59ec8b24ec720b1f7edbe82a2cf04a305f7a851a5416efa0cd96346f281526020017f167a719e21727c39dd642635884dd279fa5d0384167957768c2e0d19dc3bca3981525081608001516000815181106136c5577f4e487b7100000000000000000000000000000000000000000000000000000000600052603260045260246000fd5b602002602001018190525060405180604001604052807f1d9d7f1f83a5750c3040ce7235af9665339e1383a98c3bb1f6617245d1174e2881526020017f26cdaa5d544257f3424d531eaf8f264907ff9bc2f4d9b1fc7f6b2c7433841b938152508160800151600181518110613763577f4e487b7100000000000000000000000000000000000000000000000000000000600052603260045260246000fd5b602002602001018190525060405180604001604052807f1a1338d1ebfd54a0eb81458787ac2f5285538272e2339d403180fc983c4732ab81526020017f2db4ba9db661bbf4902b0f551335e1d0fff8468f8efefc510d5c76a9f04a47238152508160800151600281518110613801577f4e487b7100000000000000000000000000000000000000000000000000000000600052603260045260246000fd5b602002602001018190525060405180604001604052807f0c5db252cf77b7f180aca3795bf2cd83465e397f088e4a98eb4407c90ae65d1981526020017f0d1005711d93597e9b2a62feac56c43355947e9114eb841e13feea3d068a5c26815250816080015160038151811061389f577f4e487b7100000000000000000000000000000000000000000000000000000000600052603260045260246000fd5b602002602001018190525060405180604001604052807f1747d273003976cb0fe6ebb78b7a5775d1d59a154a297a55fd8a7cc98341383c81526020017f20c119e137b1bccf245855b26a0214aa317795bb9374e86c39ff5a6b76c26273815250816080015160048151811061393d577f4e487b7100000000000000000000000000000000000000000000000000000000600052603260045260246000fd5b602002602001018190525060405180604001604052807f1024aff71bef1674d4b6f5c012fff308ef5e8bb2f1dcc604385d6c81fa2866ab81526020017f2105ab6b9a9afe6cd38cef1bc98934fd33ea906f9dded28f02d863ce083a923f81525081608001516005815181106139db577f4e487b7100000000000000000000000000000000000000000000000000000000600052603260045260246000fd5b602002602001018190525060405180604001604052807f1405b1ab36836a33c01e9cbc9394adb64dc0580cbc6d6497062da4983c30b25881526020017f01ff1751669ab13b1d3acd14c5d1aef2fcb7c55d2b662646a2758725d701e8fe8152508160800151600681518110613a79577f4e487b7100000000000000000000000000000000000000000000000000000000600052603260045260246000fd5b602002602001018190525060405180604001604052807f0a8ed3e45f204dd7b27faddd03ea7a7a1ad5fcee0120db0b4d1285f771892c1a81526020017f0839e0a131c103f3703c5450d0d3171fdee113813482dd87beb2eb10db85f3388152508160800151600781518110613b17577f4e487b7100000000000000000000000000000000000000000000000000000000600052603260045260246000fd5b602002602001018190525060405180604001604052807f0fa977e100f3c05e20387ae224ccb3b6d75b7240289bd2e9005e9aaa3502d1ee81526020017f08a511c1cde8d8bf9a2cb31d5f6fe3750c6f26e9931363e5cfd0ade2fec33fb98152508160800151600881518110613bb5577f4e487b7100000000000000000000000000000000000000000000000000000000600052603260045260246000fd5b602002602001018190525090565b613bcb614a10565b613bd3614a2a565b836000015181600060038110613c12577f4e487b7100000000000000000000000000000000000000000000000000000000600052603260045260246000fd5b602002018181525050836020015181600160038110613c5a577f4e487b7100000000000000000000000000000000000000000000000000000000600052603260045260246000fd5b6020020181815250508281600260038110613c9e577f4e487b7100000000000000000000000000000000000000000000000000000000600052603260045260246000fd5b602002018181525050600060608360808460076107d05a03fa90508060008114613cc757613cc9565bfe5b5080613d0a576040517f08c379a0000000000000000000000000000000000000000000000000000000008152600401613d0190615532565b60405180910390fd5b505092915050565b613d1a614a10565b613d22614a4c565b836000015181600060048110613d61577f4e487b7100000000000000000000000000000000000000000000000000000000600052603260045260246000fd5b602002018181525050836020015181600160048110613da9577f4e487b7100000000000000000000000000000000000000000000000000000000600052603260045260246000fd5b602002018181525050826000015181600260048110613df1577f4e487b7100000000000000000000000000000000000000000000000000000000600052603260045260246000fd5b602002018181525050826020015181600360048110613e39577f4e487b7100000000000000000000000000000000000000000000000000000000600052603260045260246000fd5b602002018181525050600060608360c08460066107d05a03fa90508060008114613e6257613e64565bfe5b5080613ea5576040517f08c379a0000000000000000000000000000000000000000000000000000000008152600401613e9c90615612565b60405180910390fd5b505092915050565b613eb5614a10565b60007f30644e72e131a029b85045b68181585d97816a916871ca8d3c208c16d87cfd47905060008360000151148015613ef2575060008360200151145b15613f16576040518060400160405280600081526020016000815250915050613f4d565b604051806040016040528084600001518152602001828560200151613f3b9190615c0d565b83613f469190615a30565b8152509150505b919050565b600080600467ffffffffffffffff811115613f96577f4e487b7100000000000000000000000000000000000000000000000000000000600052604160045260246000fd5b604051908082528060200260200182016040528015613fcf57816020015b613fbc614a10565b815260200190600190039081613fb45790505b5090506000600467ffffffffffffffff811115614015577f4e487b7100000000000000000000000000000000000000000000000000000000600052604160045260246000fd5b60405190808252806020026020018201604052801561404e57816020015b61403b614a6e565b8152602001906001900390816140335790505b5090508a8260008151811061408c577f4e487b7100000000000000000000000000000000000000000000000000000000600052603260045260246000fd5b602002602001018190525088826001815181106140d2577f4e487b7100000000000000000000000000000000000000000000000000000000600052603260045260246000fd5b60200260200101819052508682600281518110614118577f4e487b7100000000000000000000000000000000000000000000000000000000600052603260045260246000fd5b6020026020010181905250848260038151811061415e577f4e487b7100000000000000000000000000000000000000000000000000000000600052603260045260246000fd5b602002602001018190525089816000815181106141a4577f4e487b7100000000000000000000000000000000000000000000000000000000600052603260045260246000fd5b602002602001018190525087816001815181106141ea577f4e487b7100000000000000000000000000000000000000000000000000000000600052603260045260246000fd5b60200260200101819052508581600281518110614230577f4e487b7100000000000000000000000000000000000000000000000000000000600052603260045260246000fd5b60200260200101819052508381600381518110614276577f4e487b7100000000000000000000000000000000000000000000000000000000600052603260045260246000fd5b602002602001018190525061428b828261429b565b9250505098975050505050505050565b600081518351146142e1576040517f08c379a00000000000000000000000000000000000000000000000000000000081526004016142d8906155d2565b60405180910390fd5b60008351905060006006826142f691906159d6565b905060008167ffffffffffffffff81111561433a577f4e487b7100000000000000000000000000000000000000000000000000000000600052604160045260246000fd5b6040519080825280602002602001820160405280156143685781602001602082028036833780820191505090505b50905060005b8381101561484d578681815181106143af577f4e487b7100000000000000000000000000000000000000000000000000000000600052603260045260246000fd5b6020026020010151600001518260006006846143cb91906159d6565b6143d59190615980565b8151811061440c577f4e487b7100000000000000000000000000000000000000000000000000000000600052603260045260246000fd5b602002602001018181525050868181518110614451577f4e487b7100000000000000000000000000000000000000000000000000000000600052603260045260246000fd5b60200260200101516020015182600160068461446d91906159d6565b6144779190615980565b815181106144ae577f4e487b7100000000000000000000000000000000000000000000000000000000600052603260045260246000fd5b6020026020010181815250508581815181106144f3577f4e487b7100000000000000000000000000000000000000000000000000000000600052603260045260246000fd5b602002602001015160000151600060028110614538577f4e487b7100000000000000000000000000000000000000000000000000000000600052603260045260246000fd5b602002015182600260068461454d91906159d6565b6145579190615980565b8151811061458e577f4e487b7100000000000000000000000000000000000000000000000000000000600052603260045260246000fd5b6020026020010181815250508581815181106145d3577f4e487b7100000000000000000000000000000000000000000000000000000000600052603260045260246000fd5b602002602001015160000151600160028110614618577f4e487b7100000000000000000000000000000000000000000000000000000000600052603260045260246000fd5b602002015182600360068461462d91906159d6565b6146379190615980565b8151811061466e577f4e487b7100000000000000000000000000000000000000000000000000000000600052603260045260246000fd5b6020026020010181815250508581815181106146b3577f4e487b7100000000000000000000000000000000000000000000000000000000600052603260045260246000fd5b6020026020010151602001516000600281106146f8577f4e487b7100000000000000000000000000000000000000000000000000000000600052603260045260246000fd5b602002015182600460068461470d91906159d6565b6147179190615980565b8151811061474e577f4e487b7100000000000000000000000000000000000000000000000000000000600052603260045260246000fd5b602002602001018181525050858181518110614793577f4e487b7100000000000000000000000000000000000000000000000000000000600052603260045260246000fd5b6020026020010151602001516001600281106147d8577f4e487b7100000000000000000000000000000000000000000000000000000000600052603260045260246000fd5b60200201518260056006846147ed91906159d6565b6147f79190615980565b8151811061482e577f4e487b7100000000000000000000000000000000000000000000000000000000600052603260045260246000fd5b602002602001018181525050808061484590615b9a565b91505061436e565b50614856614a94565b6000602082602086026020860160086107d05a03fa9050806000811461487b5761487d565bfe5b50806148be576040517f08c379a00000000000000000000000000000000000000000000000000000000081526004016148b590615632565b60405180910390fd5b6000826000600181106148fa577f4e487b7100000000000000000000000000000000000000000000000000000000600052603260045260246000fd5b602002015114159550505050505092915050565b6040518060600160405280600060ff168152602001600060ff1681526020016000151581525090565b604051806060016040528061494a614a10565b8152602001614957614a6e565b8152602001614964614a10565b81525090565b6040518060a00160405280600060ff168152602001600060ff168152602001600060ff168152602001600060ff1681526020016000151581525090565b6040518060400160405280600290602082028036833780820191505090505090565b6040518060a001604052806149dc614a10565b81526020016149e9614a6e565b81526020016149f6614a6e565b8152602001614a03614a6e565b8152602001606081525090565b604051806040016040528060008152602001600081525090565b6040518060600160405280600390602082028036833780820191505090505090565b6040518060800160405280600490602082028036833780820191505090505090565b6040518060400160405280614a81614ab6565b8152602001614a8e614ab6565b81525090565b6040518060200160405280600190602082028036833780820191505090505090565b6040518060400160405280600290602082028036833780820191505090505090565b6000614aeb614ae684615826565b615801565b90508082856040860282011115614b0157600080fd5b60005b85811015614b315781614b178882614c3d565b845260208401935060408301925050600181019050614b04565b5050509392505050565b6000614b4e614b498461584c565b615801565b90508082856020860282011115614b6457600080fd5b60005b85811015614b945781614b7a8882614c8b565b845260208401935060208301925050600181019050614b67565b5050509392505050565b6000614bb1614bac84615872565b615801565b90508082856020860282011115614bc757600080fd5b60005b85811015614bf75781614bdd8882614c8b565b845260208401935060208301925050600181019050614bca565b5050509392505050565b600081359050614c1081615f5a565b92915050565b600082601f830112614c2757600080fd5b6002614c34848285614ad8565b91505092915050565b600082601f830112614c4e57600080fd5b6002614c5b848285614b3b565b91505092915050565b600082601f830112614c7557600080fd5b6008614c82848285614b9e565b91505092915050565b600081359050614c9a81615f71565b92915050565b600081519050614caf81615f71565b92915050565b600081359050614cc481615f88565b92915050565b600060208284031215614cdc57600080fd5b6000614cea84828501614c01565b91505092915050565b6000806000806102008587031215614d0a57600080fd5b6000614d1887828801614c3d565b9450506040614d2987828801614c16565b93505060c0614d3a87828801614c3d565b925050610100614d4c87828801614c64565b91505092959194509250565b600060208284031215614d6a57600080fd5b6000614d7884828501614c8b565b91505092915050565b600060208284031215614d9357600080fd5b6000614da184828501614ca0565b91505092915050565b60008060408385031215614dbd57600080fd5b6000614dcb85828601614c8b565b9250506020614ddc85828601614c01565b9150509250929050565b600080600080600060a08688031215614dfe57600080fd5b6000614e0c88828901614c8b565b9550506020614e1d88828901614cb5565b9450506040614e2e88828901614cb5565b9350506060614e3f88828901614cb5565b9250506080614e5088828901614cb5565b9150509295509295909350565b60008060008060808587031215614e7357600080fd5b6000614e8187828801614cb5565b9450506020614e9287828801614cb5565b9350506040614ea387828801614cb5565b9250506060614eb487828801614cb5565b91505092959194509250565b6000614ecc8383614f20565b60208301905092915050565b6000614ee483836152e4565b60a08301905092915050565b6000614efc838361534c565b60608301905092915050565b6000614f14838361538e565b60208301905092915050565b614f2981615a98565b82525050565b614f3881615a98565b82525050565b614f47816158cc565b614f518184615937565b9250614f5c82615898565b8060005b83811015614f8d578151614f748782614ec0565b9650614f7f83615903565b925050600181019050614f60565b505050505050565b6000614fa0826158d7565b614faa8185615942565b9350614fb5836158a2565b8060005b83811015614fe6578151614fcd8882614ed8565b9750614fd883615910565b925050600181019050614fb9565b5085935050505092915050565b6000614ffe826158e2565b6150088185615953565b9350615013836158b2565b8060005b8381101561504457815161502b8882614ef0565b97506150368361591d565b925050600181019050615017565b5085935050505092915050565b61505a816158ed565b6150648184615964565b925061506f826158c2565b8060005b838110156150a05781516150878782614f08565b96506150928361592a565b925050600181019050615073565b505050505050565b6150b181615aaa565b82525050565b6150c081615aaa565b82525050565b6150cf81615b00565b82525050565b6150de81615b24565b82525050565b60006150ef826158f8565b6150f9818561596f565b9350615109818560208601615b36565b61511281615cfa565b840191505092915050565b600061512a60268361596f565b915061513582615d0b565b604082019050919050565b600061514d60128361596f565b915061515882615d5a565b602082019050919050565b600061517060128361596f565b915061517b82615d83565b602082019050919050565b600061519360128361596f565b915061519e82615dac565b602082019050919050565b60006151b6601f8361596f565b91506151c182615dd5565b602082019050919050565b60006151d960208361596f565b91506151e482615dfe565b602082019050919050565b60006151fc60128361596f565b915061520782615e27565b602082019050919050565b600061521f600d8361596f565b915061522a82615e50565b602082019050919050565b600061524260168361596f565b915061524d82615e79565b602082019050919050565b6000615265600c8361596f565b915061527082615ea2565b602082019050919050565b600061528860128361596f565b915061529382615ecb565b602082019050919050565b60006152ab60158361596f565b91506152b682615ef4565b602082019050919050565b60006152ce60128361596f565b91506152d982615f1d565b602082019050919050565b60a0820160008201516152fa60008501826153ac565b50602082015161530d60208501826153ac565b50604082015161532060408501826153ac565b50606082015161533360608501826153ac565b50608082015161534660808501826150a8565b50505050565b60608201600082015161536260008501826153ac565b50602082015161537560208501826153ac565b50604082015161538860408501826150a8565b50505050565b61539781615ae9565b82525050565b6153a681615ae9565b82525050565b6153b581615af3565b82525050565b6153c481615af3565b82525050565b60006020820190506153df6000830184614f2f565b92915050565b60006040820190506153fa6000830184614f3e565b92915050565b6000602082019050818103600083015261541a8184614f95565b905092915050565b6000602082019050818103600083015261543c8184614ff3565b905092915050565b600060a0820190506154596000830184615051565b92915050565b600060208201905061547460008301846150b7565b92915050565b600060208201905061548f60008301846150c6565b92915050565b60006020820190506154aa60008301846150d5565b92915050565b600060208201905081810360008301526154ca81846150e4565b905092915050565b600060208201905081810360008301526154eb8161511d565b9050919050565b6000602082019050818103600083015261550b81615140565b9050919050565b6000602082019050818103600083015261552b81615163565b9050919050565b6000602082019050818103600083015261554b81615186565b9050919050565b6000602082019050818103600083015261556b816151a9565b9050919050565b6000602082019050818103600083015261558b816151cc565b9050919050565b600060208201905081810360008301526155ab816151ef565b9050919050565b600060208201905081810360008301526155cb81615212565b9050919050565b600060208201905081810360008301526155eb81615235565b9050919050565b6000602082019050818103600083015261560b81615258565b9050919050565b6000602082019050818103600083015261562b8161527b565b9050919050565b6000602082019050818103600083015261564b8161529e565b9050919050565b6000602082019050818103600083015261566b816152c1565b9050919050565b6000602082019050615687600083018461539d565b92915050565b60006020820190506156a260008301846153bb565b92915050565b60006060820190506156bd60008301866153bb565b6156ca60208301856153bb565b6156d760408301846150b7565b949350505050565b60006060820190506156f460008301866153bb565b61570160208301856153bb565b61570e60408301846153bb565b949350505050565b600060808201905061572b60008301876153bb565b61573860208301866153bb565b61574560408301856153bb565b61575260608301846153bb565b95945050505050565b600060a08201905061577060008301886153bb565b61577d60208301876153bb565b61578a60408301866153bb565b61579760608301856153bb565b6157a460808301846150b7565b9695505050505050565b600060a0820190506157c360008301886153bb565b6157d060208301876153bb565b6157dd60408301866153bb565b6157ea60608301856153bb565b6157f760808301846153bb565b9695505050505050565b600061580b61581c565b90506158178282615b69565b919050565b6000604051905090565b600067ffffffffffffffff82111561584157615840615ccb565b5b602082029050919050565b600067ffffffffffffffff82111561586757615866615ccb565b5b602082029050919050565b600067ffffffffffffffff82111561588d5761588c615ccb565b5b602082029050919050565b6000819050919050565b6000819050602082019050919050565b6000819050602082019050919050565b6000819050919050565b600060029050919050565b600081519050919050565b600081519050919050565b600060059050919050565b600081519050919050565b6000602082019050919050565b6000602082019050919050565b6000602082019050919050565b6000602082019050919050565b600081905092915050565b600082825260208201905092915050565b600082825260208201905092915050565b600081905092915050565b600082825260208201905092915050565b600061598b82615ae9565b915061599683615ae9565b9250827fffffffffffffffffffffffffffffffffffffffffffffffffffffffffffffffff038211156159cb576159ca615c3e565b5b828201905092915050565b60006159e182615ae9565b91506159ec83615ae9565b9250817fffffffffffffffffffffffffffffffffffffffffffffffffffffffffffffffff0483118215151615615a2557615a24615c3e565b5b828202905092915050565b6000615a3b82615ae9565b9150615a4683615ae9565b925082821015615a5957615a58615c3e565b5b828203905092915050565b6000615a6f82615af3565b9150615a7a83615af3565b925082821015615a8d57615a8c615c3e565b5b828203905092915050565b6000615aa382615ac9565b9050919050565b60008115159050919050565b6000819050615ac482615f46565b919050565b600073ffffffffffffffffffffffffffffffffffffffff82169050919050565b6000819050919050565b600060ff82169050919050565b6000615b0b82615b12565b9050919050565b6000615b1d82615ac9565b9050919050565b6000615b2f82615ab6565b9050919050565b60005b83811015615b54578082015181840152602081019050615b39565b83811115615b63576000848401525b50505050565b615b7282615cfa565b810181811067ffffffffffffffff82111715615b9157615b90615ccb565b5b80604052505050565b6000615ba582615ae9565b91507fffffffffffffffffffffffffffffffffffffffffffffffffffffffffffffffff821415615bd857615bd7615c3e565b5b600182019050919050565b6000615bee82615af3565b915060ff821415615c0257615c01615c3e565b5b600182019050919050565b6000615c1882615ae9565b9150615c2383615ae9565b925082615c3357615c32615c6d565b5b828206905092915050565b7f4e487b7100000000000000000000000000000000000000000000000000000000600052601160045260246000fd5b7f4e487b7100000000000000000000000000000000000000000000000000000000600052601260045260246000fd5b7f4e487b7100000000000000000000000000000000000000000000000000000000600052602160045260246000fd5b7f4e487b7100000000000000000000000000000000000000000000000000000000600052604160045260246000fd5b6000601f19601f8301169050919050565b7f4f776e61626c653a206e6577206f776e657220697320746865207a65726f206160008201527f6464726573730000000000000000000000000000000000000000000000000000602082015250565b7f616c7265616479207375626d6974746564210000000000000000000000000000600082015250565b7f76657269666965722d6261642d696e7075740000000000000000000000000000600082015250565b7f70616972696e672d6d756c2d6661696c65640000000000000000000000000000600082015250565b7f76657269666965722d6774652d736e61726b2d7363616c61722d6669656c6400600082015250565b7f4f776e61626c653a2063616c6c6572206973206e6f7420746865206f776e6572600082015250565b7f616c726561647920726567697374657264210000000000000000000000000000600082015250565b7f6e6f7420616c6c6f776564212000000000000000000000000000000000000000600082015250565b7f70616972696e672d6c656e677468732d6661696c656400000000000000000000600082015250565b7f696e76616c696420686173680000000000000000000000000000000000000000600082015250565b7f70616972696e672d6164642d6661696c65640000000000000000000000000000600082015250565b7f70616972696e672d6f70636f64652d6661696c65640000000000000000000000600082015250565b7f766572696669636174696f6e206572726f720000000000000000000000000000600082015250565b60048110615f5757615f56615c9c565b5b50565b615f6381615a98565b8114615f6e57600080fd5b50565b615f7a81615ae9565b8114615f8557600080fd5b50565b615f9181615af3565b8114615f9c57600080fd5b5056fea26469706673582212200f4ecc0fceaf0c33de2138900fa0ba965250eae63d8c9b4b69b46829b7c54d9964736f6c63430008040033",
  "linkReferences": {},
  "deployedLinkReferences": {}
}