{
  "_format": "hh-sol-artifact-1",
  "contractName": "HitAndBlow",
  "sourceName": "contracts/HitAndBlow.sol",
  "abi": [
    {
      "inputs": [
        {
          "internalType": "contract IVerifier",
          "name": "_verifier",
          "type": "address"
        },
        {
          "internalType": "contract IHasher",
          "name": "_hasher",
          "type": "address"
        }
      ],
      "stateMutability": "nonpayable",
      "type": "constructor"
    },
    {
      "anonymous": false,
      "inputs": [
        {
          "indexed": true,
          "internalType": "address",
          "name": "player",
          "type": "address"
        },
        {
          "indexed": false,
          "internalType": "uint256",
          "name": "solutionHash",
          "type": "uint256"
        }
      ],
      "name": "CommitSolutionHash",
      "type": "event"
    },
    {
      "anonymous": false,
      "inputs": [
        {
          "indexed": true,
          "internalType": "address",
          "name": "winner",
          "type": "address"
        }
      ],
      "name": "GameFinish",
      "type": "event"
    },
    {
      "anonymous": false,
      "inputs": [],
      "name": "Initialize",
      "type": "event"
    },
    {
      "anonymous": false,
      "inputs": [
        {
          "indexed": true,
          "internalType": "address",
          "name": "previousOwner",
          "type": "address"
        },
        {
          "indexed": true,
          "internalType": "address",
          "name": "newOwner",
          "type": "address"
        }
      ],
      "name": "OwnershipTransferred",
      "type": "event"
    },
    {
      "anonymous": false,
      "inputs": [
        {
          "indexed": true,
          "internalType": "address",
          "name": "player",
          "type": "address"
        }
      ],
      "name": "Register",
      "type": "event"
    },
    {
      "anonymous": false,
      "inputs": [
        {
          "indexed": true,
          "internalType": "address",
          "name": "player",
          "type": "address"
        },
        {
          "indexed": false,
          "internalType": "uint8",
          "name": "a",
          "type": "uint8"
        },
        {
          "indexed": false,
          "internalType": "uint8",
          "name": "b",
          "type": "uint8"
        },
        {
          "indexed": false,
          "internalType": "uint8",
          "name": "c",
          "type": "uint8"
        },
        {
          "indexed": false,
          "internalType": "uint8",
          "name": "d",
          "type": "uint8"
        }
      ],
      "name": "Reveal",
      "type": "event"
    },
    {
      "anonymous": false,
      "inputs": [
        {
          "indexed": false,
          "internalType": "uint8",
          "name": "round",
          "type": "uint8"
        }
      ],
      "name": "RoundChange",
      "type": "event"
    },
    {
      "anonymous": false,
      "inputs": [
        {
          "indexed": false,
          "internalType": "enum HitAndBlow.Stages",
          "name": "stage",
          "type": "uint8"
        }
      ],
      "name": "StageChange",
      "type": "event"
    },
    {
      "anonymous": false,
      "inputs": [
        {
          "indexed": true,
          "internalType": "address",
          "name": "player",
          "type": "address"
        },
        {
          "indexed": false,
          "internalType": "uint8",
          "name": "currentRound",
          "type": "uint8"
        },
        {
          "indexed": false,
          "internalType": "uint8",
          "name": "a",
          "type": "uint8"
        },
        {
          "indexed": false,
          "internalType": "uint8",
          "name": "b",
          "type": "uint8"
        },
        {
          "indexed": false,
          "internalType": "uint8",
          "name": "c",
          "type": "uint8"
        },
        {
          "indexed": false,
          "internalType": "uint8",
          "name": "d",
          "type": "uint8"
        }
      ],
      "name": "SubmitGuess",
      "type": "event"
    },
    {
      "anonymous": false,
      "inputs": [
        {
          "indexed": true,
          "internalType": "address",
          "name": "player",
          "type": "address"
        },
        {
          "indexed": false,
          "internalType": "uint8",
          "name": "currentRound",
          "type": "uint8"
        },
        {
          "indexed": false,
          "internalType": "uint8",
          "name": "hit",
          "type": "uint8"
        },
        {
          "indexed": false,
          "internalType": "uint8",
          "name": "blow",
          "type": "uint8"
        }
      ],
      "name": "SubmitHB",
      "type": "event"
    },
    {
      "inputs": [],
      "name": "MAX_ROUND",
      "outputs": [
        {
          "internalType": "uint8",
          "name": "",
          "type": "uint8"
        }
      ],
      "stateMutability": "view",
      "type": "function"
    },
    {
      "inputs": [
        {
          "internalType": "uint256",
          "name": "solutionHash",
          "type": "uint256"
        }
      ],
      "name": "commitSolutionHash",
      "outputs": [],
      "stateMutability": "nonpayable",
      "type": "function"
    },
    {
      "inputs": [],
      "name": "currentRound",
      "outputs": [
        {
          "internalType": "uint8",
          "name": "",
          "type": "uint8"
        }
      ],
      "stateMutability": "view",
      "type": "function"
    },
    {
      "inputs": [
        {
          "internalType": "address",
          "name": "player",
          "type": "address"
        }
      ],
      "name": "getSubmittedGuess",
      "outputs": [
        {
          "components": [
            {
              "internalType": "uint8",
              "name": "one",
              "type": "uint8"
            },
            {
              "internalType": "uint8",
              "name": "two",
              "type": "uint8"
            },
            {
              "internalType": "uint8",
              "name": "three",
              "type": "uint8"
            },
            {
              "internalType": "uint8",
              "name": "four",
              "type": "uint8"
            },
            {
              "internalType": "bool",
              "name": "submitted",
              "type": "bool"
            }
          ],
          "internalType": "struct HitAndBlow.Guess[]",
          "name": "",
          "type": "tuple[]"
        }
      ],
      "stateMutability": "view",
      "type": "function"
    },
    {
      "inputs": [
        {
          "internalType": "address",
          "name": "player",
          "type": "address"
        }
      ],
      "name": "getSubmittedHB",
      "outputs": [
        {
          "components": [
            {
              "internalType": "uint8",
              "name": "hit",
              "type": "uint8"
            },
            {
              "internalType": "uint8",
              "name": "blow",
              "type": "uint8"
            },
            {
              "internalType": "bool",
              "name": "submitted",
              "type": "bool"
            }
          ],
          "internalType": "struct HitAndBlow.HB[]",
          "name": "",
          "type": "tuple[]"
        }
      ],
      "stateMutability": "view",
      "type": "function"
    },
    {
      "inputs": [],
      "name": "getplayers",
      "outputs": [
        {
          "internalType": "address[2]",
          "name": "",
          "type": "address[2]"
        }
      ],
      "stateMutability": "view",
      "type": "function"
    },
    {
      "inputs": [],
      "name": "hasher",
      "outputs": [
        {
          "internalType": "contract IHasher",
          "name": "",
          "type": "address"
        }
      ],
      "stateMutability": "view",
      "type": "function"
    },
    {
      "inputs": [],
      "name": "initialize",
      "outputs": [],
      "stateMutability": "nonpayable",
      "type": "function"
    },
    {
      "inputs": [],
      "name": "initializeOnlyOwner",
      "outputs": [],
      "stateMutability": "nonpayable",
      "type": "function"
    },
    {
      "inputs": [],
      "name": "owner",
      "outputs": [
        {
          "internalType": "address",
          "name": "",
          "type": "address"
        }
      ],
      "stateMutability": "view",
      "type": "function"
    },
    {
      "inputs": [
        {
          "internalType": "uint256",
          "name": "",
          "type": "uint256"
        }
      ],
      "name": "players",
      "outputs": [
        {
          "internalType": "address",
          "name": "",
          "type": "address"
        }
      ],
      "stateMutability": "view",
      "type": "function"
    },
    {
      "inputs": [],
      "name": "register",
      "outputs": [],
      "stateMutability": "nonpayable",
      "type": "function"
    },
    {
      "inputs": [],
      "name": "renounceOwnership",
      "outputs": [],
      "stateMutability": "nonpayable",
      "type": "function"
    },
    {
      "inputs": [
        {
          "internalType": "uint256",
          "name": "salt",
          "type": "uint256"
        },
        {
          "internalType": "uint8",
          "name": "a",
          "type": "uint8"
        },
        {
          "internalType": "uint8",
          "name": "b",
          "type": "uint8"
        },
        {
          "internalType": "uint8",
          "name": "c",
          "type": "uint8"
        },
        {
          "internalType": "uint8",
          "name": "d",
          "type": "uint8"
        }
      ],
      "name": "reveal",
      "outputs": [],
      "stateMutability": "nonpayable",
      "type": "function"
    },
    {
      "inputs": [
        {
          "internalType": "address",
          "name": "",
          "type": "address"
        }
      ],
      "name": "solutionHashes",
      "outputs": [
        {
          "internalType": "uint256",
          "name": "",
          "type": "uint256"
        }
      ],
      "stateMutability": "view",
      "type": "function"
    },
    {
      "inputs": [],
      "name": "stage",
      "outputs": [
        {
          "internalType": "enum HitAndBlow.Stages",
          "name": "",
          "type": "uint8"
        }
      ],
      "stateMutability": "view",
      "type": "function"
    },
    {
      "inputs": [
        {
          "internalType": "uint8",
          "name": "guess1",
          "type": "uint8"
        },
        {
          "internalType": "uint8",
          "name": "guess2",
          "type": "uint8"
        },
        {
          "internalType": "uint8",
          "name": "guess3",
          "type": "uint8"
        },
        {
          "internalType": "uint8",
          "name": "guess4",
          "type": "uint8"
        }
      ],
      "name": "submitGuess",
      "outputs": [],
      "stateMutability": "nonpayable",
      "type": "function"
    },
    {
      "inputs": [
        {
          "internalType": "uint256[2]",
          "name": "a",
          "type": "uint256[2]"
        },
        {
          "internalType": "uint256[2][2]",
          "name": "b",
          "type": "uint256[2][2]"
        },
        {
          "internalType": "uint256[2]",
          "name": "c",
          "type": "uint256[2]"
        },
        {
          "internalType": "uint256[8]",
          "name": "input",
          "type": "uint256[8]"
        }
      ],
      "name": "submitHbProof",
      "outputs": [],
      "stateMutability": "nonpayable",
      "type": "function"
    },
    {
      "inputs": [
        {
          "internalType": "uint256",
          "name": "",
          "type": "uint256"
        },
        {
          "internalType": "address",
          "name": "",
          "type": "address"
        }
      ],
      "name": "submittedGuess",
      "outputs": [
        {
          "internalType": "uint8",
          "name": "one",
          "type": "uint8"
        },
        {
          "internalType": "uint8",
          "name": "two",
          "type": "uint8"
        },
        {
          "internalType": "uint8",
          "name": "three",
          "type": "uint8"
        },
        {
          "internalType": "uint8",
          "name": "four",
          "type": "uint8"
        },
        {
          "internalType": "bool",
          "name": "submitted",
          "type": "bool"
        }
      ],
      "stateMutability": "view",
      "type": "function"
    },
    {
      "inputs": [
        {
          "internalType": "uint256",
          "name": "",
          "type": "uint256"
        },
        {
          "internalType": "address",
          "name": "",
          "type": "address"
        }
      ],
      "name": "submittedHB",
      "outputs": [
        {
          "internalType": "uint8",
          "name": "hit",
          "type": "uint8"
        },
        {
          "internalType": "uint8",
          "name": "blow",
          "type": "uint8"
        },
        {
          "internalType": "bool",
          "name": "submitted",
          "type": "bool"
        }
      ],
      "stateMutability": "view",
      "type": "function"
    },
    {
      "inputs": [
        {
          "internalType": "address",
          "name": "newOwner",
          "type": "address"
        }
      ],
      "name": "transferOwnership",
      "outputs": [],
      "stateMutability": "nonpayable",
      "type": "function"
    },
    {
      "inputs": [],
      "name": "verifier",
      "outputs": [
        {
          "internalType": "contract IVerifier",
          "name": "",
          "type": "address"
        }
      ],
      "stateMutability": "view",
      "type": "function"
    },
    {
      "inputs": [],
      "name": "winner",
      "outputs": [
        {
          "internalType": "address",
          "name": "",
          "type": "address"
        }
      ],
      "stateMutability": "view",
      "type": "function"
    }
  ],
  "bytecode": "0x60806040526001600060146101000a81548160ff021916908360ff1602179055506000600560006101000a81548160ff021916908360038111156200006d577f4e487b7100000000000000000000000000000000000000000000000000000000600052602160045260246000fd5b02179055503480156200007f57600080fd5b50604051620047ea380380620047ea8339818101604052810190620000a5919062000360565b620000c5620000b96200019a60201b60201c565b620001a260201b60201c565b620001106040518060400160405280601781526020017f4465706c6f79696e67206120486974416e64426c6f77210000000000000000008152506200026660201b620023691760201c565b81606b60006101000a81548173ffffffffffffffffffffffffffffffffffffffff021916908373ffffffffffffffffffffffffffffffffffffffff16021790555080606a60006101000a81548173ffffffffffffffffffffffffffffffffffffffff021916908373ffffffffffffffffffffffffffffffffffffffff1602179055505050620004f9565b600033905090565b60008060009054906101000a900473ffffffffffffffffffffffffffffffffffffffff169050816000806101000a81548173ffffffffffffffffffffffffffffffffffffffff021916908373ffffffffffffffffffffffffffffffffffffffff1602179055508173ffffffffffffffffffffffffffffffffffffffff168173ffffffffffffffffffffffffffffffffffffffff167f8be0079c531659141344cd1fd0a4f28419497f9722a3daafe3b4186f6b6457e060405160405180910390a35050565b62000306816040516024016200027d9190620003e2565b6040516020818303038152906040527f41304fac000000000000000000000000000000000000000000000000000000007bffffffffffffffffffffffffffffffffffffffffffffffffffffffff19166020820180517bffffffffffffffffffffffffffffffffffffffffffffffffffffffff83818316178352505050506200030960201b60201c565b50565b60008151905060006a636f6e736f6c652e6c6f679050602083016000808483855afa5050505050565b6000815190506200034381620004c5565b92915050565b6000815190506200035a81620004df565b92915050565b600080604083850312156200037457600080fd5b6000620003848582860162000349565b9250506020620003978582860162000332565b9150509250929050565b6000620003ae8262000406565b620003ba818562000411565b9350620003cc8185602086016200047e565b620003d781620004b4565b840191505092915050565b60006020820190508181036000830152620003fe8184620003a1565b905092915050565b600081519050919050565b600082825260208201905092915050565b60006200042f826200045e565b9050919050565b6000620004438262000422565b9050919050565b6000620004578262000422565b9050919050565b600073ffffffffffffffffffffffffffffffffffffffff82169050919050565b60005b838110156200049e57808201518184015260208101905062000481565b83811115620004ae576000848401525b50505050565b6000601f19601f8301169050919050565b620004d08162000436565b8114620004dc57600080fd5b50565b620004ea816200044a565b8114620004f657600080fd5b50565b6142e180620005096000396000f3fe608060405234801561001057600080fd5b506004361061014d5760003560e01c8063ab56c0d5116100c3578063dfbf53ae1161007c578063dfbf53ae14610344578063ecb3db5214610362578063ed33639f14610380578063f2ca76881461039e578063f2fde38b146103d0578063f71d96cb146103ec5761014d565b8063ab56c0d514610258578063b4ac62c514610288578063c040e6b8146102a6578063c997ce08146102c4578063ce9af863146102f4578063d1b8fe78146103285761014d565b80638129fc1c116101155780638129fc1c146101d057806384abfccf146101da5780638a19c8bc146101e45780638da5cb5b1461020257806395f2d1f414610220578063a695c3ae1461023c5761014d565b80631aa3a008146101525780632b7ac3f31461015c578063682834871461017a578063715018a6146101aa57806375c8fd6c146101b4575b600080fd5b61015a61041c565b005b610164610848565b60405161017191906139b3565b60405180910390f35b610194600480360381019061018f91906130bf565b61086e565b6040516101a19190613b0b565b60405180910390f35b6101b2610886565b005b6101ce60048036038101906101c991906130e8565b61090e565b005b6101d861114e565b005b6101e26112b3565b005b6101ec611339565b6040516101f99190613b26565b60405180910390f35b61020a61134c565b60405161021791906138bc565b60405180910390f35b61023a6004803603810190610235919061327b565b611375565b005b61025660048036038101906102519190613176565b61170a565b005b610272600480360381019061026d91906130bf565b61193b565b60405161027f9190613914565b60405180910390f35b610290611b2b565b60405161029d9190613b26565b60405180910390f35b6102ae611b30565b6040516102bb91906139ce565b60405180910390f35b6102de60048036038101906102d991906130bf565b611b43565b6040516102eb91906138f2565b60405180910390f35b61030e600480360381019061030991906131c8565b611dab565b60405161031f959493929190613bf4565b60405180910390f35b610342600480360381019061033d9190613204565b611e32565b005b61034c61210d565b60405161035991906138bc565b60405180910390f35b61036a612133565b60405161037791906138d7565b60405180910390f35b6103886121b4565b6040516103959190613998565b60405180910390f35b6103b860048036038101906103b391906131c8565b6121da565b6040516103c793929190613b41565b60405180910390f35b6103ea60048036038101906103e591906130bf565b61223b565b005b61040660048036038101906104019190613176565b612333565b60405161041391906138bc565b60405180910390f35b6000806003811115610457577f4e487b7100000000000000000000000000000000000000000000000000000000600052602160045260246000fd5b600560009054906101000a900460ff16600381111561049f577f4e487b7100000000000000000000000000000000000000000000000000000000600052602160045260246000fd5b146104df576040517f08c379a00000000000000000000000000000000000000000000000000000000081526004016104d690613aab565b60405180910390fd5b600073ffffffffffffffffffffffffffffffffffffffff166001600060028110610532577f4e487b7100000000000000000000000000000000000000000000000000000000600052603260045260246000fd5b0160009054906101000a900473ffffffffffffffffffffffffffffffffffffffff1673ffffffffffffffffffffffffffffffffffffffff161415610633573360016000600281106105ac577f4e487b7100000000000000000000000000000000000000000000000000000000600052603260045260246000fd5b0160006101000a81548173ffffffffffffffffffffffffffffffffffffffff021916908373ffffffffffffffffffffffffffffffffffffffff1602179055503373ffffffffffffffffffffffffffffffffffffffff167feeda149c76076b34d4b9d8896c2f7efc0d33d1c7b53ea3c5db490d64613f603a60405160405180910390a2610845565b3373ffffffffffffffffffffffffffffffffffffffff166001600060028110610685577f4e487b7100000000000000000000000000000000000000000000000000000000600052603260045260246000fd5b0160009054906101000a900473ffffffffffffffffffffffffffffffffffffffff1673ffffffffffffffffffffffffffffffffffffffff1614156106fe576040517f08c379a00000000000000000000000000000000000000000000000000000000081526004016106f590613a8b565b60405180910390fd5b3360018060028110610739577f4e487b7100000000000000000000000000000000000000000000000000000000600052603260045260246000fd5b0160006101000a81548173ffffffffffffffffffffffffffffffffffffffff021916908373ffffffffffffffffffffffffffffffffffffffff1602179055506001600560006101000a81548160ff021916908360038111156107c4577f4e487b7100000000000000000000000000000000000000000000000000000000600052602160045260246000fd5b02179055503373ffffffffffffffffffffffffffffffffffffffff167feeda149c76076b34d4b9d8896c2f7efc0d33d1c7b53ea3c5db490d64613f603a60405160405180910390a27fc2c79e90970e807cdffdfc0896c48a489b0f6882b90beb4c9d6386ddc0fc95cf600160405161083c91906139ce565b60405180910390a15b50565b606b60009054906101000a900473ffffffffffffffffffffffffffffffffffffffff1681565b60046020528060005260406000206000915090505481565b61088e612402565b73ffffffffffffffffffffffffffffffffffffffff166108ac61134c565b73ffffffffffffffffffffffffffffffffffffffff1614610902576040517f08c379a00000000000000000000000000000000000000000000000000000000081526004016108f990613a6b565b60405180910390fd5b61090c600061240a565b565b6002806003811115610949577f4e487b7100000000000000000000000000000000000000000000000000000000600052602160045260246000fd5b600560009054906101000a900460ff166003811115610991577f4e487b7100000000000000000000000000000000000000000000000000000000600052602160045260246000fd5b146109d1576040517f08c379a00000000000000000000000000000000000000000000000000000000081526004016109c890613aab565b60405180910390fd5b606b60009054906101000a900473ffffffffffffffffffffffffffffffffffffffff1673ffffffffffffffffffffffffffffffffffffffff1663c9219a7a868686866040518563ffffffff1660e01b8152600401610a329493929190613936565b60206040518083038186803b158015610a4a57600080fd5b505afa158015610a5e573d6000803e3d6000fd5b505050506040513d601f19601f82011682018060405250810190610a82919061314d565b610ac1576040517f08c379a0000000000000000000000000000000000000000000000000000000008152600401610ab890613aeb565b60405180910390fd5b600082600560088110610afd577f4e487b7100000000000000000000000000000000000000000000000000000000600052603260045260246000fd5b60200201519050600083600660088110610b40577f4e487b7100000000000000000000000000000000000000000000000000000000600052603260045260246000fd5b60200201519050600060405180606001604052808460ff1681526020018360ff1681526020016001151581525090508060386001600060149054906101000a900460ff16610b8e9190613eab565b60ff1660328110610bc8577f4e487b7100000000000000000000000000000000000000000000000000000000600052603260045260246000fd5b0160003373ffffffffffffffffffffffffffffffffffffffff1673ffffffffffffffffffffffffffffffffffffffff16815260200190815260200160002060008201518160000160006101000a81548160ff021916908360ff16021790555060208201518160000160016101000a81548160ff021916908360ff16021790555060408201518160000160026101000a81548160ff021916908315150217905550905050600060048460ff161415610d6457600073ffffffffffffffffffffffffffffffffffffffff16600360009054906101000a900473ffffffffffffffffffffffffffffffffffffffff1673ffffffffffffffffffffffffffffffffffffffff1614610d1a57600190506000600360006101000a81548173ffffffffffffffffffffffffffffffffffffffff021916908373ffffffffffffffffffffffffffffffffffffffff160217905550610d63565b610d226124ce565b600360006101000a81548173ffffffffffffffffffffffffffffffffffffffff021916908373ffffffffffffffffffffffffffffffffffffffff1602179055505b5b6000610d6e6124ce565b90508115610e2657600360009054906101000a900473ffffffffffffffffffffffffffffffffffffffff1673ffffffffffffffffffffffffffffffffffffffff167fa8e13a2604f0d85ed8a48561f2e18e44a35a8bb4c0b7a657ac6254a5fd51cd4b60405160405180910390a2610e196040518060400160405280600a81526020017f47616d6546696e69736800000000000000000000000000000000000000000000815250612369565b610e21612626565b6110e1565b6001151560386001600060149054906101000a900460ff16610e489190613eab565b60ff1660328110610e82577f4e487b7100000000000000000000000000000000000000000000000000000000600052603260045260246000fd5b0160008373ffffffffffffffffffffffffffffffffffffffff1673ffffffffffffffffffffffffffffffffffffffff16815260200190815260200160002060000160029054906101000a900460ff16151514156110e057600073ffffffffffffffffffffffffffffffffffffffff16600360009054906101000a900473ffffffffffffffffffffffffffffffffffffffff1673ffffffffffffffffffffffffffffffffffffffff161461106057610f6d6040518060400160405280600a81526020017f47616d6546696e69736800000000000000000000000000000000000000000000815250612369565b600360009054906101000a900473ffffffffffffffffffffffffffffffffffffffff1673ffffffffffffffffffffffffffffffffffffffff167fa8e13a2604f0d85ed8a48561f2e18e44a35a8bb4c0b7a657ac6254a5fd51cd4b60405160405180910390a26003600560006101000a81548160ff0219169083600381111561101e577f4e487b7100000000000000000000000000000000000000000000000000000000600052602160045260246000fd5b02179055507fc2c79e90970e807cdffdfc0896c48a489b0f6882b90beb4c9d6386ddc0fc95cf600360405161105391906139ce565b60405180910390a16110df565b6000601481819054906101000a900460ff168092919061107f90614005565b91906101000a81548160ff021916908360ff160217905550507f371fb02a4cc0a41fcae1f4fd11318eb53a56d544d9cdb81f8221b0b012962bd8600060149054906101000a900460ff166040516110d69190613b26565b60405180910390a15b5b5b3373ffffffffffffffffffffffffffffffffffffffff167f0ddf3cb018d1be71b7b8753c6aca06c057a0389952bdde8c9cf074581ef78152600060149054906101000a900460ff16878760405161113a93929190613b78565b60405180910390a250505050505050505050565b6001600060028110611189577f4e487b7100000000000000000000000000000000000000000000000000000000600052603260045260246000fd5b0160009054906101000a900473ffffffffffffffffffffffffffffffffffffffff1673ffffffffffffffffffffffffffffffffffffffff163373ffffffffffffffffffffffffffffffffffffffff16148061126a575060018060028110611219577f4e487b7100000000000000000000000000000000000000000000000000000000600052603260045260246000fd5b0160009054906101000a900473ffffffffffffffffffffffffffffffffffffffff1673ffffffffffffffffffffffffffffffffffffffff163373ffffffffffffffffffffffffffffffffffffffff16145b6112a9576040517f08c379a00000000000000000000000000000000000000000000000000000000081526004016112a090613a4b565b60405180910390fd5b6112b1612626565b565b6112bb612402565b73ffffffffffffffffffffffffffffffffffffffff166112d961134c565b73ffffffffffffffffffffffffffffffffffffffff161461132f576040517f08c379a000000000000000000000000000000000000000000000000000000000815260040161132690613a6b565b60405180910390fd5b611337612626565b565b600060149054906101000a900460ff1681565b60008060009054906101000a900473ffffffffffffffffffffffffffffffffffffffff16905090565b60028060038111156113b0577f4e487b7100000000000000000000000000000000000000000000000000000000600052602160045260246000fd5b600560009054906101000a900460ff1660038111156113f8577f4e487b7100000000000000000000000000000000000000000000000000000000600052602160045260246000fd5b14611438576040517f08c379a000000000000000000000000000000000000000000000000000000000815260040161142f90613aab565b60405180910390fd5b6000151560066001600060149054906101000a900460ff1661145a9190613eab565b60ff1660328110611494577f4e487b7100000000000000000000000000000000000000000000000000000000600052603260045260246000fd5b0160003373ffffffffffffffffffffffffffffffffffffffff1673ffffffffffffffffffffffffffffffffffffffff16815260200190815260200160002060000160049054906101000a900460ff16151514611525576040517f08c379a000000000000000000000000000000000000000000000000000000000815260040161151c90613a2b565b60405180910390fd5b60006040518060a001604052808760ff1681526020018660ff1681526020018560ff1681526020018460ff1681526020016001151581525090508060066001600060149054906101000a900460ff1661157e9190613eab565b60ff16603281106115b8577f4e487b7100000000000000000000000000000000000000000000000000000000600052603260045260246000fd5b0160003373ffffffffffffffffffffffffffffffffffffffff1673ffffffffffffffffffffffffffffffffffffffff16815260200190815260200160002060008201518160000160006101000a81548160ff021916908360ff16021790555060208201518160000160016101000a81548160ff021916908360ff16021790555060408201518160000160026101000a81548160ff021916908360ff16021790555060608201518160000160036101000a81548160ff021916908360ff16021790555060808201518160000160046101000a81548160ff0219169083151502179055509050503373ffffffffffffffffffffffffffffffffffffffff167f03e5493440227aef0d1ce2c10c361defa2acc053c5881daa8b734853e216efd1600060149054906101000a900460ff16888888886040516116fa959493929190613c47565b60405180910390a2505050505050565b6001806003811115611745577f4e487b7100000000000000000000000000000000000000000000000000000000600052602160045260246000fd5b600560009054906101000a900460ff16600381111561178d577f4e487b7100000000000000000000000000000000000000000000000000000000600052602160045260246000fd5b146117cd576040517f08c379a00000000000000000000000000000000000000000000000000000000081526004016117c490613aab565b60405180910390fd5b81600460003373ffffffffffffffffffffffffffffffffffffffff1673ffffffffffffffffffffffffffffffffffffffff168152602001908152602001600020819055503373ffffffffffffffffffffffffffffffffffffffff167fc83617f8aff831bee99216a4007ee8436f8a36cc0b5bab8c816f52d0aef5e438836040516118579190613b0b565b60405180910390a260006004600061186d6124ce565b73ffffffffffffffffffffffffffffffffffffffff1673ffffffffffffffffffffffffffffffffffffffff1681526020019081526020016000205414611937576002600560006101000a81548160ff021916908360038111156118f9577f4e487b7100000000000000000000000000000000000000000000000000000000600052602160045260246000fd5b02179055507fc2c79e90970e807cdffdfc0896c48a489b0f6882b90beb4c9d6386ddc0fc95cf600260405161192e91906139ce565b60405180910390a15b5050565b606060008060149054906101000a900460ff1660ff1667ffffffffffffffff811115611990577f4e487b7100000000000000000000000000000000000000000000000000000000600052604160045260246000fd5b6040519080825280602002602001820160405280156119c957816020015b6119b6612e30565b8152602001906001900390816119ae5790505b50905060005b600060149054906101000a900460ff1660ff168160ff161015611b215760388160ff1660328110611a29577f4e487b7100000000000000000000000000000000000000000000000000000000600052603260045260246000fd5b0160008573ffffffffffffffffffffffffffffffffffffffff1673ffffffffffffffffffffffffffffffffffffffff1681526020019081526020016000206040518060600160405290816000820160009054906101000a900460ff1660ff1660ff1681526020016000820160019054906101000a900460ff1660ff1660ff1681526020016000820160029054906101000a900460ff161515151581525050828260ff1681518110611b03577f4e487b7100000000000000000000000000000000000000000000000000000000600052603260045260246000fd5b60200260200101819052508080611b1990614005565b9150506119cf565b5080915050919050565b603281565b600560009054906101000a900460ff1681565b6060611b836040518060400160405280601281526020017f6765745375626d69747465644775657373210000000000000000000000000000815250612369565b60008060149054906101000a900460ff1660ff1667ffffffffffffffff811115611bd6577f4e487b7100000000000000000000000000000000000000000000000000000000600052604160045260246000fd5b604051908082528060200260200182016040528015611c0f57816020015b611bfc612e59565b815260200190600190039081611bf45790505b50905060005b600060149054906101000a900460ff1660ff168160ff161015611da15760068160ff1660328110611c6f577f4e487b7100000000000000000000000000000000000000000000000000000000600052603260045260246000fd5b0160008573ffffffffffffffffffffffffffffffffffffffff1673ffffffffffffffffffffffffffffffffffffffff1681526020019081526020016000206040518060a00160405290816000820160009054906101000a900460ff1660ff1660ff1681526020016000820160019054906101000a900460ff1660ff1660ff1681526020016000820160029054906101000a900460ff1660ff1660ff1681526020016000820160039054906101000a900460ff1660ff1660ff1681526020016000820160049054906101000a900460ff161515151581525050828260ff1681518110611d83577f4e487b7100000000000000000000000000000000000000000000000000000000600052603260045260246000fd5b60200260200101819052508080611d9990614005565b915050611c15565b5080915050919050565b60068260328110611dbb57600080fd5b01602052806000526040600020600091509150508060000160009054906101000a900460ff16908060000160019054906101000a900460ff16908060000160029054906101000a900460ff16908060000160039054906101000a900460ff16908060000160049054906101000a900460ff16905085565b6003806003811115611e6d577f4e487b7100000000000000000000000000000000000000000000000000000000600052602160045260246000fd5b600560009054906101000a900460ff166003811115611eb5577f4e487b7100000000000000000000000000000000000000000000000000000000600052602160045260246000fd5b14611ef5576040517f08c379a0000000000000000000000000000000000000000000000000000000008152600401611eec90613aab565b60405180910390fd5b600460003373ffffffffffffffffffffffffffffffffffffffff1673ffffffffffffffffffffffffffffffffffffffff16815260200190815260200160002054606a60009054906101000a900473ffffffffffffffffffffffffffffffffffffffff1673ffffffffffffffffffffffffffffffffffffffff16634937a2586040518060a001604052808a81526020018960ff1681526020018860ff1681526020018760ff1681526020018660ff168152506040518263ffffffff1660e01b8152600401611fc2919061397d565b60206040518083038186803b158015611fda57600080fd5b505afa158015611fee573d6000803e3d6000fd5b505050506040513d601f19601f82011682018060405250810190612012919061319f565b14612052576040517f08c379a000000000000000000000000000000000000000000000000000000000815260040161204990613acb565b60405180910390fd5b3373ffffffffffffffffffffffffffffffffffffffff167f5e7fdf2512ab9b99d72e078bab23ce002274ef0f42e29746a2012e8e2bdf00208686868660405161209e9493929190613baf565b60405180910390a2600360009054906101000a900473ffffffffffffffffffffffffffffffffffffffff1673ffffffffffffffffffffffffffffffffffffffff163373ffffffffffffffffffffffffffffffffffffffff16141561210557612104612626565b5b505050505050565b600360009054906101000a900473ffffffffffffffffffffffffffffffffffffffff1681565b61213b612e96565b60016002806020026040519081016040528092919082600280156121aa576020028201915b8160009054906101000a900473ffffffffffffffffffffffffffffffffffffffff1673ffffffffffffffffffffffffffffffffffffffff1681526020019060010190808311612160575b5050505050905090565b606a60009054906101000a900473ffffffffffffffffffffffffffffffffffffffff1681565b603882603281106121ea57600080fd5b01602052806000526040600020600091509150508060000160009054906101000a900460ff16908060000160019054906101000a900460ff16908060000160029054906101000a900460ff16905083565b612243612402565b73ffffffffffffffffffffffffffffffffffffffff1661226161134c565b73ffffffffffffffffffffffffffffffffffffffff16146122b7576040517f08c379a00000000000000000000000000000000000000000000000000000000081526004016122ae90613a6b565b60405180910390fd5b600073ffffffffffffffffffffffffffffffffffffffff168173ffffffffffffffffffffffffffffffffffffffff161415612327576040517f08c379a000000000000000000000000000000000000000000000000000000000815260040161231e90613a0b565b60405180910390fd5b6123308161240a565b50565b6001816002811061234357600080fd5b016000915054906101000a900473ffffffffffffffffffffffffffffffffffffffff1681565b6123ff8160405160240161237d91906139e9565b6040516020818303038152906040527f41304fac000000000000000000000000000000000000000000000000000000007bffffffffffffffffffffffffffffffffffffffffffffffffffffffff19166020820180517bffffffffffffffffffffffffffffffffffffffffffffffffffffffff8381831617835250505050612e07565b50565b600033905090565b60008060009054906101000a900473ffffffffffffffffffffffffffffffffffffffff169050816000806101000a81548173ffffffffffffffffffffffffffffffffffffffff021916908373ffffffffffffffffffffffffffffffffffffffff1602179055508173ffffffffffffffffffffffffffffffffffffffff168173ffffffffffffffffffffffffffffffffffffffff167f8be0079c531659141344cd1fd0a4f28419497f9722a3daafe3b4186f6b6457e060405160405180910390a35050565b60003373ffffffffffffffffffffffffffffffffffffffff166001600060028110612522577f4e487b7100000000000000000000000000000000000000000000000000000000600052603260045260246000fd5b0160009054906101000a900473ffffffffffffffffffffffffffffffffffffffff1673ffffffffffffffffffffffffffffffffffffffff1614156125c3576001806002811061259a577f4e487b7100000000000000000000000000000000000000000000000000000000600052603260045260246000fd5b0160009054906101000a900473ffffffffffffffffffffffffffffffffffffffff169050612623565b60016000600281106125fe577f4e487b7100000000000000000000000000000000000000000000000000000000600052603260045260246000fd5b0160009054906101000a900473ffffffffffffffffffffffffffffffffffffffff1690505b90565b6000600560006101000a81548160ff02191690836003811115612672577f4e487b7100000000000000000000000000000000000000000000000000000000600052602160045260246000fd5b02179055506001600060146101000a81548160ff021916908360ff16021790555060005b603260ff168160ff161015612b5e5760068160ff16603281106126e2577f4e487b7100000000000000000000000000000000000000000000000000000000600052603260045260246000fd5b0160006001600060028110612720577f4e487b7100000000000000000000000000000000000000000000000000000000600052603260045260246000fd5b0160009054906101000a900473ffffffffffffffffffffffffffffffffffffffff1673ffffffffffffffffffffffffffffffffffffffff1673ffffffffffffffffffffffffffffffffffffffff168152602001908152602001600020600080820160006101000a81549060ff02191690556000820160016101000a81549060ff02191690556000820160026101000a81549060ff02191690556000820160036101000a81549060ff02191690556000820160046101000a81549060ff0219169055505060068160ff1660328110612820577f4e487b7100000000000000000000000000000000000000000000000000000000600052603260045260246000fd5b0160006001806002811061285d577f4e487b7100000000000000000000000000000000000000000000000000000000600052603260045260246000fd5b0160009054906101000a900473ffffffffffffffffffffffffffffffffffffffff1673ffffffffffffffffffffffffffffffffffffffff1673ffffffffffffffffffffffffffffffffffffffff168152602001908152602001600020600080820160006101000a81549060ff02191690556000820160016101000a81549060ff02191690556000820160026101000a81549060ff02191690556000820160036101000a81549060ff02191690556000820160046101000a81549060ff0219169055505060388160ff166032811061295d577f4e487b7100000000000000000000000000000000000000000000000000000000600052603260045260246000fd5b016000600160006002811061299b577f4e487b7100000000000000000000000000000000000000000000000000000000600052603260045260246000fd5b0160009054906101000a900473ffffffffffffffffffffffffffffffffffffffff1673ffffffffffffffffffffffffffffffffffffffff1673ffffffffffffffffffffffffffffffffffffffff168152602001908152602001600020600080820160006101000a81549060ff02191690556000820160016101000a81549060ff02191690556000820160026101000a81549060ff0219169055505060388160ff1660328110612a73577f4e487b7100000000000000000000000000000000000000000000000000000000600052603260045260246000fd5b01600060018060028110612ab0577f4e487b7100000000000000000000000000000000000000000000000000000000600052603260045260246000fd5b0160009054906101000a900473ffffffffffffffffffffffffffffffffffffffff1673ffffffffffffffffffffffffffffffffffffffff1673ffffffffffffffffffffffffffffffffffffffff168152602001908152602001600020600080820160006101000a81549060ff02191690556000820160016101000a81549060ff02191690556000820160026101000a81549060ff021916905550508080612b5690614005565b915050612696565b506000600460006001600060028110612ba0577f4e487b7100000000000000000000000000000000000000000000000000000000600052603260045260246000fd5b0160009054906101000a900473ffffffffffffffffffffffffffffffffffffffff1673ffffffffffffffffffffffffffffffffffffffff1673ffffffffffffffffffffffffffffffffffffffff1681526020019081526020016000208190555060006004600060018060028110612c40577f4e487b7100000000000000000000000000000000000000000000000000000000600052603260045260246000fd5b0160009054906101000a900473ffffffffffffffffffffffffffffffffffffffff1673ffffffffffffffffffffffffffffffffffffffff1673ffffffffffffffffffffffffffffffffffffffff1681526020019081526020016000208190555060006001600060028110612cdd577f4e487b7100000000000000000000000000000000000000000000000000000000600052603260045260246000fd5b0160006101000a81548173ffffffffffffffffffffffffffffffffffffffff021916908373ffffffffffffffffffffffffffffffffffffffff160217905550600060018060028110612d58577f4e487b7100000000000000000000000000000000000000000000000000000000600052603260045260246000fd5b0160006101000a81548173ffffffffffffffffffffffffffffffffffffffff021916908373ffffffffffffffffffffffffffffffffffffffff1602179055506000600360006101000a81548173ffffffffffffffffffffffffffffffffffffffff021916908373ffffffffffffffffffffffffffffffffffffffff1602179055507f80f860092ed8101278311dd6b10dda4920a40ea5dfcbacfe724e2accfaf63efc60405160405180910390a1565b60008151905060006a636f6e736f6c652e6c6f679050602083016000808483855afa5050505050565b6040518060600160405280600060ff168152602001600060ff1681526020016000151581525090565b6040518060a00160405280600060ff168152602001600060ff168152602001600060ff168152602001600060ff1681526020016000151581525090565b6040518060400160405280600290602082028036833780820191505090505090565b6000612ecb612ec684613cbf565b613c9a565b90508082856040860282011115612ee157600080fd5b60005b85811015612f115781612ef7888261301d565b845260208401935060408301925050600181019050612ee4565b5050509392505050565b6000612f2e612f2984613ce5565b613c9a565b90508082856020860282011115612f4457600080fd5b60005b85811015612f745781612f5a8882613080565b845260208401935060208301925050600181019050612f47565b5050509392505050565b6000612f91612f8c84613d0b565b613c9a565b90508082856020860282011115612fa757600080fd5b60005b85811015612fd75781612fbd8882613080565b845260208401935060208301925050600181019050612faa565b5050509392505050565b600081359050612ff08161424f565b92915050565b600082601f83011261300757600080fd5b6002613014848285612eb8565b91505092915050565b600082601f83011261302e57600080fd5b600261303b848285612f1b565b91505092915050565b600082601f83011261305557600080fd5b6008613062848285612f7e565b91505092915050565b60008151905061307a81614266565b92915050565b60008135905061308f8161427d565b92915050565b6000815190506130a48161427d565b92915050565b6000813590506130b981614294565b92915050565b6000602082840312156130d157600080fd5b60006130df84828501612fe1565b91505092915050565b60008060008061020085870312156130ff57600080fd5b600061310d8782880161301d565b945050604061311e87828801612ff6565b93505060c061312f8782880161301d565b92505061010061314187828801613044565b91505092959194509250565b60006020828403121561315f57600080fd5b600061316d8482850161306b565b91505092915050565b60006020828403121561318857600080fd5b600061319684828501613080565b91505092915050565b6000602082840312156131b157600080fd5b60006131bf84828501613095565b91505092915050565b600080604083850312156131db57600080fd5b60006131e985828601613080565b92505060206131fa85828601612fe1565b9150509250929050565b600080600080600060a0868803121561321c57600080fd5b600061322a88828901613080565b955050602061323b888289016130aa565b945050604061324c888289016130aa565b935050606061325d888289016130aa565b925050608061326e888289016130aa565b9150509295509295909350565b6000806000806080858703121561329157600080fd5b600061329f878288016130aa565b94505060206132b0878288016130aa565b93505060406132c1878288016130aa565b92505060606132d2878288016130aa565b91505092959194509250565b60006132ea8383613356565b60208301905092915050565b600061330283836134de565b60408301905092915050565b600061331a83836137d6565b60a08301905092915050565b6000613332838361383e565b60608301905092915050565b600061334a8383613880565b60208301905092915050565b61335f81613edf565b82525050565b61336e81613edf565b82525050565b61337d81613d83565b6133878184613e36565b925061339282613d31565b8060005b838110156133c35781516133aa87826132de565b96506133b583613ddb565b925050600181019050613396565b505050505050565b6133d481613d8e565b6133de8184613e41565b92506133e982613d3b565b8060005b8381101561341a57815161340187826132f6565b965061340c83613de8565b9250506001810190506133ed565b505050505050565b600061342d82613d99565b6134378185613e4c565b935061344283613d45565b8060005b8381101561347357815161345a888261330e565b975061346583613df5565b925050600181019050613446565b5085935050505092915050565b600061348b82613da4565b6134958185613e5d565b93506134a083613d55565b8060005b838110156134d15781516134b88882613326565b97506134c383613e02565b9250506001810190506134a4565b5085935050505092915050565b6134e781613daf565b6134f18184613e6e565b92506134fc82613d65565b8060005b8381101561352d578151613514878261333e565b965061351f83613e0f565b925050600181019050613500565b505050505050565b61353e81613daf565b6135488184613e79565b925061355382613d65565b8060005b8381101561358457815161356b878261333e565b965061357683613e0f565b925050600181019050613557565b505050505050565b61359581613dba565b61359f8184613e84565b92506135aa82613d6f565b8060005b838110156135db5781516135c2878261333e565b96506135cd83613e1c565b9250506001810190506135ae565b505050505050565b6135ec81613dc5565b6135f68184613e8f565b925061360182613d79565b8060005b83811015613632578151613619878261333e565b965061362483613e29565b925050600181019050613605565b505050505050565b61364381613ef1565b82525050565b61365281613ef1565b82525050565b61366181613f47565b82525050565b61367081613f6b565b82525050565b61367f81613f8f565b82525050565b600061369082613dd0565b61369a8185613e9a565b93506136aa818560208601613fa1565b6136b3816140bc565b840191505092915050565b60006136cb602683613e9a565b91506136d6826140cd565b604082019050919050565b60006136ee601283613e9a565b91506136f98261411c565b602082019050919050565b6000613711600b83613e9a565b915061371c82614145565b602082019050919050565b6000613734602083613e9a565b915061373f8261416e565b602082019050919050565b6000613757601283613e9a565b915061376282614197565b602082019050919050565b600061377a600d83613e9a565b9150613785826141c0565b602082019050919050565b600061379d600c83613e9a565b91506137a8826141e9565b602082019050919050565b60006137c0601283613e9a565b91506137cb82614212565b602082019050919050565b60a0820160008201516137ec600085018261389e565b5060208201516137ff602085018261389e565b506040820151613812604085018261389e565b506060820151613825606085018261389e565b506080820151613838608085018261363a565b50505050565b606082016000820151613854600085018261389e565b506020820151613867602085018261389e565b50604082015161387a604085018261363a565b50505050565b61388981613f30565b82525050565b61389881613f30565b82525050565b6138a781613f3a565b82525050565b6138b681613f3a565b82525050565b60006020820190506138d16000830184613365565b92915050565b60006040820190506138ec6000830184613374565b92915050565b6000602082019050818103600083015261390c8184613422565b905092915050565b6000602082019050818103600083015261392e8184613480565b905092915050565b60006102008201905061394c6000830187613535565b61395960408301866133cb565b61396660c0830185613535565b6139746101008301846135e3565b95945050505050565b600060a082019050613992600083018461358c565b92915050565b60006020820190506139ad6000830184613658565b92915050565b60006020820190506139c86000830184613667565b92915050565b60006020820190506139e36000830184613676565b92915050565b60006020820190508181036000830152613a038184613685565b905092915050565b60006020820190508181036000830152613a24816136be565b9050919050565b60006020820190508181036000830152613a44816136e1565b9050919050565b60006020820190508181036000830152613a6481613704565b9050919050565b60006020820190508181036000830152613a8481613727565b9050919050565b60006020820190508181036000830152613aa48161374a565b9050919050565b60006020820190508181036000830152613ac48161376d565b9050919050565b60006020820190508181036000830152613ae481613790565b9050919050565b60006020820190508181036000830152613b04816137b3565b9050919050565b6000602082019050613b20600083018461388f565b92915050565b6000602082019050613b3b60008301846138ad565b92915050565b6000606082019050613b5660008301866138ad565b613b6360208301856138ad565b613b706040830184613649565b949350505050565b6000606082019050613b8d60008301866138ad565b613b9a60208301856138ad565b613ba760408301846138ad565b949350505050565b6000608082019050613bc460008301876138ad565b613bd160208301866138ad565b613bde60408301856138ad565b613beb60608301846138ad565b95945050505050565b600060a082019050613c0960008301886138ad565b613c1660208301876138ad565b613c2360408301866138ad565b613c3060608301856138ad565b613c3d6080830184613649565b9695505050505050565b600060a082019050613c5c60008301886138ad565b613c6960208301876138ad565b613c7660408301866138ad565b613c8360608301856138ad565b613c9060808301846138ad565b9695505050505050565b6000613ca4613cb5565b9050613cb08282613fd4565b919050565b6000604051905090565b600067ffffffffffffffff821115613cda57613cd961408d565b5b602082029050919050565b600067ffffffffffffffff821115613d0057613cff61408d565b5b602082029050919050565b600067ffffffffffffffff821115613d2657613d2561408d565b5b602082029050919050565b6000819050919050565b6000819050919050565b6000819050602082019050919050565b6000819050602082019050919050565b6000819050919050565b6000819050919050565b6000819050919050565b600060029050919050565b600060029050919050565b600081519050919050565b600081519050919050565b600060029050919050565b600060059050919050565b600060089050919050565b600081519050919050565b6000602082019050919050565b6000602082019050919050565b6000602082019050919050565b6000602082019050919050565b6000602082019050919050565b6000602082019050919050565b6000602082019050919050565b600081905092915050565b600081905092915050565b600082825260208201905092915050565b600082825260208201905092915050565b600081905092915050565b600081905092915050565b600081905092915050565b600081905092915050565b600082825260208201905092915050565b6000613eb682613f3a565b9150613ec183613f3a565b925082821015613ed457613ed361402f565b5b828203905092915050565b6000613eea82613f10565b9050919050565b60008115159050919050565b6000819050613f0b8261423b565b919050565b600073ffffffffffffffffffffffffffffffffffffffff82169050919050565b6000819050919050565b600060ff82169050919050565b6000613f5282613f59565b9050919050565b6000613f6482613f10565b9050919050565b6000613f7682613f7d565b9050919050565b6000613f8882613f10565b9050919050565b6000613f9a82613efd565b9050919050565b60005b83811015613fbf578082015181840152602081019050613fa4565b83811115613fce576000848401525b50505050565b613fdd826140bc565b810181811067ffffffffffffffff82111715613ffc57613ffb61408d565b5b80604052505050565b600061401082613f3a565b915060ff8214156140245761402361402f565b5b600182019050919050565b7f4e487b7100000000000000000000000000000000000000000000000000000000600052601160045260246000fd5b7f4e487b7100000000000000000000000000000000000000000000000000000000600052602160045260246000fd5b7f4e487b7100000000000000000000000000000000000000000000000000000000600052604160045260246000fd5b6000601f19601f8301169050919050565b7f4f776e61626c653a206e6577206f776e657220697320746865207a65726f206160008201527f6464726573730000000000000000000000000000000000000000000000000000602082015250565b7f616c7265616479207375626d6974746564210000000000000000000000000000600082015250565b7f6e6f7420616c6c6f776564000000000000000000000000000000000000000000600082015250565b7f4f776e61626c653a2063616c6c6572206973206e6f7420746865206f776e6572600082015250565b7f616c726561647920726567697374657264210000000000000000000000000000600082015250565b7f6e6f7420616c6c6f776564212000000000000000000000000000000000000000600082015250565b7f696e76616c696420686173680000000000000000000000000000000000000000600082015250565b7f766572696669636174696f6e206572726f720000000000000000000000000000600082015250565b6004811061424c5761424b61405e565b5b50565b61425881613edf565b811461426357600080fd5b50565b61426f81613ef1565b811461427a57600080fd5b50565b61428681613f30565b811461429157600080fd5b50565b61429d81613f3a565b81146142a857600080fd5b5056fea2646970667358221220a9cf0653ec1b2e9f27cf9450b793468689bfd6917831ac8c150e1aa9784236ed64736f6c63430008040033",
  "linkReferences": {},
  "deployedLinkReferences": {}
}