{
  "_format": "hh-sol-artifact-1",
  "contractName": "HitAndBlow",
  "sourceName": "contracts/HitAndBlow.sol",
  "abi": [
    {
      "inputs": [
        {
          "internalType": "contract IHasher",
          "name": "_hasher",
          "type": "address"
        }
      ],
      "stateMutability": "nonpayable",
      "type": "constructor"
    },
    {
      "anonymous": false,
      "inputs": [
        {
          "indexed": true,
          "internalType": "address",
          "name": "player",
          "type": "address"
        },
        {
          "indexed": false,
          "internalType": "uint256",
          "name": "solutionHash",
          "type": "uint256"
        }
      ],
      "name": "CommitSolutionHash",
      "type": "event"
    },
    {
      "anonymous": false,
      "inputs": [],
      "name": "GameFinish",
      "type": "event"
    },
    {
      "anonymous": false,
      "inputs": [],
      "name": "Initialize",
      "type": "event"
    },
    {
      "anonymous": false,
      "inputs": [
        {
          "indexed": true,
          "internalType": "address",
          "name": "previousOwner",
          "type": "address"
        },
        {
          "indexed": true,
          "internalType": "address",
          "name": "newOwner",
          "type": "address"
        }
      ],
      "name": "OwnershipTransferred",
      "type": "event"
    },
    {
      "anonymous": false,
      "inputs": [
        {
          "indexed": true,
          "internalType": "address",
          "name": "player",
          "type": "address"
        }
      ],
      "name": "Register",
      "type": "event"
    },
    {
      "anonymous": false,
      "inputs": [
        {
          "indexed": true,
          "internalType": "address",
          "name": "player",
          "type": "address"
        },
        {
          "indexed": false,
          "internalType": "uint8",
          "name": "a",
          "type": "uint8"
        },
        {
          "indexed": false,
          "internalType": "uint8",
          "name": "b",
          "type": "uint8"
        },
        {
          "indexed": false,
          "internalType": "uint8",
          "name": "c",
          "type": "uint8"
        },
        {
          "indexed": false,
          "internalType": "uint8",
          "name": "d",
          "type": "uint8"
        }
      ],
      "name": "Reveal",
      "type": "event"
    },
    {
      "anonymous": false,
      "inputs": [
        {
          "indexed": false,
          "internalType": "uint8",
          "name": "round",
          "type": "uint8"
        }
      ],
      "name": "RoundChange",
      "type": "event"
    },
    {
      "anonymous": false,
      "inputs": [
        {
          "indexed": false,
          "internalType": "enum HitAndBlow.Stages",
          "name": "stage",
          "type": "uint8"
        }
      ],
      "name": "StageChange",
      "type": "event"
    },
    {
      "anonymous": false,
      "inputs": [
        {
          "indexed": true,
          "internalType": "address",
          "name": "player",
          "type": "address"
        },
        {
          "indexed": false,
          "internalType": "uint8",
          "name": "currentRound",
          "type": "uint8"
        },
        {
          "indexed": false,
          "internalType": "uint8",
          "name": "a",
          "type": "uint8"
        },
        {
          "indexed": false,
          "internalType": "uint8",
          "name": "b",
          "type": "uint8"
        },
        {
          "indexed": false,
          "internalType": "uint8",
          "name": "c",
          "type": "uint8"
        },
        {
          "indexed": false,
          "internalType": "uint8",
          "name": "d",
          "type": "uint8"
        }
      ],
      "name": "SubmitGuess",
      "type": "event"
    },
    {
      "anonymous": false,
      "inputs": [
        {
          "indexed": true,
          "internalType": "address",
          "name": "player",
          "type": "address"
        },
        {
          "indexed": false,
          "internalType": "uint8",
          "name": "currentRound",
          "type": "uint8"
        },
        {
          "indexed": false,
          "internalType": "uint8",
          "name": "hit",
          "type": "uint8"
        },
        {
          "indexed": false,
          "internalType": "uint8",
          "name": "blow",
          "type": "uint8"
        }
      ],
      "name": "SubmitHB",
      "type": "event"
    },
    {
      "inputs": [],
      "name": "MAX_ROUND",
      "outputs": [
        {
          "internalType": "uint8",
          "name": "",
          "type": "uint8"
        }
      ],
      "stateMutability": "view",
      "type": "function"
    },
    {
      "inputs": [
        {
          "internalType": "uint256",
          "name": "solutionHash",
          "type": "uint256"
        }
      ],
      "name": "commitSolutionHash",
      "outputs": [],
      "stateMutability": "nonpayable",
      "type": "function"
    },
    {
      "inputs": [],
      "name": "currentRound",
      "outputs": [
        {
          "internalType": "uint8",
          "name": "",
          "type": "uint8"
        }
      ],
      "stateMutability": "view",
      "type": "function"
    },
    {
      "inputs": [
        {
          "internalType": "address",
          "name": "player",
          "type": "address"
        }
      ],
      "name": "getSubmittedGuess",
      "outputs": [
        {
          "components": [
            {
              "internalType": "uint8",
              "name": "one",
              "type": "uint8"
            },
            {
              "internalType": "uint8",
              "name": "two",
              "type": "uint8"
            },
            {
              "internalType": "uint8",
              "name": "three",
              "type": "uint8"
            },
            {
              "internalType": "uint8",
              "name": "four",
              "type": "uint8"
            },
            {
              "internalType": "bool",
              "name": "submitted",
              "type": "bool"
            }
          ],
          "internalType": "struct HitAndBlow.Guess[]",
          "name": "",
          "type": "tuple[]"
        }
      ],
      "stateMutability": "view",
      "type": "function"
    },
    {
      "inputs": [
        {
          "internalType": "address",
          "name": "player",
          "type": "address"
        }
      ],
      "name": "getSubmittedHB",
      "outputs": [
        {
          "components": [
            {
              "internalType": "uint8",
              "name": "hit",
              "type": "uint8"
            },
            {
              "internalType": "uint8",
              "name": "blow",
              "type": "uint8"
            },
            {
              "internalType": "bool",
              "name": "submitted",
              "type": "bool"
            }
          ],
          "internalType": "struct HitAndBlow.HB[]",
          "name": "",
          "type": "tuple[]"
        }
      ],
      "stateMutability": "view",
      "type": "function"
    },
    {
      "inputs": [],
      "name": "getplayers",
      "outputs": [
        {
          "internalType": "address[2]",
          "name": "",
          "type": "address[2]"
        }
      ],
      "stateMutability": "view",
      "type": "function"
    },
    {
      "inputs": [],
      "name": "hasher",
      "outputs": [
        {
          "internalType": "contract IHasher",
          "name": "",
          "type": "address"
        }
      ],
      "stateMutability": "view",
      "type": "function"
    },
    {
      "inputs": [],
      "name": "initialize",
      "outputs": [],
      "stateMutability": "nonpayable",
      "type": "function"
    },
    {
      "inputs": [],
      "name": "owner",
      "outputs": [
        {
          "internalType": "address",
          "name": "",
          "type": "address"
        }
      ],
      "stateMutability": "view",
      "type": "function"
    },
    {
      "inputs": [
        {
          "internalType": "uint256",
          "name": "",
          "type": "uint256"
        }
      ],
      "name": "players",
      "outputs": [
        {
          "internalType": "address",
          "name": "",
          "type": "address"
        }
      ],
      "stateMutability": "view",
      "type": "function"
    },
    {
      "inputs": [],
      "name": "register",
      "outputs": [],
      "stateMutability": "nonpayable",
      "type": "function"
    },
    {
      "inputs": [],
      "name": "renounceOwnership",
      "outputs": [],
      "stateMutability": "nonpayable",
      "type": "function"
    },
    {
      "inputs": [
        {
          "internalType": "uint256",
          "name": "salt",
          "type": "uint256"
        },
        {
          "internalType": "uint8",
          "name": "a",
          "type": "uint8"
        },
        {
          "internalType": "uint8",
          "name": "b",
          "type": "uint8"
        },
        {
          "internalType": "uint8",
          "name": "c",
          "type": "uint8"
        },
        {
          "internalType": "uint8",
          "name": "d",
          "type": "uint8"
        }
      ],
      "name": "reveal",
      "outputs": [],
      "stateMutability": "nonpayable",
      "type": "function"
    },
    {
      "inputs": [
        {
          "internalType": "address",
          "name": "",
          "type": "address"
        }
      ],
      "name": "solutionHashes",
      "outputs": [
        {
          "internalType": "uint256",
          "name": "",
          "type": "uint256"
        }
      ],
      "stateMutability": "view",
      "type": "function"
    },
    {
      "inputs": [],
      "name": "stage",
      "outputs": [
        {
          "internalType": "enum HitAndBlow.Stages",
          "name": "",
          "type": "uint8"
        }
      ],
      "stateMutability": "view",
      "type": "function"
    },
    {
      "inputs": [
        {
          "internalType": "uint8",
          "name": "guess1",
          "type": "uint8"
        },
        {
          "internalType": "uint8",
          "name": "guess2",
          "type": "uint8"
        },
        {
          "internalType": "uint8",
          "name": "guess3",
          "type": "uint8"
        },
        {
          "internalType": "uint8",
          "name": "guess4",
          "type": "uint8"
        }
      ],
      "name": "submitGuess",
      "outputs": [],
      "stateMutability": "nonpayable",
      "type": "function"
    },
    {
      "inputs": [
        {
          "internalType": "uint256[2]",
          "name": "a",
          "type": "uint256[2]"
        },
        {
          "internalType": "uint256[2][2]",
          "name": "b",
          "type": "uint256[2][2]"
        },
        {
          "internalType": "uint256[2]",
          "name": "c",
          "type": "uint256[2]"
        },
        {
          "internalType": "uint256[8]",
          "name": "input",
          "type": "uint256[8]"
        }
      ],
      "name": "submitHbProof",
      "outputs": [],
      "stateMutability": "nonpayable",
      "type": "function"
    },
    {
      "inputs": [
        {
          "internalType": "uint256",
          "name": "",
          "type": "uint256"
        },
        {
          "internalType": "address",
          "name": "",
          "type": "address"
        }
      ],
      "name": "submittedGuess",
      "outputs": [
        {
          "internalType": "uint8",
          "name": "one",
          "type": "uint8"
        },
        {
          "internalType": "uint8",
          "name": "two",
          "type": "uint8"
        },
        {
          "internalType": "uint8",
          "name": "three",
          "type": "uint8"
        },
        {
          "internalType": "uint8",
          "name": "four",
          "type": "uint8"
        },
        {
          "internalType": "bool",
          "name": "submitted",
          "type": "bool"
        }
      ],
      "stateMutability": "view",
      "type": "function"
    },
    {
      "inputs": [
        {
          "internalType": "uint256",
          "name": "",
          "type": "uint256"
        },
        {
          "internalType": "address",
          "name": "",
          "type": "address"
        }
      ],
      "name": "submittedHB",
      "outputs": [
        {
          "internalType": "uint8",
          "name": "hit",
          "type": "uint8"
        },
        {
          "internalType": "uint8",
          "name": "blow",
          "type": "uint8"
        },
        {
          "internalType": "bool",
          "name": "submitted",
          "type": "bool"
        }
      ],
      "stateMutability": "view",
      "type": "function"
    },
    {
      "inputs": [
        {
          "internalType": "address",
          "name": "newOwner",
          "type": "address"
        }
      ],
      "name": "transferOwnership",
      "outputs": [],
      "stateMutability": "nonpayable",
      "type": "function"
    },
    {
      "inputs": [
        {
          "internalType": "uint256[2]",
          "name": "a",
          "type": "uint256[2]"
        },
        {
          "internalType": "uint256[2][2]",
          "name": "b",
          "type": "uint256[2][2]"
        },
        {
          "internalType": "uint256[2]",
          "name": "c",
          "type": "uint256[2]"
        },
        {
          "internalType": "uint256[8]",
          "name": "input",
          "type": "uint256[8]"
        }
      ],
      "name": "verifyProof",
      "outputs": [
        {
          "internalType": "bool",
          "name": "r",
          "type": "bool"
        }
      ],
      "stateMutability": "view",
      "type": "function"
    },
    {
      "inputs": [],
      "name": "winner",
      "outputs": [
        {
          "internalType": "address",
          "name": "",
          "type": "address"
        }
      ],
      "stateMutability": "view",
      "type": "function"
    }
  ],
  "bytecode": "0x60806040526001600260006101000a81548160ff021916908360ff1602179055506000600760006101000a81548160ff021916908360058111156200006d577f4e487b7100000000000000000000000000000000000000000000000000000000600052602160045260246000fd5b02179055503480156200007f57600080fd5b5060405162006226380380620062268339818101604052810190620000a5919062000307565b620000c5620000b96200015860201b60201c565b6200016060201b60201c565b620001106040518060400160405280601781526020017f4465706c6f79696e67206120486974416e64426c6f77210000000000000000008152506200022460201b620023881760201c565b80606c60006101000a81548173ffffffffffffffffffffffffffffffffffffffff021916908373ffffffffffffffffffffffffffffffffffffffff160217905550506200045d565b600033905090565b60008060009054906101000a900473ffffffffffffffffffffffffffffffffffffffff169050816000806101000a81548173ffffffffffffffffffffffffffffffffffffffff021916908373ffffffffffffffffffffffffffffffffffffffff1602179055508173ffffffffffffffffffffffffffffffffffffffff168173ffffffffffffffffffffffffffffffffffffffff167f8be0079c531659141344cd1fd0a4f28419497f9722a3daafe3b4186f6b6457e060405160405180910390a35050565b620002c4816040516024016200023b919062000374565b6040516020818303038152906040527f41304fac000000000000000000000000000000000000000000000000000000007bffffffffffffffffffffffffffffffffffffffffffffffffffffffff19166020820180517bffffffffffffffffffffffffffffffffffffffffffffffffffffffff8381831617835250505050620002c760201b60201c565b50565b60008151905060006a636f6e736f6c652e6c6f679050602083016000808483855afa5050505050565b600081519050620003018162000443565b92915050565b6000602082840312156200031a57600080fd5b60006200032a84828501620002f0565b91505092915050565b6000620003408262000398565b6200034c8185620003a3565b93506200035e818560208601620003fc565b620003698162000432565b840191505092915050565b6000602082019050818103600083015262000390818462000333565b905092915050565b600081519050919050565b600082825260208201905092915050565b6000620003c182620003dc565b9050919050565b6000620003d582620003b4565b9050919050565b600073ffffffffffffffffffffffffffffffffffffffff82169050919050565b60005b838110156200041c578082015181840152602081019050620003ff565b838111156200042c576000848401525b50505050565b6000601f19601f8301169050919050565b6200044e81620003c8565b81146200045a57600080fd5b50565b615db9806200046d6000396000f3fe608060405234801561001057600080fd5b50600436106101425760003560e01c8063c040e6b8116100b8578063dfbf53ae1161007c578063dfbf53ae14610341578063ecb3db521461035f578063ed33639f1461037d578063f2ca76881461039b578063f2fde38b146103cd578063f71d96cb146103e957610142565b8063c040e6b814610273578063c9219a7a14610291578063c997ce08146102c1578063ce9af863146102f1578063d1b8fe781461032557610142565b80638a19c8bc1161010a5780638a19c8bc146101b15780638da5cb5b146101cf57806395f2d1f4146101ed578063a695c3ae14610209578063ab56c0d514610225578063b4ac62c51461025557610142565b80631aa3a008146101475780636828348714610151578063715018a61461018157806375c8fd6c1461018b5780638129fc1c146101a7575b600080fd5b61014f610419565b005b61016b60048036038101906101669190614aae565b610846565b6040516101789190615456565b60405180910390f35b61018961085e565b005b6101a560048036038101906101a09190614ad7565b6108e6565b005b6101af610e2e565b005b6101b9610e38565b6040516101c69190615471565b60405180910390f35b6101d7610e4b565b6040516101e491906151ae565b60405180910390f35b61020760048036038101906102029190614c41565b610e74565b005b610223600480360381019061021e9190614b3c565b611209565b005b61023f600480360381019061023a9190614aae565b61143a565b60405161024c9190615206565b60405180910390f35b61025d61162b565b60405161026a9190615471565b60405180910390f35b61027b611630565b6040516102889190615279565b60405180910390f35b6102ab60048036038101906102a69190614ad7565b611643565b6040516102b89190615243565b60405180910390f35b6102db60048036038101906102d69190614aae565b611af7565b6040516102e891906151e4565b60405180910390f35b61030b60048036038101906103069190614b8e565b611d60565b60405161031c95949392919061553f565b60405180910390f35b61033f600480360381019061033a9190614bca565b611de7565b005b61034961212c565b60405161035691906151ae565b60405180910390f35b610367612152565b60405161037491906151c9565b60405180910390f35b6103856121d3565b604051610392919061525e565b60405180910390f35b6103b560048036038101906103b09190614b8e565b6121f9565b6040516103c49392919061548c565b60405180910390f35b6103e760048036038101906103e29190614aae565b61225a565b005b61040360048036038101906103fe9190614b3c565b612352565b60405161041091906151ae565b60405180910390f35b6000806005811115610454577f4e487b7100000000000000000000000000000000000000000000000000000000600052602160045260246000fd5b600760009054906101000a900460ff16600581111561049c577f4e487b7100000000000000000000000000000000000000000000000000000000600052602160045260246000fd5b146104dc576040517f08c379a00000000000000000000000000000000000000000000000000000000081526004016104d390615396565b60405180910390fd5b600073ffffffffffffffffffffffffffffffffffffffff16600360006002811061052f577f4e487b7100000000000000000000000000000000000000000000000000000000600052603260045260246000fd5b0160009054906101000a900473ffffffffffffffffffffffffffffffffffffffff1673ffffffffffffffffffffffffffffffffffffffff161415610630573360036000600281106105a9577f4e487b7100000000000000000000000000000000000000000000000000000000600052603260045260246000fd5b0160006101000a81548173ffffffffffffffffffffffffffffffffffffffff021916908373ffffffffffffffffffffffffffffffffffffffff1602179055503373ffffffffffffffffffffffffffffffffffffffff167feeda149c76076b34d4b9d8896c2f7efc0d33d1c7b53ea3c5db490d64613f603a60405160405180910390a2610843565b3373ffffffffffffffffffffffffffffffffffffffff166003600060028110610682577f4e487b7100000000000000000000000000000000000000000000000000000000600052603260045260246000fd5b0160009054906101000a900473ffffffffffffffffffffffffffffffffffffffff1673ffffffffffffffffffffffffffffffffffffffff1614156106fb576040517f08c379a00000000000000000000000000000000000000000000000000000000081526004016106f290615376565b60405180910390fd5b336003600160028110610737577f4e487b7100000000000000000000000000000000000000000000000000000000600052603260045260246000fd5b0160006101000a81548173ffffffffffffffffffffffffffffffffffffffff021916908373ffffffffffffffffffffffffffffffffffffffff1602179055506001600760006101000a81548160ff021916908360058111156107c2577f4e487b7100000000000000000000000000000000000000000000000000000000600052602160045260246000fd5b02179055503373ffffffffffffffffffffffffffffffffffffffff167feeda149c76076b34d4b9d8896c2f7efc0d33d1c7b53ea3c5db490d64613f603a60405160405180910390a27fc2c79e90970e807cdffdfc0896c48a489b0f6882b90beb4c9d6386ddc0fc95cf600160405161083a9190615279565b60405180910390a15b50565b60066020528060005260406000206000915090505481565b610866612421565b73ffffffffffffffffffffffffffffffffffffffff16610884610e4b565b73ffffffffffffffffffffffffffffffffffffffff16146108da576040517f08c379a00000000000000000000000000000000000000000000000000000000081526004016108d190615356565b60405180910390fd5b6108e46000612429565b565b6002806005811115610921577f4e487b7100000000000000000000000000000000000000000000000000000000600052602160045260246000fd5b600760009054906101000a900460ff166005811115610969577f4e487b7100000000000000000000000000000000000000000000000000000000600052602160045260246000fd5b146109a9576040517f08c379a00000000000000000000000000000000000000000000000000000000081526004016109a090615396565b60405180910390fd5b6109b585858585611643565b6109f4576040517f08c379a00000000000000000000000000000000000000000000000000000000081526004016109eb90615436565b60405180910390fd5b600082600560088110610a30577f4e487b7100000000000000000000000000000000000000000000000000000000600052603260045260246000fd5b60200201519050600083600660088110610a73577f4e487b7100000000000000000000000000000000000000000000000000000000600052603260045260246000fd5b60200201519050600060405180606001604052808460ff1681526020018360ff16815260200160011515815250905080603a6001600260009054906101000a900460ff16610ac19190615848565b60ff1660328110610afb577f4e487b7100000000000000000000000000000000000000000000000000000000600052603260045260246000fd5b0160003373ffffffffffffffffffffffffffffffffffffffff1673ffffffffffffffffffffffffffffffffffffffff16815260200190815260200160002060008201518160000160006101000a81548160ff021916908360ff16021790555060208201518160000160016101000a81548160ff021916908360ff16021790555060408201518160000160026101000a81548160ff02191690831515021790555090505060048360ff161415610c8357610bb26124ed565b600560006101000a81548173ffffffffffffffffffffffffffffffffffffffff021916908373ffffffffffffffffffffffffffffffffffffffff1602179055506003600760006101000a81548160ff02191690836005811115610c3e577f4e487b7100000000000000000000000000000000000000000000000000000000600052602160045260246000fd5b02179055507fc2c79e90970e807cdffdfc0896c48a489b0f6882b90beb4c9d6386ddc0fc95cf6003604051610c739190615279565b60405180910390a1505050610e27565b6000610c8d6124ed565b905060011515603a6001600260009054906101000a900460ff16610cb19190615848565b60ff1660328110610ceb577f4e487b7100000000000000000000000000000000000000000000000000000000600052603260045260246000fd5b0160008373ffffffffffffffffffffffffffffffffffffffff1673ffffffffffffffffffffffffffffffffffffffff16815260200190815260200160002060000160029054906101000a900460ff1615151415610dc1576002600081819054906101000a900460ff1680929190610d61906159c7565b91906101000a81548160ff021916908360ff160217905550507f371fb02a4cc0a41fcae1f4fd11318eb53a56d544d9cdb81f8221b0b012962bd8600260009054906101000a900460ff16604051610db89190615471565b60405180910390a15b3373ffffffffffffffffffffffffffffffffffffffff167f0ddf3cb018d1be71b7b8753c6aca06c057a0389952bdde8c9cf074581ef78152600260009054906101000a900460ff168686604051610e1a939291906154c3565b60405180910390a2505050505b5050505050565b610e36612646565b565b600260009054906101000a900460ff1681565b60008060009054906101000a900473ffffffffffffffffffffffffffffffffffffffff16905090565b6002806005811115610eaf577f4e487b7100000000000000000000000000000000000000000000000000000000600052602160045260246000fd5b600760009054906101000a900460ff166005811115610ef7577f4e487b7100000000000000000000000000000000000000000000000000000000600052602160045260246000fd5b14610f37576040517f08c379a0000000000000000000000000000000000000000000000000000000008152600401610f2e90615396565b60405180910390fd5b6000151560086001600260009054906101000a900460ff16610f599190615848565b60ff1660328110610f93577f4e487b7100000000000000000000000000000000000000000000000000000000600052603260045260246000fd5b0160003373ffffffffffffffffffffffffffffffffffffffff1673ffffffffffffffffffffffffffffffffffffffff16815260200190815260200160002060000160049054906101000a900460ff16151514611024576040517f08c379a000000000000000000000000000000000000000000000000000000000815260040161101b906152d6565b60405180910390fd5b60006040518060a001604052808760ff1681526020018660ff1681526020018560ff1681526020018460ff1681526020016001151581525090508060086001600260009054906101000a900460ff1661107d9190615848565b60ff16603281106110b7577f4e487b7100000000000000000000000000000000000000000000000000000000600052603260045260246000fd5b0160003373ffffffffffffffffffffffffffffffffffffffff1673ffffffffffffffffffffffffffffffffffffffff16815260200190815260200160002060008201518160000160006101000a81548160ff021916908360ff16021790555060208201518160000160016101000a81548160ff021916908360ff16021790555060408201518160000160026101000a81548160ff021916908360ff16021790555060608201518160000160036101000a81548160ff021916908360ff16021790555060808201518160000160046101000a81548160ff0219169083151502179055509050503373ffffffffffffffffffffffffffffffffffffffff167f03e5493440227aef0d1ce2c10c361defa2acc053c5881daa8b734853e216efd1600260009054906101000a900460ff16888888886040516111f9959493929190615592565b60405180910390a2505050505050565b6001806005811115611244577f4e487b7100000000000000000000000000000000000000000000000000000000600052602160045260246000fd5b600760009054906101000a900460ff16600581111561128c577f4e487b7100000000000000000000000000000000000000000000000000000000600052602160045260246000fd5b146112cc576040517f08c379a00000000000000000000000000000000000000000000000000000000081526004016112c390615396565b60405180910390fd5b81600660003373ffffffffffffffffffffffffffffffffffffffff1673ffffffffffffffffffffffffffffffffffffffff168152602001908152602001600020819055503373ffffffffffffffffffffffffffffffffffffffff167fc83617f8aff831bee99216a4007ee8436f8a36cc0b5bab8c816f52d0aef5e438836040516113569190615456565b60405180910390a260006006600061136c6124ed565b73ffffffffffffffffffffffffffffffffffffffff1673ffffffffffffffffffffffffffffffffffffffff1681526020019081526020016000205414611436576002600760006101000a81548160ff021916908360058111156113f8577f4e487b7100000000000000000000000000000000000000000000000000000000600052602160045260246000fd5b02179055507fc2c79e90970e807cdffdfc0896c48a489b0f6882b90beb4c9d6386ddc0fc95cf600260405161142d9190615279565b60405180910390a15b5050565b60606000600260009054906101000a900460ff1660ff1667ffffffffffffffff811115611490577f4e487b7100000000000000000000000000000000000000000000000000000000600052604160045260246000fd5b6040519080825280602002602001820160405280156114c957816020015b6114b66146f2565b8152602001906001900390816114ae5790505b50905060005b600260009054906101000a900460ff1660ff168160ff16101561162157603a8160ff1660328110611529577f4e487b7100000000000000000000000000000000000000000000000000000000600052603260045260246000fd5b0160008573ffffffffffffffffffffffffffffffffffffffff1673ffffffffffffffffffffffffffffffffffffffff1681526020019081526020016000206040518060600160405290816000820160009054906101000a900460ff1660ff1660ff1681526020016000820160019054906101000a900460ff1660ff1660ff1681526020016000820160029054906101000a900460ff161515151581525050828260ff1681518110611603577f4e487b7100000000000000000000000000000000000000000000000000000000600052603260045260246000fd5b60200260200101819052508080611619906159c7565b9150506114cf565b5080915050919050565b603281565b600760009054906101000a900460ff1681565b600061164d61471b565b604051806040016040528087600060028110611692577f4e487b7100000000000000000000000000000000000000000000000000000000600052603260045260246000fd5b60200201518152602001876001600281106116d6577f4e487b7100000000000000000000000000000000000000000000000000000000600052603260045260246000fd5b602002015181525081600001819052506040518060400160405280604051806040016040528088600060028110611736577f4e487b7100000000000000000000000000000000000000000000000000000000600052603260045260246000fd5b6020020151600060028110611774577f4e487b7100000000000000000000000000000000000000000000000000000000600052603260045260246000fd5b60200201518152602001886000600281106117b8577f4e487b7100000000000000000000000000000000000000000000000000000000600052603260045260246000fd5b60200201516001600281106117f6577f4e487b7100000000000000000000000000000000000000000000000000000000600052603260045260246000fd5b60200201518152508152602001604051806040016040528088600160028110611848577f4e487b7100000000000000000000000000000000000000000000000000000000600052603260045260246000fd5b6020020151600060028110611886577f4e487b7100000000000000000000000000000000000000000000000000000000600052603260045260246000fd5b60200201518152602001886001600281106118ca577f4e487b7100000000000000000000000000000000000000000000000000000000600052603260045260246000fd5b6020020151600160028110611908577f4e487b7100000000000000000000000000000000000000000000000000000000600052603260045260246000fd5b60200201518152508152508160200181905250604051806040016040528085600060028110611960577f4e487b7100000000000000000000000000000000000000000000000000000000600052603260045260246000fd5b60200201518152602001856001600281106119a4577f4e487b7100000000000000000000000000000000000000000000000000000000600052603260045260246000fd5b602002015181525081604001819052506000600867ffffffffffffffff8111156119f7577f4e487b7100000000000000000000000000000000000000000000000000000000600052604160045260246000fd5b604051908082528060200260200182016040528015611a255781602001602082028036833780820191505090505b50905060005b6008811015611aca57848160088110611a6d577f4e487b7100000000000000000000000000000000000000000000000000000000600052603260045260246000fd5b6020020151828281518110611aab577f4e487b7100000000000000000000000000000000000000000000000000000000600052603260045260246000fd5b6020026020010181815250508080611ac29061597e565b915050611a2b565b506000611ad78284612e2b565b1415611ae857600192505050611aef565b6000925050505b949350505050565b6060611b376040518060400160405280601281526020017f6765745375626d69747465644775657373210000000000000000000000000000815250612388565b6000600260009054906101000a900460ff1660ff1667ffffffffffffffff811115611b8b577f4e487b7100000000000000000000000000000000000000000000000000000000600052604160045260246000fd5b604051908082528060200260200182016040528015611bc457816020015b611bb161474e565b815260200190600190039081611ba95790505b50905060005b600260009054906101000a900460ff1660ff168160ff161015611d565760088160ff1660328110611c24577f4e487b7100000000000000000000000000000000000000000000000000000000600052603260045260246000fd5b0160008573ffffffffffffffffffffffffffffffffffffffff1673ffffffffffffffffffffffffffffffffffffffff1681526020019081526020016000206040518060a00160405290816000820160009054906101000a900460ff1660ff1660ff1681526020016000820160019054906101000a900460ff1660ff1660ff1681526020016000820160029054906101000a900460ff1660ff1660ff1681526020016000820160039054906101000a900460ff1660ff1660ff1681526020016000820160049054906101000a900460ff161515151581525050828260ff1681518110611d38577f4e487b7100000000000000000000000000000000000000000000000000000000600052603260045260246000fd5b60200260200101819052508080611d4e906159c7565b915050611bca565b5080915050919050565b60088260328110611d7057600080fd5b01602052806000526040600020600091509150508060000160009054906101000a900460ff16908060000160019054906101000a900460ff16908060000160029054906101000a900460ff16908060000160039054906101000a900460ff16908060000160049054906101000a900460ff16905085565b6003806005811115611e22577f4e487b7100000000000000000000000000000000000000000000000000000000600052602160045260246000fd5b600760009054906101000a900460ff166005811115611e6a577f4e487b7100000000000000000000000000000000000000000000000000000000600052602160045260246000fd5b14611eaa576040517f08c379a0000000000000000000000000000000000000000000000000000000008152600401611ea190615396565b60405180910390fd5b600660003373ffffffffffffffffffffffffffffffffffffffff1673ffffffffffffffffffffffffffffffffffffffff16815260200190815260200160002054606c60009054906101000a900473ffffffffffffffffffffffffffffffffffffffff1673ffffffffffffffffffffffffffffffffffffffff16634937a2586040518060a001604052808a81526020018960ff1681526020018860ff1681526020018760ff1681526020018660ff168152506040518263ffffffff1660e01b8152600401611f779190615228565b60206040518083038186803b158015611f8f57600080fd5b505afa158015611fa3573d6000803e3d6000fd5b505050506040513d601f19601f82011682018060405250810190611fc79190614b65565b14612007576040517f08c379a0000000000000000000000000000000000000000000000000000000008152600401611ffe906153d6565b60405180910390fd5b3373ffffffffffffffffffffffffffffffffffffffff167f5e7fdf2512ab9b99d72e078bab23ce002274ef0f42e29746a2012e8e2bdf00208686868660405161205394939291906154fa565b60405180910390a2600560009054906101000a900473ffffffffffffffffffffffffffffffffffffffff1673ffffffffffffffffffffffffffffffffffffffff163373ffffffffffffffffffffffffffffffffffffffff161415612124576120b9612646565b6120f76040518060400160405280600a81526020017f47616d6546696e69736800000000000000000000000000000000000000000000815250612388565b7f483044deeeee1932779c69368bbe4dceaba768d41d041cce9db42ab775469f8660405160405180910390a15b505050505050565b600560009054906101000a900473ffffffffffffffffffffffffffffffffffffffff1681565b61215a61478b565b60036002806020026040519081016040528092919082600280156121c9576020028201915b8160009054906101000a900473ffffffffffffffffffffffffffffffffffffffff1673ffffffffffffffffffffffffffffffffffffffff168152602001906001019080831161217f575b5050505050905090565b606c60009054906101000a900473ffffffffffffffffffffffffffffffffffffffff1681565b603a826032811061220957600080fd5b01602052806000526040600020600091509150508060000160009054906101000a900460ff16908060000160019054906101000a900460ff16908060000160029054906101000a900460ff16905083565b612262612421565b73ffffffffffffffffffffffffffffffffffffffff16612280610e4b565b73ffffffffffffffffffffffffffffffffffffffff16146122d6576040517f08c379a00000000000000000000000000000000000000000000000000000000081526004016122cd90615356565b60405180910390fd5b600073ffffffffffffffffffffffffffffffffffffffff168173ffffffffffffffffffffffffffffffffffffffff161415612346576040517f08c379a000000000000000000000000000000000000000000000000000000000815260040161233d906152b6565b60405180910390fd5b61234f81612429565b50565b6003816002811061236257600080fd5b016000915054906101000a900473ffffffffffffffffffffffffffffffffffffffff1681565b61241e8160405160240161239c9190615294565b6040516020818303038152906040527f41304fac000000000000000000000000000000000000000000000000000000007bffffffffffffffffffffffffffffffffffffffffffffffffffffffff19166020820180517bffffffffffffffffffffffffffffffffffffffffffffffffffffffff83818316178352505050506130b6565b50565b600033905090565b60008060009054906101000a900473ffffffffffffffffffffffffffffffffffffffff169050816000806101000a81548173ffffffffffffffffffffffffffffffffffffffff021916908373ffffffffffffffffffffffffffffffffffffffff1602179055508173ffffffffffffffffffffffffffffffffffffffff168173ffffffffffffffffffffffffffffffffffffffff167f8be0079c531659141344cd1fd0a4f28419497f9722a3daafe3b4186f6b6457e060405160405180910390a35050565b60003373ffffffffffffffffffffffffffffffffffffffff166003600060028110612541577f4e487b7100000000000000000000000000000000000000000000000000000000600052603260045260246000fd5b0160009054906101000a900473ffffffffffffffffffffffffffffffffffffffff1673ffffffffffffffffffffffffffffffffffffffff1614156125e35760036001600281106125ba577f4e487b7100000000000000000000000000000000000000000000000000000000600052603260045260246000fd5b0160009054906101000a900473ffffffffffffffffffffffffffffffffffffffff169050612643565b600360006002811061261e577f4e487b7100000000000000000000000000000000000000000000000000000000600052603260045260246000fd5b0160009054906101000a900473ffffffffffffffffffffffffffffffffffffffff1690505b90565b6000600760006101000a81548160ff02191690836005811115612692577f4e487b7100000000000000000000000000000000000000000000000000000000600052602160045260246000fd5b02179055506001600260006101000a81548160ff021916908360ff16021790555060005b603260ff168160ff161015612b805760088160ff1660328110612702577f4e487b7100000000000000000000000000000000000000000000000000000000600052603260045260246000fd5b0160006003600060028110612740577f4e487b7100000000000000000000000000000000000000000000000000000000600052603260045260246000fd5b0160009054906101000a900473ffffffffffffffffffffffffffffffffffffffff1673ffffffffffffffffffffffffffffffffffffffff1673ffffffffffffffffffffffffffffffffffffffff168152602001908152602001600020600080820160006101000a81549060ff02191690556000820160016101000a81549060ff02191690556000820160026101000a81549060ff02191690556000820160036101000a81549060ff02191690556000820160046101000a81549060ff0219169055505060088160ff1660328110612840577f4e487b7100000000000000000000000000000000000000000000000000000000600052603260045260246000fd5b016000600360016002811061287e577f4e487b7100000000000000000000000000000000000000000000000000000000600052603260045260246000fd5b0160009054906101000a900473ffffffffffffffffffffffffffffffffffffffff1673ffffffffffffffffffffffffffffffffffffffff1673ffffffffffffffffffffffffffffffffffffffff168152602001908152602001600020600080820160006101000a81549060ff02191690556000820160016101000a81549060ff02191690556000820160026101000a81549060ff02191690556000820160036101000a81549060ff02191690556000820160046101000a81549060ff02191690555050603a8160ff166032811061297e577f4e487b7100000000000000000000000000000000000000000000000000000000600052603260045260246000fd5b01600060036000600281106129bc577f4e487b7100000000000000000000000000000000000000000000000000000000600052603260045260246000fd5b0160009054906101000a900473ffffffffffffffffffffffffffffffffffffffff1673ffffffffffffffffffffffffffffffffffffffff1673ffffffffffffffffffffffffffffffffffffffff168152602001908152602001600020600080820160006101000a81549060ff02191690556000820160016101000a81549060ff02191690556000820160026101000a81549060ff02191690555050603a8160ff1660328110612a94577f4e487b7100000000000000000000000000000000000000000000000000000000600052603260045260246000fd5b0160006003600160028110612ad2577f4e487b7100000000000000000000000000000000000000000000000000000000600052603260045260246000fd5b0160009054906101000a900473ffffffffffffffffffffffffffffffffffffffff1673ffffffffffffffffffffffffffffffffffffffff1673ffffffffffffffffffffffffffffffffffffffff168152602001908152602001600020600080820160006101000a81549060ff02191690556000820160016101000a81549060ff02191690556000820160026101000a81549060ff021916905550508080612b78906159c7565b9150506126b6565b506000600660006003600060028110612bc2577f4e487b7100000000000000000000000000000000000000000000000000000000600052603260045260246000fd5b0160009054906101000a900473ffffffffffffffffffffffffffffffffffffffff1673ffffffffffffffffffffffffffffffffffffffff1673ffffffffffffffffffffffffffffffffffffffff168152602001908152602001600020819055506000600660006003600160028110612c63577f4e487b7100000000000000000000000000000000000000000000000000000000600052603260045260246000fd5b0160009054906101000a900473ffffffffffffffffffffffffffffffffffffffff1673ffffffffffffffffffffffffffffffffffffffff1673ffffffffffffffffffffffffffffffffffffffff1681526020019081526020016000208190555060006003600060028110612d00577f4e487b7100000000000000000000000000000000000000000000000000000000600052603260045260246000fd5b0160006101000a81548173ffffffffffffffffffffffffffffffffffffffff021916908373ffffffffffffffffffffffffffffffffffffffff16021790555060006003600160028110612d7c577f4e487b7100000000000000000000000000000000000000000000000000000000600052603260045260246000fd5b0160006101000a81548173ffffffffffffffffffffffffffffffffffffffff021916908373ffffffffffffffffffffffffffffffffffffffff1602179055506000600560006101000a81548173ffffffffffffffffffffffffffffffffffffffff021916908373ffffffffffffffffffffffffffffffffffffffff1602179055507f80f860092ed8101278311dd6b10dda4920a40ea5dfcbacfe724e2accfaf63efc60405160405180910390a1565b6000807f30644e72e131a029b85045b68181585d2833e84879b9709143e1f593f000000190506000612e5b6130df565b905080608001515160018651612e719190615764565b14612eb1576040517f08c379a0000000000000000000000000000000000000000000000000000000008152600401612ea8906152f6565b60405180910390fd5b60006040518060400160405280600081526020016000815250905060005b86518110156130125783878281518110612f12577f4e487b7100000000000000000000000000000000000000000000000000000000600052603260045260246000fd5b602002602001015110612f5a576040517f08c379a0000000000000000000000000000000000000000000000000000000008152600401612f5190615336565b60405180910390fd5b612ffd82612ff88560800151600185612f739190615764565b81518110612faa577f4e487b7100000000000000000000000000000000000000000000000000000000600052603260045260246000fd5b60200260200101518a8581518110612feb577f4e487b7100000000000000000000000000000000000000000000000000000000600052603260045260246000fd5b60200260200101516139a7565b613af6565b9150808061300a9061597e565b915050612ecf565b50613062818360800151600081518110613055577f4e487b7100000000000000000000000000000000000000000000000000000000600052603260045260246000fd5b6020026020010151613af6565b90506130986130748660000151613c91565b8660200151846000015185602001518587604001518b604001518960600151613d36565b6130a857600193505050506130b0565b600093505050505b92915050565b60008151905060006a636f6e736f6c652e6c6f679050602083016000808483855afa5050505050565b6130e76147ad565b60405180604001604052807f08e140af541a31cf67bb292b1438ad8502155adf4089bd1eff48fdc2cca75f1781526020017f12ac4e6ed1d15796f2b7ff5b53e4e6ecc4923e9d0cc9fc393a7f25dfada658718152508160000181905250604051806040016040528060405180604001604052807f06bfd34a8db0ff7162bd3d7a0f9e2f692727b4aa09195b60aa9f67b32f8d52a981526020017f305fa61064c5a1981218126ccb75935f1fcfe231c041dafc724549a25eedb740815250815260200160405180604001604052807f0af2596dd29fc5ac366971aad4d886de31597058fb476747763743de152b6b7181526020017f16aab7dc636a987525c3d42aad047c75fe3dab3ce0a2d6bebfa1a7358ad621908152508152508160200181905250604051806040016040528060405180604001604052807f198e9393920d483a7260bfb731fb5d25f1aa493335a9e71297e485b7aef312c281526020017f1800deef121f1e76426a00665e5c4479674322d4f75edadd46debd5cd992f6ed815250815260200160405180604001604052807f090689d0585ff075ec9e99ad690c3395bc4b313370b38ef355acdadcd122975b81526020017f12c85ea5db8c6deb4aab71808dcb408fe3d1e7690c43d37b4ce6cc0166fa7daa8152508152508160400181905250604051806040016040528060405180604001604052807f25a858442b7c8bdcab9e10408aa8e033beccc37e0efcd76a4e7d77ea58e29c6981526020017f028752dee249ff370cd732edbc7f86667109517818730520f8b65ca5b98d850b815250815260200160405180604001604052807f22cf9ef6b41888018a7a9f1d428027e09a69a6b114637f5e7fe1377f8309f42981526020017f202285795b83464e74a8a112b139709441e7a9db7a0ffd2aa02d67fc33494ead8152508152508160600181905250600967ffffffffffffffff8111156133d4577f4e487b7100000000000000000000000000000000000000000000000000000000600052604160045260246000fd5b60405190808252806020026020018201604052801561340d57816020015b6133fa6147f4565b8152602001906001900390816133f25790505b50816080018190525060405180604001604052807f213a07e59ec8b24ec720b1f7edbe82a2cf04a305f7a851a5416efa0cd96346f281526020017f167a719e21727c39dd642635884dd279fa5d0384167957768c2e0d19dc3bca3981525081608001516000815181106134a9577f4e487b7100000000000000000000000000000000000000000000000000000000600052603260045260246000fd5b602002602001018190525060405180604001604052807f1d9d7f1f83a5750c3040ce7235af9665339e1383a98c3bb1f6617245d1174e2881526020017f26cdaa5d544257f3424d531eaf8f264907ff9bc2f4d9b1fc7f6b2c7433841b938152508160800151600181518110613547577f4e487b7100000000000000000000000000000000000000000000000000000000600052603260045260246000fd5b602002602001018190525060405180604001604052807f1a1338d1ebfd54a0eb81458787ac2f5285538272e2339d403180fc983c4732ab81526020017f2db4ba9db661bbf4902b0f551335e1d0fff8468f8efefc510d5c76a9f04a472381525081608001516002815181106135e5577f4e487b7100000000000000000000000000000000000000000000000000000000600052603260045260246000fd5b602002602001018190525060405180604001604052807f0c5db252cf77b7f180aca3795bf2cd83465e397f088e4a98eb4407c90ae65d1981526020017f0d1005711d93597e9b2a62feac56c43355947e9114eb841e13feea3d068a5c268152508160800151600381518110613683577f4e487b7100000000000000000000000000000000000000000000000000000000600052603260045260246000fd5b602002602001018190525060405180604001604052807f1747d273003976cb0fe6ebb78b7a5775d1d59a154a297a55fd8a7cc98341383c81526020017f20c119e137b1bccf245855b26a0214aa317795bb9374e86c39ff5a6b76c262738152508160800151600481518110613721577f4e487b7100000000000000000000000000000000000000000000000000000000600052603260045260246000fd5b602002602001018190525060405180604001604052807f1024aff71bef1674d4b6f5c012fff308ef5e8bb2f1dcc604385d6c81fa2866ab81526020017f2105ab6b9a9afe6cd38cef1bc98934fd33ea906f9dded28f02d863ce083a923f81525081608001516005815181106137bf577f4e487b7100000000000000000000000000000000000000000000000000000000600052603260045260246000fd5b602002602001018190525060405180604001604052807f1405b1ab36836a33c01e9cbc9394adb64dc0580cbc6d6497062da4983c30b25881526020017f01ff1751669ab13b1d3acd14c5d1aef2fcb7c55d2b662646a2758725d701e8fe815250816080015160068151811061385d577f4e487b7100000000000000000000000000000000000000000000000000000000600052603260045260246000fd5b602002602001018190525060405180604001604052807f0a8ed3e45f204dd7b27faddd03ea7a7a1ad5fcee0120db0b4d1285f771892c1a81526020017f0839e0a131c103f3703c5450d0d3171fdee113813482dd87beb2eb10db85f33881525081608001516007815181106138fb577f4e487b7100000000000000000000000000000000000000000000000000000000600052603260045260246000fd5b602002602001018190525060405180604001604052807f0fa977e100f3c05e20387ae224ccb3b6d75b7240289bd2e9005e9aaa3502d1ee81526020017f08a511c1cde8d8bf9a2cb31d5f6fe3750c6f26e9931363e5cfd0ade2fec33fb98152508160800151600881518110613999577f4e487b7100000000000000000000000000000000000000000000000000000000600052603260045260246000fd5b602002602001018190525090565b6139af6147f4565b6139b761480e565b8360000151816000600381106139f6577f4e487b7100000000000000000000000000000000000000000000000000000000600052603260045260246000fd5b602002018181525050836020015181600160038110613a3e577f4e487b7100000000000000000000000000000000000000000000000000000000600052603260045260246000fd5b6020020181815250508281600260038110613a82577f4e487b7100000000000000000000000000000000000000000000000000000000600052603260045260246000fd5b602002018181525050600060608360808460076107d05a03fa90508060008114613aab57613aad565bfe5b5080613aee576040517f08c379a0000000000000000000000000000000000000000000000000000000008152600401613ae590615316565b60405180910390fd5b505092915050565b613afe6147f4565b613b06614830565b836000015181600060048110613b45577f4e487b7100000000000000000000000000000000000000000000000000000000600052603260045260246000fd5b602002018181525050836020015181600160048110613b8d577f4e487b7100000000000000000000000000000000000000000000000000000000600052603260045260246000fd5b602002018181525050826000015181600260048110613bd5577f4e487b7100000000000000000000000000000000000000000000000000000000600052603260045260246000fd5b602002018181525050826020015181600360048110613c1d577f4e487b7100000000000000000000000000000000000000000000000000000000600052603260045260246000fd5b602002018181525050600060608360c08460066107d05a03fa90508060008114613c4657613c48565bfe5b5080613c89576040517f08c379a0000000000000000000000000000000000000000000000000000000008152600401613c80906153f6565b60405180910390fd5b505092915050565b613c996147f4565b60007f30644e72e131a029b85045b68181585d97816a916871ca8d3c208c16d87cfd47905060008360000151148015613cd6575060008360200151145b15613cfa576040518060400160405280600081526020016000815250915050613d31565b604051806040016040528084600001518152602001828560200151613d1f91906159f1565b83613d2a9190615814565b8152509150505b919050565b600080600467ffffffffffffffff811115613d7a577f4e487b7100000000000000000000000000000000000000000000000000000000600052604160045260246000fd5b604051908082528060200260200182016040528015613db357816020015b613da06147f4565b815260200190600190039081613d985790505b5090506000600467ffffffffffffffff811115613df9577f4e487b7100000000000000000000000000000000000000000000000000000000600052604160045260246000fd5b604051908082528060200260200182016040528015613e3257816020015b613e1f614852565b815260200190600190039081613e175790505b5090508a82600081518110613e70577f4e487b7100000000000000000000000000000000000000000000000000000000600052603260045260246000fd5b60200260200101819052508882600181518110613eb6577f4e487b7100000000000000000000000000000000000000000000000000000000600052603260045260246000fd5b60200260200101819052508682600281518110613efc577f4e487b7100000000000000000000000000000000000000000000000000000000600052603260045260246000fd5b60200260200101819052508482600381518110613f42577f4e487b7100000000000000000000000000000000000000000000000000000000600052603260045260246000fd5b60200260200101819052508981600081518110613f88577f4e487b7100000000000000000000000000000000000000000000000000000000600052603260045260246000fd5b60200260200101819052508781600181518110613fce577f4e487b7100000000000000000000000000000000000000000000000000000000600052603260045260246000fd5b60200260200101819052508581600281518110614014577f4e487b7100000000000000000000000000000000000000000000000000000000600052603260045260246000fd5b6020026020010181905250838160038151811061405a577f4e487b7100000000000000000000000000000000000000000000000000000000600052603260045260246000fd5b602002602001018190525061406f828261407f565b9250505098975050505050505050565b600081518351146140c5576040517f08c379a00000000000000000000000000000000000000000000000000000000081526004016140bc906153b6565b60405180910390fd5b60008351905060006006826140da91906157ba565b905060008167ffffffffffffffff81111561411e577f4e487b7100000000000000000000000000000000000000000000000000000000600052604160045260246000fd5b60405190808252806020026020018201604052801561414c5781602001602082028036833780820191505090505b50905060005b8381101561463157868181518110614193577f4e487b7100000000000000000000000000000000000000000000000000000000600052603260045260246000fd5b6020026020010151600001518260006006846141af91906157ba565b6141b99190615764565b815181106141f0577f4e487b7100000000000000000000000000000000000000000000000000000000600052603260045260246000fd5b602002602001018181525050868181518110614235577f4e487b7100000000000000000000000000000000000000000000000000000000600052603260045260246000fd5b60200260200101516020015182600160068461425191906157ba565b61425b9190615764565b81518110614292577f4e487b7100000000000000000000000000000000000000000000000000000000600052603260045260246000fd5b6020026020010181815250508581815181106142d7577f4e487b7100000000000000000000000000000000000000000000000000000000600052603260045260246000fd5b60200260200101516000015160006002811061431c577f4e487b7100000000000000000000000000000000000000000000000000000000600052603260045260246000fd5b602002015182600260068461433191906157ba565b61433b9190615764565b81518110614372577f4e487b7100000000000000000000000000000000000000000000000000000000600052603260045260246000fd5b6020026020010181815250508581815181106143b7577f4e487b7100000000000000000000000000000000000000000000000000000000600052603260045260246000fd5b6020026020010151600001516001600281106143fc577f4e487b7100000000000000000000000000000000000000000000000000000000600052603260045260246000fd5b602002015182600360068461441191906157ba565b61441b9190615764565b81518110614452577f4e487b7100000000000000000000000000000000000000000000000000000000600052603260045260246000fd5b602002602001018181525050858181518110614497577f4e487b7100000000000000000000000000000000000000000000000000000000600052603260045260246000fd5b6020026020010151602001516000600281106144dc577f4e487b7100000000000000000000000000000000000000000000000000000000600052603260045260246000fd5b60200201518260046006846144f191906157ba565b6144fb9190615764565b81518110614532577f4e487b7100000000000000000000000000000000000000000000000000000000600052603260045260246000fd5b602002602001018181525050858181518110614577577f4e487b7100000000000000000000000000000000000000000000000000000000600052603260045260246000fd5b6020026020010151602001516001600281106145bc577f4e487b7100000000000000000000000000000000000000000000000000000000600052603260045260246000fd5b60200201518260056006846145d191906157ba565b6145db9190615764565b81518110614612577f4e487b7100000000000000000000000000000000000000000000000000000000600052603260045260246000fd5b60200260200101818152505080806146299061597e565b915050614152565b5061463a614878565b6000602082602086026020860160086107d05a03fa9050806000811461465f57614661565bfe5b50806146a2576040517f08c379a000000000000000000000000000000000000000000000000000000000815260040161469990615416565b60405180910390fd5b6000826000600181106146de577f4e487b7100000000000000000000000000000000000000000000000000000000600052603260045260246000fd5b602002015114159550505050505092915050565b6040518060600160405280600060ff168152602001600060ff1681526020016000151581525090565b604051806060016040528061472e6147f4565b815260200161473b614852565b81526020016147486147f4565b81525090565b6040518060a00160405280600060ff168152602001600060ff168152602001600060ff168152602001600060ff1681526020016000151581525090565b6040518060400160405280600290602082028036833780820191505090505090565b6040518060a001604052806147c06147f4565b81526020016147cd614852565b81526020016147da614852565b81526020016147e7614852565b8152602001606081525090565b604051806040016040528060008152602001600081525090565b6040518060600160405280600390602082028036833780820191505090505090565b6040518060800160405280600490602082028036833780820191505090505090565b604051806040016040528061486561489a565b815260200161487261489a565b81525090565b6040518060200160405280600190602082028036833780820191505090505090565b6040518060400160405280600290602082028036833780820191505090505090565b60006148cf6148ca8461560a565b6155e5565b905080828560408602820111156148e557600080fd5b60005b8581101561491557816148fb8882614a21565b8452602084019350604083019250506001810190506148e8565b5050509392505050565b600061493261492d84615630565b6155e5565b9050808285602086028201111561494857600080fd5b60005b85811015614978578161495e8882614a6f565b84526020840193506020830192505060018101905061494b565b5050509392505050565b600061499561499084615656565b6155e5565b905080828560208602820111156149ab57600080fd5b60005b858110156149db57816149c18882614a6f565b8452602084019350602083019250506001810190506149ae565b5050509392505050565b6000813590506149f481615d3e565b92915050565b600082601f830112614a0b57600080fd5b6002614a188482856148bc565b91505092915050565b600082601f830112614a3257600080fd5b6002614a3f84828561491f565b91505092915050565b600082601f830112614a5957600080fd5b6008614a66848285614982565b91505092915050565b600081359050614a7e81615d55565b92915050565b600081519050614a9381615d55565b92915050565b600081359050614aa881615d6c565b92915050565b600060208284031215614ac057600080fd5b6000614ace848285016149e5565b91505092915050565b6000806000806102008587031215614aee57600080fd5b6000614afc87828801614a21565b9450506040614b0d878288016149fa565b93505060c0614b1e87828801614a21565b925050610100614b3087828801614a48565b91505092959194509250565b600060208284031215614b4e57600080fd5b6000614b5c84828501614a6f565b91505092915050565b600060208284031215614b7757600080fd5b6000614b8584828501614a84565b91505092915050565b60008060408385031215614ba157600080fd5b6000614baf85828601614a6f565b9250506020614bc0858286016149e5565b9150509250929050565b600080600080600060a08688031215614be257600080fd5b6000614bf088828901614a6f565b9550506020614c0188828901614a99565b9450506040614c1288828901614a99565b9350506060614c2388828901614a99565b9250506080614c3488828901614a99565b9150509295509295909350565b60008060008060808587031215614c5757600080fd5b6000614c6587828801614a99565b9450506020614c7687828801614a99565b9350506040614c8787828801614a99565b9250506060614c9887828801614a99565b91505092959194509250565b6000614cb08383614d04565b60208301905092915050565b6000614cc883836150c8565b60a08301905092915050565b6000614ce08383615130565b60608301905092915050565b6000614cf88383615172565b60208301905092915050565b614d0d8161587c565b82525050565b614d1c8161587c565b82525050565b614d2b816156b0565b614d35818461571b565b9250614d408261567c565b8060005b83811015614d71578151614d588782614ca4565b9650614d63836156e7565b925050600181019050614d44565b505050505050565b6000614d84826156bb565b614d8e8185615726565b9350614d9983615686565b8060005b83811015614dca578151614db18882614cbc565b9750614dbc836156f4565b925050600181019050614d9d565b5085935050505092915050565b6000614de2826156c6565b614dec8185615737565b9350614df783615696565b8060005b83811015614e28578151614e0f8882614cd4565b9750614e1a83615701565b925050600181019050614dfb565b5085935050505092915050565b614e3e816156d1565b614e488184615748565b9250614e53826156a6565b8060005b83811015614e84578151614e6b8782614cec565b9650614e768361570e565b925050600181019050614e57565b505050505050565b614e958161588e565b82525050565b614ea48161588e565b82525050565b614eb3816158e4565b82525050565b614ec281615908565b82525050565b6000614ed3826156dc565b614edd8185615753565b9350614eed81856020860161591a565b614ef681615ade565b840191505092915050565b6000614f0e602683615753565b9150614f1982615aef565b604082019050919050565b6000614f31601283615753565b9150614f3c82615b3e565b602082019050919050565b6000614f54601283615753565b9150614f5f82615b67565b602082019050919050565b6000614f77601283615753565b9150614f8282615b90565b602082019050919050565b6000614f9a601f83615753565b9150614fa582615bb9565b602082019050919050565b6000614fbd602083615753565b9150614fc882615be2565b602082019050919050565b6000614fe0601283615753565b9150614feb82615c0b565b602082019050919050565b6000615003600d83615753565b915061500e82615c34565b602082019050919050565b6000615026601683615753565b915061503182615c5d565b602082019050919050565b6000615049600c83615753565b915061505482615c86565b602082019050919050565b600061506c601283615753565b915061507782615caf565b602082019050919050565b600061508f601583615753565b915061509a82615cd8565b602082019050919050565b60006150b2601283615753565b91506150bd82615d01565b602082019050919050565b60a0820160008201516150de6000850182615190565b5060208201516150f16020850182615190565b5060408201516151046040850182615190565b5060608201516151176060850182615190565b50608082015161512a6080850182614e8c565b50505050565b6060820160008201516151466000850182615190565b5060208201516151596020850182615190565b50604082015161516c6040850182614e8c565b50505050565b61517b816158cd565b82525050565b61518a816158cd565b82525050565b615199816158d7565b82525050565b6151a8816158d7565b82525050565b60006020820190506151c36000830184614d13565b92915050565b60006040820190506151de6000830184614d22565b92915050565b600060208201905081810360008301526151fe8184614d79565b905092915050565b600060208201905081810360008301526152208184614dd7565b905092915050565b600060a08201905061523d6000830184614e35565b92915050565b60006020820190506152586000830184614e9b565b92915050565b60006020820190506152736000830184614eaa565b92915050565b600060208201905061528e6000830184614eb9565b92915050565b600060208201905081810360008301526152ae8184614ec8565b905092915050565b600060208201905081810360008301526152cf81614f01565b9050919050565b600060208201905081810360008301526152ef81614f24565b9050919050565b6000602082019050818103600083015261530f81614f47565b9050919050565b6000602082019050818103600083015261532f81614f6a565b9050919050565b6000602082019050818103600083015261534f81614f8d565b9050919050565b6000602082019050818103600083015261536f81614fb0565b9050919050565b6000602082019050818103600083015261538f81614fd3565b9050919050565b600060208201905081810360008301526153af81614ff6565b9050919050565b600060208201905081810360008301526153cf81615019565b9050919050565b600060208201905081810360008301526153ef8161503c565b9050919050565b6000602082019050818103600083015261540f8161505f565b9050919050565b6000602082019050818103600083015261542f81615082565b9050919050565b6000602082019050818103600083015261544f816150a5565b9050919050565b600060208201905061546b6000830184615181565b92915050565b6000602082019050615486600083018461519f565b92915050565b60006060820190506154a1600083018661519f565b6154ae602083018561519f565b6154bb6040830184614e9b565b949350505050565b60006060820190506154d8600083018661519f565b6154e5602083018561519f565b6154f2604083018461519f565b949350505050565b600060808201905061550f600083018761519f565b61551c602083018661519f565b615529604083018561519f565b615536606083018461519f565b95945050505050565b600060a082019050615554600083018861519f565b615561602083018761519f565b61556e604083018661519f565b61557b606083018561519f565b6155886080830184614e9b565b9695505050505050565b600060a0820190506155a7600083018861519f565b6155b4602083018761519f565b6155c1604083018661519f565b6155ce606083018561519f565b6155db608083018461519f565b9695505050505050565b60006155ef615600565b90506155fb828261594d565b919050565b6000604051905090565b600067ffffffffffffffff82111561562557615624615aaf565b5b602082029050919050565b600067ffffffffffffffff82111561564b5761564a615aaf565b5b602082029050919050565b600067ffffffffffffffff82111561567157615670615aaf565b5b602082029050919050565b6000819050919050565b6000819050602082019050919050565b6000819050602082019050919050565b6000819050919050565b600060029050919050565b600081519050919050565b600081519050919050565b600060059050919050565b600081519050919050565b6000602082019050919050565b6000602082019050919050565b6000602082019050919050565b6000602082019050919050565b600081905092915050565b600082825260208201905092915050565b600082825260208201905092915050565b600081905092915050565b600082825260208201905092915050565b600061576f826158cd565b915061577a836158cd565b9250827fffffffffffffffffffffffffffffffffffffffffffffffffffffffffffffffff038211156157af576157ae615a22565b5b828201905092915050565b60006157c5826158cd565b91506157d0836158cd565b9250817fffffffffffffffffffffffffffffffffffffffffffffffffffffffffffffffff048311821515161561580957615808615a22565b5b828202905092915050565b600061581f826158cd565b915061582a836158cd565b92508282101561583d5761583c615a22565b5b828203905092915050565b6000615853826158d7565b915061585e836158d7565b92508282101561587157615870615a22565b5b828203905092915050565b6000615887826158ad565b9050919050565b60008115159050919050565b60008190506158a882615d2a565b919050565b600073ffffffffffffffffffffffffffffffffffffffff82169050919050565b6000819050919050565b600060ff82169050919050565b60006158ef826158f6565b9050919050565b6000615901826158ad565b9050919050565b60006159138261589a565b9050919050565b60005b8381101561593857808201518184015260208101905061591d565b83811115615947576000848401525b50505050565b61595682615ade565b810181811067ffffffffffffffff8211171561597557615974615aaf565b5b80604052505050565b6000615989826158cd565b91507fffffffffffffffffffffffffffffffffffffffffffffffffffffffffffffffff8214156159bc576159bb615a22565b5b600182019050919050565b60006159d2826158d7565b915060ff8214156159e6576159e5615a22565b5b600182019050919050565b60006159fc826158cd565b9150615a07836158cd565b925082615a1757615a16615a51565b5b828206905092915050565b7f4e487b7100000000000000000000000000000000000000000000000000000000600052601160045260246000fd5b7f4e487b7100000000000000000000000000000000000000000000000000000000600052601260045260246000fd5b7f4e487b7100000000000000000000000000000000000000000000000000000000600052602160045260246000fd5b7f4e487b7100000000000000000000000000000000000000000000000000000000600052604160045260246000fd5b6000601f19601f8301169050919050565b7f4f776e61626c653a206e6577206f776e657220697320746865207a65726f206160008201527f6464726573730000000000000000000000000000000000000000000000000000602082015250565b7f616c7265616479207375626d6974746564210000000000000000000000000000600082015250565b7f76657269666965722d6261642d696e7075740000000000000000000000000000600082015250565b7f70616972696e672d6d756c2d6661696c65640000000000000000000000000000600082015250565b7f76657269666965722d6774652d736e61726b2d7363616c61722d6669656c6400600082015250565b7f4f776e61626c653a2063616c6c6572206973206e6f7420746865206f776e6572600082015250565b7f616c726561647920726567697374657264210000000000000000000000000000600082015250565b7f6e6f7420616c6c6f776564212000000000000000000000000000000000000000600082015250565b7f70616972696e672d6c656e677468732d6661696c656400000000000000000000600082015250565b7f696e76616c696420686173680000000000000000000000000000000000000000600082015250565b7f70616972696e672d6164642d6661696c65640000000000000000000000000000600082015250565b7f70616972696e672d6f70636f64652d6661696c65640000000000000000000000600082015250565b7f766572696669636174696f6e206572726f720000000000000000000000000000600082015250565b60068110615d3b57615d3a615a80565b5b50565b615d478161587c565b8114615d5257600080fd5b50565b615d5e816158cd565b8114615d6957600080fd5b50565b615d75816158d7565b8114615d8057600080fd5b5056fea2646970667358221220d9911484ee56087f6a322468bef6de39a7c3419d60c280709fb059bce1b6db2364736f6c63430008040033",
  "linkReferences": {},
  "deployedLinkReferences": {}
}