{
  "_format": "hh-sol-artifact-1",
  "contractName": "HitAndBlow",
  "sourceName": "contracts/HitAndBlow.sol",
  "abi": [
    {
      "inputs": [
        {
          "internalType": "contract IHasher",
          "name": "_hasher",
          "type": "address"
        }
      ],
      "stateMutability": "nonpayable",
      "type": "constructor"
    },
    {
      "anonymous": false,
      "inputs": [
        {
          "indexed": true,
          "internalType": "address",
          "name": "player",
          "type": "address"
        },
        {
          "indexed": false,
          "internalType": "uint256",
          "name": "solutionHash",
          "type": "uint256"
        }
      ],
      "name": "CommitSolutionHash",
      "type": "event"
    },
    {
      "anonymous": false,
      "inputs": [],
      "name": "GameFinish",
      "type": "event"
    },
    {
      "anonymous": false,
      "inputs": [],
      "name": "Initialize",
      "type": "event"
    },
    {
      "anonymous": false,
      "inputs": [
        {
          "indexed": true,
          "internalType": "address",
          "name": "previousOwner",
          "type": "address"
        },
        {
          "indexed": true,
          "internalType": "address",
          "name": "newOwner",
          "type": "address"
        }
      ],
      "name": "OwnershipTransferred",
      "type": "event"
    },
    {
      "anonymous": false,
      "inputs": [
        {
          "indexed": true,
          "internalType": "address",
          "name": "player",
          "type": "address"
        }
      ],
      "name": "Register",
      "type": "event"
    },
    {
      "anonymous": false,
      "inputs": [
        {
          "indexed": true,
          "internalType": "address",
          "name": "player",
          "type": "address"
        },
        {
          "indexed": false,
          "internalType": "uint8",
          "name": "a",
          "type": "uint8"
        },
        {
          "indexed": false,
          "internalType": "uint8",
          "name": "b",
          "type": "uint8"
        },
        {
          "indexed": false,
          "internalType": "uint8",
          "name": "c",
          "type": "uint8"
        },
        {
          "indexed": false,
          "internalType": "uint8",
          "name": "d",
          "type": "uint8"
        }
      ],
      "name": "Reveal",
      "type": "event"
    },
    {
      "anonymous": false,
      "inputs": [
        {
          "indexed": false,
          "internalType": "enum HitAndBlow.Stages",
          "name": "stage",
          "type": "uint8"
        }
      ],
      "name": "StageChange",
      "type": "event"
    },
    {
      "anonymous": false,
      "inputs": [
        {
          "indexed": true,
          "internalType": "address",
          "name": "player",
          "type": "address"
        },
        {
          "indexed": false,
          "internalType": "uint8",
          "name": "currentRound",
          "type": "uint8"
        },
        {
          "indexed": false,
          "internalType": "uint8",
          "name": "a",
          "type": "uint8"
        },
        {
          "indexed": false,
          "internalType": "uint8",
          "name": "b",
          "type": "uint8"
        },
        {
          "indexed": false,
          "internalType": "uint8",
          "name": "c",
          "type": "uint8"
        },
        {
          "indexed": false,
          "internalType": "uint8",
          "name": "d",
          "type": "uint8"
        }
      ],
      "name": "SubmitGuess",
      "type": "event"
    },
    {
      "anonymous": false,
      "inputs": [
        {
          "indexed": true,
          "internalType": "address",
          "name": "player",
          "type": "address"
        },
        {
          "indexed": false,
          "internalType": "uint8",
          "name": "currentRound",
          "type": "uint8"
        },
        {
          "indexed": false,
          "internalType": "uint8",
          "name": "hit",
          "type": "uint8"
        },
        {
          "indexed": false,
          "internalType": "uint8",
          "name": "blow",
          "type": "uint8"
        }
      ],
      "name": "SubmitHB",
      "type": "event"
    },
    {
      "inputs": [],
      "name": "MAX_ROUND",
      "outputs": [
        {
          "internalType": "uint8",
          "name": "",
          "type": "uint8"
        }
      ],
      "stateMutability": "view",
      "type": "function"
    },
    {
      "inputs": [
        {
          "internalType": "uint256",
          "name": "solutionHash",
          "type": "uint256"
        }
      ],
      "name": "commitSolutionHash",
      "outputs": [],
      "stateMutability": "nonpayable",
      "type": "function"
    },
    {
      "inputs": [],
      "name": "currentRound",
      "outputs": [
        {
          "internalType": "uint8",
          "name": "",
          "type": "uint8"
        }
      ],
      "stateMutability": "view",
      "type": "function"
    },
    {
      "inputs": [
        {
          "internalType": "address",
          "name": "player",
          "type": "address"
        }
      ],
      "name": "getSubmittedGuess",
      "outputs": [
        {
          "components": [
            {
              "internalType": "uint8",
              "name": "one",
              "type": "uint8"
            },
            {
              "internalType": "uint8",
              "name": "two",
              "type": "uint8"
            },
            {
              "internalType": "uint8",
              "name": "three",
              "type": "uint8"
            },
            {
              "internalType": "uint8",
              "name": "four",
              "type": "uint8"
            },
            {
              "internalType": "bool",
              "name": "submitted",
              "type": "bool"
            }
          ],
          "internalType": "struct HitAndBlow.Guess[]",
          "name": "",
          "type": "tuple[]"
        }
      ],
      "stateMutability": "view",
      "type": "function"
    },
    {
      "inputs": [
        {
          "internalType": "address",
          "name": "player",
          "type": "address"
        }
      ],
      "name": "getSubmittedHB",
      "outputs": [
        {
          "components": [
            {
              "internalType": "uint8",
              "name": "hit",
              "type": "uint8"
            },
            {
              "internalType": "uint8",
              "name": "blow",
              "type": "uint8"
            },
            {
              "internalType": "bool",
              "name": "submitted",
              "type": "bool"
            }
          ],
          "internalType": "struct HitAndBlow.HB[]",
          "name": "",
          "type": "tuple[]"
        }
      ],
      "stateMutability": "view",
      "type": "function"
    },
    {
      "inputs": [],
      "name": "getplayers",
      "outputs": [
        {
          "internalType": "address[2]",
          "name": "",
          "type": "address[2]"
        }
      ],
      "stateMutability": "view",
      "type": "function"
    },
    {
      "inputs": [],
      "name": "hasher",
      "outputs": [
        {
          "internalType": "contract IHasher",
          "name": "",
          "type": "address"
        }
      ],
      "stateMutability": "view",
      "type": "function"
    },
    {
      "inputs": [],
      "name": "initialize",
      "outputs": [],
      "stateMutability": "nonpayable",
      "type": "function"
    },
    {
      "inputs": [],
      "name": "owner",
      "outputs": [
        {
          "internalType": "address",
          "name": "",
          "type": "address"
        }
      ],
      "stateMutability": "view",
      "type": "function"
    },
    {
      "inputs": [
        {
          "internalType": "uint256",
          "name": "",
          "type": "uint256"
        }
      ],
      "name": "players",
      "outputs": [
        {
          "internalType": "address",
          "name": "",
          "type": "address"
        }
      ],
      "stateMutability": "view",
      "type": "function"
    },
    {
      "inputs": [],
      "name": "register",
      "outputs": [],
      "stateMutability": "nonpayable",
      "type": "function"
    },
    {
      "inputs": [],
      "name": "renounceOwnership",
      "outputs": [],
      "stateMutability": "nonpayable",
      "type": "function"
    },
    {
      "inputs": [
        {
          "internalType": "uint256",
          "name": "salt",
          "type": "uint256"
        },
        {
          "internalType": "uint8",
          "name": "a",
          "type": "uint8"
        },
        {
          "internalType": "uint8",
          "name": "b",
          "type": "uint8"
        },
        {
          "internalType": "uint8",
          "name": "c",
          "type": "uint8"
        },
        {
          "internalType": "uint8",
          "name": "d",
          "type": "uint8"
        }
      ],
      "name": "reveal",
      "outputs": [],
      "stateMutability": "nonpayable",
      "type": "function"
    },
    {
      "inputs": [
        {
          "internalType": "address",
          "name": "",
          "type": "address"
        }
      ],
      "name": "solutionHashes",
      "outputs": [
        {
          "internalType": "uint256",
          "name": "",
          "type": "uint256"
        }
      ],
      "stateMutability": "view",
      "type": "function"
    },
    {
      "inputs": [],
      "name": "stage",
      "outputs": [
        {
          "internalType": "enum HitAndBlow.Stages",
          "name": "",
          "type": "uint8"
        }
      ],
      "stateMutability": "view",
      "type": "function"
    },
    {
      "inputs": [
        {
          "internalType": "uint8",
          "name": "guess1",
          "type": "uint8"
        },
        {
          "internalType": "uint8",
          "name": "guess2",
          "type": "uint8"
        },
        {
          "internalType": "uint8",
          "name": "guess3",
          "type": "uint8"
        },
        {
          "internalType": "uint8",
          "name": "guess4",
          "type": "uint8"
        }
      ],
      "name": "submitGuess",
      "outputs": [],
      "stateMutability": "nonpayable",
      "type": "function"
    },
    {
      "inputs": [
        {
          "internalType": "uint256[2]",
          "name": "a",
          "type": "uint256[2]"
        },
        {
          "internalType": "uint256[2][2]",
          "name": "b",
          "type": "uint256[2][2]"
        },
        {
          "internalType": "uint256[2]",
          "name": "c",
          "type": "uint256[2]"
        },
        {
          "internalType": "uint256[8]",
          "name": "input",
          "type": "uint256[8]"
        }
      ],
      "name": "submitHbProof",
      "outputs": [],
      "stateMutability": "nonpayable",
      "type": "function"
    },
    {
      "inputs": [
        {
          "internalType": "uint256",
          "name": "",
          "type": "uint256"
        },
        {
          "internalType": "address",
          "name": "",
          "type": "address"
        }
      ],
      "name": "submittedGuess",
      "outputs": [
        {
          "internalType": "uint8",
          "name": "one",
          "type": "uint8"
        },
        {
          "internalType": "uint8",
          "name": "two",
          "type": "uint8"
        },
        {
          "internalType": "uint8",
          "name": "three",
          "type": "uint8"
        },
        {
          "internalType": "uint8",
          "name": "four",
          "type": "uint8"
        },
        {
          "internalType": "bool",
          "name": "submitted",
          "type": "bool"
        }
      ],
      "stateMutability": "view",
      "type": "function"
    },
    {
      "inputs": [
        {
          "internalType": "uint256",
          "name": "",
          "type": "uint256"
        },
        {
          "internalType": "address",
          "name": "",
          "type": "address"
        }
      ],
      "name": "submittedHB",
      "outputs": [
        {
          "internalType": "uint8",
          "name": "hit",
          "type": "uint8"
        },
        {
          "internalType": "uint8",
          "name": "blow",
          "type": "uint8"
        },
        {
          "internalType": "bool",
          "name": "submitted",
          "type": "bool"
        }
      ],
      "stateMutability": "view",
      "type": "function"
    },
    {
      "inputs": [
        {
          "internalType": "address",
          "name": "newOwner",
          "type": "address"
        }
      ],
      "name": "transferOwnership",
      "outputs": [],
      "stateMutability": "nonpayable",
      "type": "function"
    },
    {
      "inputs": [
        {
          "internalType": "uint256[2]",
          "name": "a",
          "type": "uint256[2]"
        },
        {
          "internalType": "uint256[2][2]",
          "name": "b",
          "type": "uint256[2][2]"
        },
        {
          "internalType": "uint256[2]",
          "name": "c",
          "type": "uint256[2]"
        },
        {
          "internalType": "uint256[8]",
          "name": "input",
          "type": "uint256[8]"
        }
      ],
      "name": "verifyProof",
      "outputs": [
        {
          "internalType": "bool",
          "name": "r",
          "type": "bool"
        }
      ],
      "stateMutability": "view",
      "type": "function"
    },
    {
      "inputs": [],
      "name": "winner",
      "outputs": [
        {
          "internalType": "address",
          "name": "",
          "type": "address"
        }
      ],
      "stateMutability": "view",
      "type": "function"
    }
  ],
  "bytecode": "0x60806040526001600260006101000a81548160ff021916908360ff1602179055506000600760006101000a81548160ff021916908360058111156200006d577f4e487b7100000000000000000000000000000000000000000000000000000000600052602160045260246000fd5b02179055503480156200007f57600080fd5b506040516200621e3803806200621e8339818101604052810190620000a5919062000307565b620000c5620000b96200015860201b60201c565b6200016060201b60201c565b620001106040518060400160405280601781526020017f4465706c6f79696e67206120486974416e64426c6f77210000000000000000008152506200022460201b620023811760201c565b80606c60006101000a81548173ffffffffffffffffffffffffffffffffffffffff021916908373ffffffffffffffffffffffffffffffffffffffff160217905550506200045d565b600033905090565b60008060009054906101000a900473ffffffffffffffffffffffffffffffffffffffff169050816000806101000a81548173ffffffffffffffffffffffffffffffffffffffff021916908373ffffffffffffffffffffffffffffffffffffffff1602179055508173ffffffffffffffffffffffffffffffffffffffff168173ffffffffffffffffffffffffffffffffffffffff167f8be0079c531659141344cd1fd0a4f28419497f9722a3daafe3b4186f6b6457e060405160405180910390a35050565b620002c4816040516024016200023b919062000374565b6040516020818303038152906040527f41304fac000000000000000000000000000000000000000000000000000000007bffffffffffffffffffffffffffffffffffffffffffffffffffffffff19166020820180517bffffffffffffffffffffffffffffffffffffffffffffffffffffffff8381831617835250505050620002c760201b60201c565b50565b60008151905060006a636f6e736f6c652e6c6f679050602083016000808483855afa5050505050565b600081519050620003018162000443565b92915050565b6000602082840312156200031a57600080fd5b60006200032a84828501620002f0565b91505092915050565b6000620003408262000398565b6200034c8185620003a3565b93506200035e818560208601620003fc565b620003698162000432565b840191505092915050565b6000602082019050818103600083015262000390818462000333565b905092915050565b600081519050919050565b600082825260208201905092915050565b6000620003c182620003dc565b9050919050565b6000620003d582620003b4565b9050919050565b600073ffffffffffffffffffffffffffffffffffffffff82169050919050565b60005b838110156200041c578082015181840152602081019050620003ff565b838111156200042c576000848401525b50505050565b6000601f19601f8301169050919050565b6200044e81620003c8565b81146200045a57600080fd5b50565b615db1806200046d6000396000f3fe608060405234801561001057600080fd5b50600436106101425760003560e01c8063c040e6b8116100b8578063dfbf53ae1161007c578063dfbf53ae14610341578063ecb3db521461035f578063ed33639f1461037d578063f2ca76881461039b578063f2fde38b146103cd578063f71d96cb146103e957610142565b8063c040e6b814610273578063c9219a7a14610291578063c997ce08146102c1578063ce9af863146102f1578063d1b8fe781461032557610142565b80638a19c8bc1161010a5780638a19c8bc146101b15780638da5cb5b146101cf57806395f2d1f4146101ed578063a695c3ae14610209578063ab56c0d514610225578063b4ac62c51461025557610142565b80631aa3a008146101475780636828348714610151578063715018a61461018157806375c8fd6c1461018b5780638129fc1c146101a7575b600080fd5b61014f610419565b005b61016b60048036038101906101669190614aa6565b610803565b604051610178919061544e565b60405180910390f35b61018961081b565b005b6101a560048036038101906101a09190614acf565b6108a3565b005b6101af610dab565b005b6101b9610e31565b6040516101c69190615469565b60405180910390f35b6101d7610e44565b6040516101e491906151a6565b60405180910390f35b61020760048036038101906102029190614c39565b610e6d565b005b610223600480360381019061021e9190614b34565b611202565b005b61023f600480360381019061023a9190614aa6565b611433565b60405161024c91906151fe565b60405180910390f35b61025d611624565b60405161026a9190615469565b60405180910390f35b61027b611629565b6040516102889190615271565b60405180910390f35b6102ab60048036038101906102a69190614acf565b61163c565b6040516102b8919061523b565b60405180910390f35b6102db60048036038101906102d69190614aa6565b611af0565b6040516102e891906151dc565b60405180910390f35b61030b60048036038101906103069190614b86565b611d59565b60405161031c959493929190615537565b60405180910390f35b61033f600480360381019061033a9190614bc2565b611de0565b005b610349612125565b60405161035691906151a6565b60405180910390f35b61036761214b565b60405161037491906151c1565b60405180910390f35b6103856121cc565b6040516103929190615256565b60405180910390f35b6103b560048036038101906103b09190614b86565b6121f2565b6040516103c493929190615484565b60405180910390f35b6103e760048036038101906103e29190614aa6565b612253565b005b61040360048036038101906103fe9190614b34565b61234b565b60405161041091906151a6565b60405180910390f35b6000806005811115610454577f4e487b7100000000000000000000000000000000000000000000000000000000600052602160045260246000fd5b600760009054906101000a900460ff16600581111561049c577f4e487b7100000000000000000000000000000000000000000000000000000000600052602160045260246000fd5b146104dc576040517f08c379a00000000000000000000000000000000000000000000000000000000081526004016104d39061538e565b60405180910390fd5b600073ffffffffffffffffffffffffffffffffffffffff16600360006002811061052f577f4e487b7100000000000000000000000000000000000000000000000000000000600052603260045260246000fd5b0160009054906101000a900473ffffffffffffffffffffffffffffffffffffffff1673ffffffffffffffffffffffffffffffffffffffff161415610630573360036000600281106105a9577f4e487b7100000000000000000000000000000000000000000000000000000000600052603260045260246000fd5b0160006101000a81548173ffffffffffffffffffffffffffffffffffffffff021916908373ffffffffffffffffffffffffffffffffffffffff1602179055503373ffffffffffffffffffffffffffffffffffffffff167feeda149c76076b34d4b9d8896c2f7efc0d33d1c7b53ea3c5db490d64613f603a60405160405180910390a2610800565b3373ffffffffffffffffffffffffffffffffffffffff166003600060028110610682577f4e487b7100000000000000000000000000000000000000000000000000000000600052603260045260246000fd5b0160009054906101000a900473ffffffffffffffffffffffffffffffffffffffff1673ffffffffffffffffffffffffffffffffffffffff1614156106fb576040517f08c379a00000000000000000000000000000000000000000000000000000000081526004016106f29061536e565b60405180910390fd5b336003600160028110610737577f4e487b7100000000000000000000000000000000000000000000000000000000600052603260045260246000fd5b0160006101000a81548173ffffffffffffffffffffffffffffffffffffffff021916908373ffffffffffffffffffffffffffffffffffffffff1602179055506001600760006101000a81548160ff021916908360058111156107c2577f4e487b7100000000000000000000000000000000000000000000000000000000600052602160045260246000fd5b02179055507fc2c79e90970e807cdffdfc0896c48a489b0f6882b90beb4c9d6386ddc0fc95cf60016040516107f79190615271565b60405180910390a15b50565b60066020528060005260406000206000915090505481565b61082361241a565b73ffffffffffffffffffffffffffffffffffffffff16610841610e44565b73ffffffffffffffffffffffffffffffffffffffff1614610897576040517f08c379a000000000000000000000000000000000000000000000000000000000815260040161088e9061534e565b60405180910390fd5b6108a16000612422565b565b60028060058111156108de577f4e487b7100000000000000000000000000000000000000000000000000000000600052602160045260246000fd5b600760009054906101000a900460ff166005811115610926577f4e487b7100000000000000000000000000000000000000000000000000000000600052602160045260246000fd5b14610966576040517f08c379a000000000000000000000000000000000000000000000000000000000815260040161095d9061538e565b60405180910390fd5b6109728585858561163c565b6109b1576040517f08c379a00000000000000000000000000000000000000000000000000000000081526004016109a89061542e565b60405180910390fd5b6000826005600881106109ed577f4e487b7100000000000000000000000000000000000000000000000000000000600052603260045260246000fd5b60200201519050600083600660088110610a30577f4e487b7100000000000000000000000000000000000000000000000000000000600052603260045260246000fd5b60200201519050600060405180606001604052808460ff1681526020018360ff16815260200160011515815250905080603a6001600260009054906101000a900460ff16610a7e9190615840565b60ff1660328110610ab8577f4e487b7100000000000000000000000000000000000000000000000000000000600052603260045260246000fd5b0160003373ffffffffffffffffffffffffffffffffffffffff1673ffffffffffffffffffffffffffffffffffffffff16815260200190815260200160002060008201518160000160006101000a81548160ff021916908360ff16021790555060208201518160000160016101000a81548160ff021916908360ff16021790555060408201518160000160026101000a81548160ff02191690831515021790555090505060048360ff161415610c4057610b6f6124e6565b600560006101000a81548173ffffffffffffffffffffffffffffffffffffffff021916908373ffffffffffffffffffffffffffffffffffffffff1602179055506003600760006101000a81548160ff02191690836005811115610bfb577f4e487b7100000000000000000000000000000000000000000000000000000000600052602160045260246000fd5b02179055507fc2c79e90970e807cdffdfc0896c48a489b0f6882b90beb4c9d6386ddc0fc95cf6003604051610c309190615271565b60405180910390a1505050610da4565b6000610c4a6124e6565b90506000600260009054906101000a900460ff16905060011515603a6001600260009054906101000a900460ff16610c829190615840565b60ff1660328110610cbc577f4e487b7100000000000000000000000000000000000000000000000000000000600052603260045260246000fd5b0160008473ffffffffffffffffffffffffffffffffffffffff1673ffffffffffffffffffffffffffffffffffffffff16815260200190815260200160002060000160029054906101000a900460ff1615151415610d4c576002600081819054906101000a900460ff1680929190610d32906159bf565b91906101000a81548160ff021916908360ff160217905550505b3373ffffffffffffffffffffffffffffffffffffffff167f0ddf3cb018d1be71b7b8753c6aca06c057a0389952bdde8c9cf074581ef78152828787604051610d96939291906154bb565b60405180910390a250505050505b5050505050565b610db361241a565b73ffffffffffffffffffffffffffffffffffffffff16610dd1610e44565b73ffffffffffffffffffffffffffffffffffffffff1614610e27576040517f08c379a0000000000000000000000000000000000000000000000000000000008152600401610e1e9061534e565b60405180910390fd5b610e2f61263f565b565b600260009054906101000a900460ff1681565b60008060009054906101000a900473ffffffffffffffffffffffffffffffffffffffff16905090565b6002806005811115610ea8577f4e487b7100000000000000000000000000000000000000000000000000000000600052602160045260246000fd5b600760009054906101000a900460ff166005811115610ef0577f4e487b7100000000000000000000000000000000000000000000000000000000600052602160045260246000fd5b14610f30576040517f08c379a0000000000000000000000000000000000000000000000000000000008152600401610f279061538e565b60405180910390fd5b6000151560086001600260009054906101000a900460ff16610f529190615840565b60ff1660328110610f8c577f4e487b7100000000000000000000000000000000000000000000000000000000600052603260045260246000fd5b0160003373ffffffffffffffffffffffffffffffffffffffff1673ffffffffffffffffffffffffffffffffffffffff16815260200190815260200160002060000160049054906101000a900460ff1615151461101d576040517f08c379a0000000000000000000000000000000000000000000000000000000008152600401611014906152ce565b60405180910390fd5b60006040518060a001604052808760ff1681526020018660ff1681526020018560ff1681526020018460ff1681526020016001151581525090508060086001600260009054906101000a900460ff166110769190615840565b60ff16603281106110b0577f4e487b7100000000000000000000000000000000000000000000000000000000600052603260045260246000fd5b0160003373ffffffffffffffffffffffffffffffffffffffff1673ffffffffffffffffffffffffffffffffffffffff16815260200190815260200160002060008201518160000160006101000a81548160ff021916908360ff16021790555060208201518160000160016101000a81548160ff021916908360ff16021790555060408201518160000160026101000a81548160ff021916908360ff16021790555060608201518160000160036101000a81548160ff021916908360ff16021790555060808201518160000160046101000a81548160ff0219169083151502179055509050503373ffffffffffffffffffffffffffffffffffffffff167f03e5493440227aef0d1ce2c10c361defa2acc053c5881daa8b734853e216efd1600260009054906101000a900460ff16888888886040516111f295949392919061558a565b60405180910390a2505050505050565b600180600581111561123d577f4e487b7100000000000000000000000000000000000000000000000000000000600052602160045260246000fd5b600760009054906101000a900460ff166005811115611285577f4e487b7100000000000000000000000000000000000000000000000000000000600052602160045260246000fd5b146112c5576040517f08c379a00000000000000000000000000000000000000000000000000000000081526004016112bc9061538e565b60405180910390fd5b81600660003373ffffffffffffffffffffffffffffffffffffffff1673ffffffffffffffffffffffffffffffffffffffff168152602001908152602001600020819055503373ffffffffffffffffffffffffffffffffffffffff167fc83617f8aff831bee99216a4007ee8436f8a36cc0b5bab8c816f52d0aef5e4388360405161134f919061544e565b60405180910390a26000600660006113656124e6565b73ffffffffffffffffffffffffffffffffffffffff1673ffffffffffffffffffffffffffffffffffffffff168152602001908152602001600020541461142f576002600760006101000a81548160ff021916908360058111156113f1577f4e487b7100000000000000000000000000000000000000000000000000000000600052602160045260246000fd5b02179055507fc2c79e90970e807cdffdfc0896c48a489b0f6882b90beb4c9d6386ddc0fc95cf60026040516114269190615271565b60405180910390a15b5050565b60606000600260009054906101000a900460ff1660ff1667ffffffffffffffff811115611489577f4e487b7100000000000000000000000000000000000000000000000000000000600052604160045260246000fd5b6040519080825280602002602001820160405280156114c257816020015b6114af6146ea565b8152602001906001900390816114a75790505b50905060005b600260009054906101000a900460ff1660ff168160ff16101561161a57603a8160ff1660328110611522577f4e487b7100000000000000000000000000000000000000000000000000000000600052603260045260246000fd5b0160008573ffffffffffffffffffffffffffffffffffffffff1673ffffffffffffffffffffffffffffffffffffffff1681526020019081526020016000206040518060600160405290816000820160009054906101000a900460ff1660ff1660ff1681526020016000820160019054906101000a900460ff1660ff1660ff1681526020016000820160029054906101000a900460ff161515151581525050828260ff16815181106115fc577f4e487b7100000000000000000000000000000000000000000000000000000000600052603260045260246000fd5b60200260200101819052508080611612906159bf565b9150506114c8565b5080915050919050565b603281565b600760009054906101000a900460ff1681565b6000611646614713565b60405180604001604052808760006002811061168b577f4e487b7100000000000000000000000000000000000000000000000000000000600052603260045260246000fd5b60200201518152602001876001600281106116cf577f4e487b7100000000000000000000000000000000000000000000000000000000600052603260045260246000fd5b60200201518152508160000181905250604051806040016040528060405180604001604052808860006002811061172f577f4e487b7100000000000000000000000000000000000000000000000000000000600052603260045260246000fd5b602002015160006002811061176d577f4e487b7100000000000000000000000000000000000000000000000000000000600052603260045260246000fd5b60200201518152602001886000600281106117b1577f4e487b7100000000000000000000000000000000000000000000000000000000600052603260045260246000fd5b60200201516001600281106117ef577f4e487b7100000000000000000000000000000000000000000000000000000000600052603260045260246000fd5b60200201518152508152602001604051806040016040528088600160028110611841577f4e487b7100000000000000000000000000000000000000000000000000000000600052603260045260246000fd5b602002015160006002811061187f577f4e487b7100000000000000000000000000000000000000000000000000000000600052603260045260246000fd5b60200201518152602001886001600281106118c3577f4e487b7100000000000000000000000000000000000000000000000000000000600052603260045260246000fd5b6020020151600160028110611901577f4e487b7100000000000000000000000000000000000000000000000000000000600052603260045260246000fd5b60200201518152508152508160200181905250604051806040016040528085600060028110611959577f4e487b7100000000000000000000000000000000000000000000000000000000600052603260045260246000fd5b602002015181526020018560016002811061199d577f4e487b7100000000000000000000000000000000000000000000000000000000600052603260045260246000fd5b602002015181525081604001819052506000600867ffffffffffffffff8111156119f0577f4e487b7100000000000000000000000000000000000000000000000000000000600052604160045260246000fd5b604051908082528060200260200182016040528015611a1e5781602001602082028036833780820191505090505b50905060005b6008811015611ac357848160088110611a66577f4e487b7100000000000000000000000000000000000000000000000000000000600052603260045260246000fd5b6020020151828281518110611aa4577f4e487b7100000000000000000000000000000000000000000000000000000000600052603260045260246000fd5b6020026020010181815250508080611abb90615976565b915050611a24565b506000611ad08284612e24565b1415611ae157600192505050611ae8565b6000925050505b949350505050565b6060611b306040518060400160405280601281526020017f6765745375626d69747465644775657373210000000000000000000000000000815250612381565b6000600260009054906101000a900460ff1660ff1667ffffffffffffffff811115611b84577f4e487b7100000000000000000000000000000000000000000000000000000000600052604160045260246000fd5b604051908082528060200260200182016040528015611bbd57816020015b611baa614746565b815260200190600190039081611ba25790505b50905060005b600260009054906101000a900460ff1660ff168160ff161015611d4f5760088160ff1660328110611c1d577f4e487b7100000000000000000000000000000000000000000000000000000000600052603260045260246000fd5b0160008573ffffffffffffffffffffffffffffffffffffffff1673ffffffffffffffffffffffffffffffffffffffff1681526020019081526020016000206040518060a00160405290816000820160009054906101000a900460ff1660ff1660ff1681526020016000820160019054906101000a900460ff1660ff1660ff1681526020016000820160029054906101000a900460ff1660ff1660ff1681526020016000820160039054906101000a900460ff1660ff1660ff1681526020016000820160049054906101000a900460ff161515151581525050828260ff1681518110611d31577f4e487b7100000000000000000000000000000000000000000000000000000000600052603260045260246000fd5b60200260200101819052508080611d47906159bf565b915050611bc3565b5080915050919050565b60088260328110611d6957600080fd5b01602052806000526040600020600091509150508060000160009054906101000a900460ff16908060000160019054906101000a900460ff16908060000160029054906101000a900460ff16908060000160039054906101000a900460ff16908060000160049054906101000a900460ff16905085565b6003806005811115611e1b577f4e487b7100000000000000000000000000000000000000000000000000000000600052602160045260246000fd5b600760009054906101000a900460ff166005811115611e63577f4e487b7100000000000000000000000000000000000000000000000000000000600052602160045260246000fd5b14611ea3576040517f08c379a0000000000000000000000000000000000000000000000000000000008152600401611e9a9061538e565b60405180910390fd5b600660003373ffffffffffffffffffffffffffffffffffffffff1673ffffffffffffffffffffffffffffffffffffffff16815260200190815260200160002054606c60009054906101000a900473ffffffffffffffffffffffffffffffffffffffff1673ffffffffffffffffffffffffffffffffffffffff16634937a2586040518060a001604052808a81526020018960ff1681526020018860ff1681526020018760ff1681526020018660ff168152506040518263ffffffff1660e01b8152600401611f709190615220565b60206040518083038186803b158015611f8857600080fd5b505afa158015611f9c573d6000803e3d6000fd5b505050506040513d601f19601f82011682018060405250810190611fc09190614b5d565b14612000576040517f08c379a0000000000000000000000000000000000000000000000000000000008152600401611ff7906153ce565b60405180910390fd5b3373ffffffffffffffffffffffffffffffffffffffff167f5e7fdf2512ab9b99d72e078bab23ce002274ef0f42e29746a2012e8e2bdf00208686868660405161204c94939291906154f2565b60405180910390a2600560009054906101000a900473ffffffffffffffffffffffffffffffffffffffff1673ffffffffffffffffffffffffffffffffffffffff163373ffffffffffffffffffffffffffffffffffffffff16141561211d576120b261263f565b6120f06040518060400160405280600a81526020017f47616d6546696e69736800000000000000000000000000000000000000000000815250612381565b7f483044deeeee1932779c69368bbe4dceaba768d41d041cce9db42ab775469f8660405160405180910390a15b505050505050565b600560009054906101000a900473ffffffffffffffffffffffffffffffffffffffff1681565b612153614783565b60036002806020026040519081016040528092919082600280156121c2576020028201915b8160009054906101000a900473ffffffffffffffffffffffffffffffffffffffff1673ffffffffffffffffffffffffffffffffffffffff1681526020019060010190808311612178575b5050505050905090565b606c60009054906101000a900473ffffffffffffffffffffffffffffffffffffffff1681565b603a826032811061220257600080fd5b01602052806000526040600020600091509150508060000160009054906101000a900460ff16908060000160019054906101000a900460ff16908060000160029054906101000a900460ff16905083565b61225b61241a565b73ffffffffffffffffffffffffffffffffffffffff16612279610e44565b73ffffffffffffffffffffffffffffffffffffffff16146122cf576040517f08c379a00000000000000000000000000000000000000000000000000000000081526004016122c69061534e565b60405180910390fd5b600073ffffffffffffffffffffffffffffffffffffffff168173ffffffffffffffffffffffffffffffffffffffff16141561233f576040517f08c379a0000000000000000000000000000000000000000000000000000000008152600401612336906152ae565b60405180910390fd5b61234881612422565b50565b6003816002811061235b57600080fd5b016000915054906101000a900473ffffffffffffffffffffffffffffffffffffffff1681565b61241781604051602401612395919061528c565b6040516020818303038152906040527f41304fac000000000000000000000000000000000000000000000000000000007bffffffffffffffffffffffffffffffffffffffffffffffffffffffff19166020820180517bffffffffffffffffffffffffffffffffffffffffffffffffffffffff83818316178352505050506130af565b50565b600033905090565b60008060009054906101000a900473ffffffffffffffffffffffffffffffffffffffff169050816000806101000a81548173ffffffffffffffffffffffffffffffffffffffff021916908373ffffffffffffffffffffffffffffffffffffffff1602179055508173ffffffffffffffffffffffffffffffffffffffff168173ffffffffffffffffffffffffffffffffffffffff167f8be0079c531659141344cd1fd0a4f28419497f9722a3daafe3b4186f6b6457e060405160405180910390a35050565b60003373ffffffffffffffffffffffffffffffffffffffff16600360006002811061253a577f4e487b7100000000000000000000000000000000000000000000000000000000600052603260045260246000fd5b0160009054906101000a900473ffffffffffffffffffffffffffffffffffffffff1673ffffffffffffffffffffffffffffffffffffffff1614156125dc5760036001600281106125b3577f4e487b7100000000000000000000000000000000000000000000000000000000600052603260045260246000fd5b0160009054906101000a900473ffffffffffffffffffffffffffffffffffffffff16905061263c565b6003600060028110612617577f4e487b7100000000000000000000000000000000000000000000000000000000600052603260045260246000fd5b0160009054906101000a900473ffffffffffffffffffffffffffffffffffffffff1690505b90565b6000600760006101000a81548160ff0219169083600581111561268b577f4e487b7100000000000000000000000000000000000000000000000000000000600052602160045260246000fd5b02179055506001600260006101000a81548160ff021916908360ff16021790555060005b603260ff168160ff161015612b795760088160ff16603281106126fb577f4e487b7100000000000000000000000000000000000000000000000000000000600052603260045260246000fd5b0160006003600060028110612739577f4e487b7100000000000000000000000000000000000000000000000000000000600052603260045260246000fd5b0160009054906101000a900473ffffffffffffffffffffffffffffffffffffffff1673ffffffffffffffffffffffffffffffffffffffff1673ffffffffffffffffffffffffffffffffffffffff168152602001908152602001600020600080820160006101000a81549060ff02191690556000820160016101000a81549060ff02191690556000820160026101000a81549060ff02191690556000820160036101000a81549060ff02191690556000820160046101000a81549060ff0219169055505060088160ff1660328110612839577f4e487b7100000000000000000000000000000000000000000000000000000000600052603260045260246000fd5b0160006003600160028110612877577f4e487b7100000000000000000000000000000000000000000000000000000000600052603260045260246000fd5b0160009054906101000a900473ffffffffffffffffffffffffffffffffffffffff1673ffffffffffffffffffffffffffffffffffffffff1673ffffffffffffffffffffffffffffffffffffffff168152602001908152602001600020600080820160006101000a81549060ff02191690556000820160016101000a81549060ff02191690556000820160026101000a81549060ff02191690556000820160036101000a81549060ff02191690556000820160046101000a81549060ff02191690555050603a8160ff1660328110612977577f4e487b7100000000000000000000000000000000000000000000000000000000600052603260045260246000fd5b01600060036000600281106129b5577f4e487b7100000000000000000000000000000000000000000000000000000000600052603260045260246000fd5b0160009054906101000a900473ffffffffffffffffffffffffffffffffffffffff1673ffffffffffffffffffffffffffffffffffffffff1673ffffffffffffffffffffffffffffffffffffffff168152602001908152602001600020600080820160006101000a81549060ff02191690556000820160016101000a81549060ff02191690556000820160026101000a81549060ff02191690555050603a8160ff1660328110612a8d577f4e487b7100000000000000000000000000000000000000000000000000000000600052603260045260246000fd5b0160006003600160028110612acb577f4e487b7100000000000000000000000000000000000000000000000000000000600052603260045260246000fd5b0160009054906101000a900473ffffffffffffffffffffffffffffffffffffffff1673ffffffffffffffffffffffffffffffffffffffff1673ffffffffffffffffffffffffffffffffffffffff168152602001908152602001600020600080820160006101000a81549060ff02191690556000820160016101000a81549060ff02191690556000820160026101000a81549060ff021916905550508080612b71906159bf565b9150506126af565b506000600660006003600060028110612bbb577f4e487b7100000000000000000000000000000000000000000000000000000000600052603260045260246000fd5b0160009054906101000a900473ffffffffffffffffffffffffffffffffffffffff1673ffffffffffffffffffffffffffffffffffffffff1673ffffffffffffffffffffffffffffffffffffffff168152602001908152602001600020819055506000600660006003600160028110612c5c577f4e487b7100000000000000000000000000000000000000000000000000000000600052603260045260246000fd5b0160009054906101000a900473ffffffffffffffffffffffffffffffffffffffff1673ffffffffffffffffffffffffffffffffffffffff1673ffffffffffffffffffffffffffffffffffffffff1681526020019081526020016000208190555060006003600060028110612cf9577f4e487b7100000000000000000000000000000000000000000000000000000000600052603260045260246000fd5b0160006101000a81548173ffffffffffffffffffffffffffffffffffffffff021916908373ffffffffffffffffffffffffffffffffffffffff16021790555060006003600160028110612d75577f4e487b7100000000000000000000000000000000000000000000000000000000600052603260045260246000fd5b0160006101000a81548173ffffffffffffffffffffffffffffffffffffffff021916908373ffffffffffffffffffffffffffffffffffffffff1602179055506000600560006101000a81548173ffffffffffffffffffffffffffffffffffffffff021916908373ffffffffffffffffffffffffffffffffffffffff1602179055507f80f860092ed8101278311dd6b10dda4920a40ea5dfcbacfe724e2accfaf63efc60405160405180910390a1565b6000807f30644e72e131a029b85045b68181585d2833e84879b9709143e1f593f000000190506000612e546130d8565b905080608001515160018651612e6a919061575c565b14612eaa576040517f08c379a0000000000000000000000000000000000000000000000000000000008152600401612ea1906152ee565b60405180910390fd5b60006040518060400160405280600081526020016000815250905060005b865181101561300b5783878281518110612f0b577f4e487b7100000000000000000000000000000000000000000000000000000000600052603260045260246000fd5b602002602001015110612f53576040517f08c379a0000000000000000000000000000000000000000000000000000000008152600401612f4a9061532e565b60405180910390fd5b612ff682612ff18560800151600185612f6c919061575c565b81518110612fa3577f4e487b7100000000000000000000000000000000000000000000000000000000600052603260045260246000fd5b60200260200101518a8581518110612fe4577f4e487b7100000000000000000000000000000000000000000000000000000000600052603260045260246000fd5b602002602001015161399f565b613aee565b9150808061300390615976565b915050612ec8565b5061305b81836080015160008151811061304e577f4e487b7100000000000000000000000000000000000000000000000000000000600052603260045260246000fd5b6020026020010151613aee565b905061309161306d8660000151613c89565b8660200151846000015185602001518587604001518b604001518960600151613d2e565b6130a157600193505050506130a9565b600093505050505b92915050565b60008151905060006a636f6e736f6c652e6c6f679050602083016000808483855afa5050505050565b6130e06147a5565b60405180604001604052807f1e1e7b6c6611b44a44a486f13c7436e0df37e5d100ce5c420f8c11527473bb3a81526020017f0aa03f4dc8e7017b2c09417fb589a5fa3a92d955f3d7bd09a3cef11f69b277da8152508160000181905250604051806040016040528060405180604001604052807f264cc61758444bdaa181cde012e20cb3ec66a9d688652bdaf9ad965e8288c6cf81526020017f08b7645c0a2982a839563b0105c58c2884601e123e7065efde516365f20cd462815250815260200160405180604001604052807f279cbc2c6cd1f79a36935d63b23e0bce0b18c30fe5ac3bbf0bdc812e4a33202581526020017f14aa2fd98ad35a0e1ba03c3986abc23d0a2b4e2edc9a6cbf6c732b154fde3df38152508152508160200181905250604051806040016040528060405180604001604052807f198e9393920d483a7260bfb731fb5d25f1aa493335a9e71297e485b7aef312c281526020017f1800deef121f1e76426a00665e5c4479674322d4f75edadd46debd5cd992f6ed815250815260200160405180604001604052807f090689d0585ff075ec9e99ad690c3395bc4b313370b38ef355acdadcd122975b81526020017f12c85ea5db8c6deb4aab71808dcb408fe3d1e7690c43d37b4ce6cc0166fa7daa8152508152508160400181905250604051806040016040528060405180604001604052807f0858771ebad17518e34c14c705739248d6120e808aa7c8f8113cb0b61b52276d81526020017f1764944cbc3e86d732e0f296c5f98ee92be067d383c8d9340896b30608d4679d815250815260200160405180604001604052807f1b624a3fe67d78fa2a36ca722b7a6063320c1e72410dc2176338a068896b2e2481526020017f04ac4dd31d6add0b6507a7c52bbd559b76a80764fd6907d696b26ff05171d7dd8152508152508160600181905250600967ffffffffffffffff8111156133cd577f4e487b7100000000000000000000000000000000000000000000000000000000600052604160045260246000fd5b60405190808252806020026020018201604052801561340657816020015b6133f36147ec565b8152602001906001900390816133eb5790505b50816080018190525060405180604001604052807f0b199087190927e60d549c5d9d2656b38a347af48edb61c8c95bd94f4a326b1481526020017e3e971a848263d1e356d6d74b163dd97bb98d55fb83b91aa1dae68005d9bbdd81525081608001516000815181106134a1577f4e487b7100000000000000000000000000000000000000000000000000000000600052603260045260246000fd5b602002602001018190525060405180604001604052807f2d210f42eed9317f50c7219d59c1a8839691c4d71978c2beb0df9d105146392d81526020017f1f6e12d54c89d9afefa3a3d4ad5296ccc1e9cd14062a580952ee4b903c7ab6b2815250816080015160018151811061353f577f4e487b7100000000000000000000000000000000000000000000000000000000600052603260045260246000fd5b602002602001018190525060405180604001604052807f11f3feda9c1fefea43274e4d591b5bb3139859f6843fa7fbdf97f7b39c80db7681526020017f273b01985b0d5a0e2d223ea5d6eba6327cc00854c7f6a472bf928c9c4562975381525081608001516002815181106135dd577f4e487b7100000000000000000000000000000000000000000000000000000000600052603260045260246000fd5b602002602001018190525060405180604001604052807f23a30729be8c961e4d8d3bf05237f6b61a202fc7e826f48407fa5e140987941081526020017f27b4cfbab938b288ecf2b9518c3de9622afca07c018138a5f39496dfe1a9bf5c815250816080015160038151811061367b577f4e487b7100000000000000000000000000000000000000000000000000000000600052603260045260246000fd5b602002602001018190525060405180604001604052807f1bb9744c4c6aa62bca4d3bfa8e92ccbf2d6d23e857e727c22213418e151e266c81526020017f191bae68467e8c67fbec91913fe1361e10a4fbf1b6dab69c0e29bea1dbfbf0008152508160800151600481518110613719577f4e487b7100000000000000000000000000000000000000000000000000000000600052603260045260246000fd5b602002602001018190525060405180604001604052807f0ec020f955b59f0665a87be648151adf5a098997269feb0d767dce2e1404fc5681526020017f22081bdfe335e4a647dad11cc23fa262fe7d80bf6340500215d92a059a954ca281525081608001516005815181106137b7577f4e487b7100000000000000000000000000000000000000000000000000000000600052603260045260246000fd5b602002602001018190525060405180604001604052807f122805766e38c50c1ba42554334446a7b4be7995f15341525f95235df7d5bba281526020017f1e2896190ba56ca715c518886abd70656fcc075a8e345482152a1a6b1d86adc58152508160800151600681518110613855577f4e487b7100000000000000000000000000000000000000000000000000000000600052603260045260246000fd5b602002602001018190525060405180604001604052807f06366091ffc72f2e76c9b449b96016902b3f1602145614c32254c5ea848b5fe181526020017f1863ac863173674db3ad7f52dd9c31409c4080400712374a446b27d6cde25b1d81525081608001516007815181106138f3577f4e487b7100000000000000000000000000000000000000000000000000000000600052603260045260246000fd5b602002602001018190525060405180604001604052807f097d8bb04d998283fd64ceac40aa042855618419edadf0ebba32e5c154cfaaff81526020017f29308202301ab019dfc29585b8ccb52c103a856af5e831604d908d5b0d58dd018152508160800151600881518110613991577f4e487b7100000000000000000000000000000000000000000000000000000000600052603260045260246000fd5b602002602001018190525090565b6139a76147ec565b6139af614806565b8360000151816000600381106139ee577f4e487b7100000000000000000000000000000000000000000000000000000000600052603260045260246000fd5b602002018181525050836020015181600160038110613a36577f4e487b7100000000000000000000000000000000000000000000000000000000600052603260045260246000fd5b6020020181815250508281600260038110613a7a577f4e487b7100000000000000000000000000000000000000000000000000000000600052603260045260246000fd5b602002018181525050600060608360808460076107d05a03fa90508060008114613aa357613aa5565bfe5b5080613ae6576040517f08c379a0000000000000000000000000000000000000000000000000000000008152600401613add9061530e565b60405180910390fd5b505092915050565b613af66147ec565b613afe614828565b836000015181600060048110613b3d577f4e487b7100000000000000000000000000000000000000000000000000000000600052603260045260246000fd5b602002018181525050836020015181600160048110613b85577f4e487b7100000000000000000000000000000000000000000000000000000000600052603260045260246000fd5b602002018181525050826000015181600260048110613bcd577f4e487b7100000000000000000000000000000000000000000000000000000000600052603260045260246000fd5b602002018181525050826020015181600360048110613c15577f4e487b7100000000000000000000000000000000000000000000000000000000600052603260045260246000fd5b602002018181525050600060608360c08460066107d05a03fa90508060008114613c3e57613c40565bfe5b5080613c81576040517f08c379a0000000000000000000000000000000000000000000000000000000008152600401613c78906153ee565b60405180910390fd5b505092915050565b613c916147ec565b60007f30644e72e131a029b85045b68181585d97816a916871ca8d3c208c16d87cfd47905060008360000151148015613cce575060008360200151145b15613cf2576040518060400160405280600081526020016000815250915050613d29565b604051806040016040528084600001518152602001828560200151613d1791906159e9565b83613d22919061580c565b8152509150505b919050565b600080600467ffffffffffffffff811115613d72577f4e487b7100000000000000000000000000000000000000000000000000000000600052604160045260246000fd5b604051908082528060200260200182016040528015613dab57816020015b613d986147ec565b815260200190600190039081613d905790505b5090506000600467ffffffffffffffff811115613df1577f4e487b7100000000000000000000000000000000000000000000000000000000600052604160045260246000fd5b604051908082528060200260200182016040528015613e2a57816020015b613e1761484a565b815260200190600190039081613e0f5790505b5090508a82600081518110613e68577f4e487b7100000000000000000000000000000000000000000000000000000000600052603260045260246000fd5b60200260200101819052508882600181518110613eae577f4e487b7100000000000000000000000000000000000000000000000000000000600052603260045260246000fd5b60200260200101819052508682600281518110613ef4577f4e487b7100000000000000000000000000000000000000000000000000000000600052603260045260246000fd5b60200260200101819052508482600381518110613f3a577f4e487b7100000000000000000000000000000000000000000000000000000000600052603260045260246000fd5b60200260200101819052508981600081518110613f80577f4e487b7100000000000000000000000000000000000000000000000000000000600052603260045260246000fd5b60200260200101819052508781600181518110613fc6577f4e487b7100000000000000000000000000000000000000000000000000000000600052603260045260246000fd5b6020026020010181905250858160028151811061400c577f4e487b7100000000000000000000000000000000000000000000000000000000600052603260045260246000fd5b60200260200101819052508381600381518110614052577f4e487b7100000000000000000000000000000000000000000000000000000000600052603260045260246000fd5b60200260200101819052506140678282614077565b9250505098975050505050505050565b600081518351146140bd576040517f08c379a00000000000000000000000000000000000000000000000000000000081526004016140b4906153ae565b60405180910390fd5b60008351905060006006826140d291906157b2565b905060008167ffffffffffffffff811115614116577f4e487b7100000000000000000000000000000000000000000000000000000000600052604160045260246000fd5b6040519080825280602002602001820160405280156141445781602001602082028036833780820191505090505b50905060005b838110156146295786818151811061418b577f4e487b7100000000000000000000000000000000000000000000000000000000600052603260045260246000fd5b6020026020010151600001518260006006846141a791906157b2565b6141b1919061575c565b815181106141e8577f4e487b7100000000000000000000000000000000000000000000000000000000600052603260045260246000fd5b60200260200101818152505086818151811061422d577f4e487b7100000000000000000000000000000000000000000000000000000000600052603260045260246000fd5b60200260200101516020015182600160068461424991906157b2565b614253919061575c565b8151811061428a577f4e487b7100000000000000000000000000000000000000000000000000000000600052603260045260246000fd5b6020026020010181815250508581815181106142cf577f4e487b7100000000000000000000000000000000000000000000000000000000600052603260045260246000fd5b602002602001015160000151600060028110614314577f4e487b7100000000000000000000000000000000000000000000000000000000600052603260045260246000fd5b602002015182600260068461432991906157b2565b614333919061575c565b8151811061436a577f4e487b7100000000000000000000000000000000000000000000000000000000600052603260045260246000fd5b6020026020010181815250508581815181106143af577f4e487b7100000000000000000000000000000000000000000000000000000000600052603260045260246000fd5b6020026020010151600001516001600281106143f4577f4e487b7100000000000000000000000000000000000000000000000000000000600052603260045260246000fd5b602002015182600360068461440991906157b2565b614413919061575c565b8151811061444a577f4e487b7100000000000000000000000000000000000000000000000000000000600052603260045260246000fd5b60200260200101818152505085818151811061448f577f4e487b7100000000000000000000000000000000000000000000000000000000600052603260045260246000fd5b6020026020010151602001516000600281106144d4577f4e487b7100000000000000000000000000000000000000000000000000000000600052603260045260246000fd5b60200201518260046006846144e991906157b2565b6144f3919061575c565b8151811061452a577f4e487b7100000000000000000000000000000000000000000000000000000000600052603260045260246000fd5b60200260200101818152505085818151811061456f577f4e487b7100000000000000000000000000000000000000000000000000000000600052603260045260246000fd5b6020026020010151602001516001600281106145b4577f4e487b7100000000000000000000000000000000000000000000000000000000600052603260045260246000fd5b60200201518260056006846145c991906157b2565b6145d3919061575c565b8151811061460a577f4e487b7100000000000000000000000000000000000000000000000000000000600052603260045260246000fd5b602002602001018181525050808061462190615976565b91505061414a565b50614632614870565b6000602082602086026020860160086107d05a03fa9050806000811461465757614659565bfe5b508061469a576040517f08c379a00000000000000000000000000000000000000000000000000000000081526004016146919061540e565b60405180910390fd5b6000826000600181106146d6577f4e487b7100000000000000000000000000000000000000000000000000000000600052603260045260246000fd5b602002015114159550505050505092915050565b6040518060600160405280600060ff168152602001600060ff1681526020016000151581525090565b60405180606001604052806147266147ec565b815260200161473361484a565b81526020016147406147ec565b81525090565b6040518060a00160405280600060ff168152602001600060ff168152602001600060ff168152602001600060ff1681526020016000151581525090565b6040518060400160405280600290602082028036833780820191505090505090565b6040518060a001604052806147b86147ec565b81526020016147c561484a565b81526020016147d261484a565b81526020016147df61484a565b8152602001606081525090565b604051806040016040528060008152602001600081525090565b6040518060600160405280600390602082028036833780820191505090505090565b6040518060800160405280600490602082028036833780820191505090505090565b604051806040016040528061485d614892565b815260200161486a614892565b81525090565b6040518060200160405280600190602082028036833780820191505090505090565b6040518060400160405280600290602082028036833780820191505090505090565b60006148c76148c284615602565b6155dd565b905080828560408602820111156148dd57600080fd5b60005b8581101561490d57816148f38882614a19565b8452602084019350604083019250506001810190506148e0565b5050509392505050565b600061492a61492584615628565b6155dd565b9050808285602086028201111561494057600080fd5b60005b8581101561497057816149568882614a67565b845260208401935060208301925050600181019050614943565b5050509392505050565b600061498d6149888461564e565b6155dd565b905080828560208602820111156149a357600080fd5b60005b858110156149d357816149b98882614a67565b8452602084019350602083019250506001810190506149a6565b5050509392505050565b6000813590506149ec81615d36565b92915050565b600082601f830112614a0357600080fd5b6002614a108482856148b4565b91505092915050565b600082601f830112614a2a57600080fd5b6002614a37848285614917565b91505092915050565b600082601f830112614a5157600080fd5b6008614a5e84828561497a565b91505092915050565b600081359050614a7681615d4d565b92915050565b600081519050614a8b81615d4d565b92915050565b600081359050614aa081615d64565b92915050565b600060208284031215614ab857600080fd5b6000614ac6848285016149dd565b91505092915050565b6000806000806102008587031215614ae657600080fd5b6000614af487828801614a19565b9450506040614b05878288016149f2565b93505060c0614b1687828801614a19565b925050610100614b2887828801614a40565b91505092959194509250565b600060208284031215614b4657600080fd5b6000614b5484828501614a67565b91505092915050565b600060208284031215614b6f57600080fd5b6000614b7d84828501614a7c565b91505092915050565b60008060408385031215614b9957600080fd5b6000614ba785828601614a67565b9250506020614bb8858286016149dd565b9150509250929050565b600080600080600060a08688031215614bda57600080fd5b6000614be888828901614a67565b9550506020614bf988828901614a91565b9450506040614c0a88828901614a91565b9350506060614c1b88828901614a91565b9250506080614c2c88828901614a91565b9150509295509295909350565b60008060008060808587031215614c4f57600080fd5b6000614c5d87828801614a91565b9450506020614c6e87828801614a91565b9350506040614c7f87828801614a91565b9250506060614c9087828801614a91565b91505092959194509250565b6000614ca88383614cfc565b60208301905092915050565b6000614cc083836150c0565b60a08301905092915050565b6000614cd88383615128565b60608301905092915050565b6000614cf0838361516a565b60208301905092915050565b614d0581615874565b82525050565b614d1481615874565b82525050565b614d23816156a8565b614d2d8184615713565b9250614d3882615674565b8060005b83811015614d69578151614d508782614c9c565b9650614d5b836156df565b925050600181019050614d3c565b505050505050565b6000614d7c826156b3565b614d86818561571e565b9350614d918361567e565b8060005b83811015614dc2578151614da98882614cb4565b9750614db4836156ec565b925050600181019050614d95565b5085935050505092915050565b6000614dda826156be565b614de4818561572f565b9350614def8361568e565b8060005b83811015614e20578151614e078882614ccc565b9750614e12836156f9565b925050600181019050614df3565b5085935050505092915050565b614e36816156c9565b614e408184615740565b9250614e4b8261569e565b8060005b83811015614e7c578151614e638782614ce4565b9650614e6e83615706565b925050600181019050614e4f565b505050505050565b614e8d81615886565b82525050565b614e9c81615886565b82525050565b614eab816158dc565b82525050565b614eba81615900565b82525050565b6000614ecb826156d4565b614ed5818561574b565b9350614ee5818560208601615912565b614eee81615ad6565b840191505092915050565b6000614f0660268361574b565b9150614f1182615ae7565b604082019050919050565b6000614f2960128361574b565b9150614f3482615b36565b602082019050919050565b6000614f4c60128361574b565b9150614f5782615b5f565b602082019050919050565b6000614f6f60128361574b565b9150614f7a82615b88565b602082019050919050565b6000614f92601f8361574b565b9150614f9d82615bb1565b602082019050919050565b6000614fb560208361574b565b9150614fc082615bda565b602082019050919050565b6000614fd860128361574b565b9150614fe382615c03565b602082019050919050565b6000614ffb600d8361574b565b915061500682615c2c565b602082019050919050565b600061501e60168361574b565b915061502982615c55565b602082019050919050565b6000615041600c8361574b565b915061504c82615c7e565b602082019050919050565b600061506460128361574b565b915061506f82615ca7565b602082019050919050565b600061508760158361574b565b915061509282615cd0565b602082019050919050565b60006150aa60128361574b565b91506150b582615cf9565b602082019050919050565b60a0820160008201516150d66000850182615188565b5060208201516150e96020850182615188565b5060408201516150fc6040850182615188565b50606082015161510f6060850182615188565b5060808201516151226080850182614e84565b50505050565b60608201600082015161513e6000850182615188565b5060208201516151516020850182615188565b5060408201516151646040850182614e84565b50505050565b615173816158c5565b82525050565b615182816158c5565b82525050565b615191816158cf565b82525050565b6151a0816158cf565b82525050565b60006020820190506151bb6000830184614d0b565b92915050565b60006040820190506151d66000830184614d1a565b92915050565b600060208201905081810360008301526151f68184614d71565b905092915050565b600060208201905081810360008301526152188184614dcf565b905092915050565b600060a0820190506152356000830184614e2d565b92915050565b60006020820190506152506000830184614e93565b92915050565b600060208201905061526b6000830184614ea2565b92915050565b60006020820190506152866000830184614eb1565b92915050565b600060208201905081810360008301526152a68184614ec0565b905092915050565b600060208201905081810360008301526152c781614ef9565b9050919050565b600060208201905081810360008301526152e781614f1c565b9050919050565b6000602082019050818103600083015261530781614f3f565b9050919050565b6000602082019050818103600083015261532781614f62565b9050919050565b6000602082019050818103600083015261534781614f85565b9050919050565b6000602082019050818103600083015261536781614fa8565b9050919050565b6000602082019050818103600083015261538781614fcb565b9050919050565b600060208201905081810360008301526153a781614fee565b9050919050565b600060208201905081810360008301526153c781615011565b9050919050565b600060208201905081810360008301526153e781615034565b9050919050565b6000602082019050818103600083015261540781615057565b9050919050565b600060208201905081810360008301526154278161507a565b9050919050565b600060208201905081810360008301526154478161509d565b9050919050565b60006020820190506154636000830184615179565b92915050565b600060208201905061547e6000830184615197565b92915050565b60006060820190506154996000830186615197565b6154a66020830185615197565b6154b36040830184614e93565b949350505050565b60006060820190506154d06000830186615197565b6154dd6020830185615197565b6154ea6040830184615197565b949350505050565b60006080820190506155076000830187615197565b6155146020830186615197565b6155216040830185615197565b61552e6060830184615197565b95945050505050565b600060a08201905061554c6000830188615197565b6155596020830187615197565b6155666040830186615197565b6155736060830185615197565b6155806080830184614e93565b9695505050505050565b600060a08201905061559f6000830188615197565b6155ac6020830187615197565b6155b96040830186615197565b6155c66060830185615197565b6155d36080830184615197565b9695505050505050565b60006155e76155f8565b90506155f38282615945565b919050565b6000604051905090565b600067ffffffffffffffff82111561561d5761561c615aa7565b5b602082029050919050565b600067ffffffffffffffff82111561564357615642615aa7565b5b602082029050919050565b600067ffffffffffffffff82111561566957615668615aa7565b5b602082029050919050565b6000819050919050565b6000819050602082019050919050565b6000819050602082019050919050565b6000819050919050565b600060029050919050565b600081519050919050565b600081519050919050565b600060059050919050565b600081519050919050565b6000602082019050919050565b6000602082019050919050565b6000602082019050919050565b6000602082019050919050565b600081905092915050565b600082825260208201905092915050565b600082825260208201905092915050565b600081905092915050565b600082825260208201905092915050565b6000615767826158c5565b9150615772836158c5565b9250827fffffffffffffffffffffffffffffffffffffffffffffffffffffffffffffffff038211156157a7576157a6615a1a565b5b828201905092915050565b60006157bd826158c5565b91506157c8836158c5565b9250817fffffffffffffffffffffffffffffffffffffffffffffffffffffffffffffffff048311821515161561580157615800615a1a565b5b828202905092915050565b6000615817826158c5565b9150615822836158c5565b92508282101561583557615834615a1a565b5b828203905092915050565b600061584b826158cf565b9150615856836158cf565b92508282101561586957615868615a1a565b5b828203905092915050565b600061587f826158a5565b9050919050565b60008115159050919050565b60008190506158a082615d22565b919050565b600073ffffffffffffffffffffffffffffffffffffffff82169050919050565b6000819050919050565b600060ff82169050919050565b60006158e7826158ee565b9050919050565b60006158f9826158a5565b9050919050565b600061590b82615892565b9050919050565b60005b83811015615930578082015181840152602081019050615915565b8381111561593f576000848401525b50505050565b61594e82615ad6565b810181811067ffffffffffffffff8211171561596d5761596c615aa7565b5b80604052505050565b6000615981826158c5565b91507fffffffffffffffffffffffffffffffffffffffffffffffffffffffffffffffff8214156159b4576159b3615a1a565b5b600182019050919050565b60006159ca826158cf565b915060ff8214156159de576159dd615a1a565b5b600182019050919050565b60006159f4826158c5565b91506159ff836158c5565b925082615a0f57615a0e615a49565b5b828206905092915050565b7f4e487b7100000000000000000000000000000000000000000000000000000000600052601160045260246000fd5b7f4e487b7100000000000000000000000000000000000000000000000000000000600052601260045260246000fd5b7f4e487b7100000000000000000000000000000000000000000000000000000000600052602160045260246000fd5b7f4e487b7100000000000000000000000000000000000000000000000000000000600052604160045260246000fd5b6000601f19601f8301169050919050565b7f4f776e61626c653a206e6577206f776e657220697320746865207a65726f206160008201527f6464726573730000000000000000000000000000000000000000000000000000602082015250565b7f616c7265616479207375626d6974746564210000000000000000000000000000600082015250565b7f76657269666965722d6261642d696e7075740000000000000000000000000000600082015250565b7f70616972696e672d6d756c2d6661696c65640000000000000000000000000000600082015250565b7f76657269666965722d6774652d736e61726b2d7363616c61722d6669656c6400600082015250565b7f4f776e61626c653a2063616c6c6572206973206e6f7420746865206f776e6572600082015250565b7f616c726561647920726567697374657264210000000000000000000000000000600082015250565b7f6e6f7420616c6c6f776564212000000000000000000000000000000000000000600082015250565b7f70616972696e672d6c656e677468732d6661696c656400000000000000000000600082015250565b7f696e76616c696420686173680000000000000000000000000000000000000000600082015250565b7f70616972696e672d6164642d6661696c65640000000000000000000000000000600082015250565b7f70616972696e672d6f70636f64652d6661696c65640000000000000000000000600082015250565b7f766572696669636174696f6e206572726f720000000000000000000000000000600082015250565b60068110615d3357615d32615a78565b5b50565b615d3f81615874565b8114615d4a57600080fd5b50565b615d56816158c5565b8114615d6157600080fd5b50565b615d6d816158cf565b8114615d7857600080fd5b5056fea2646970667358221220fa6db9633a15aa0428d671c391db83a8d218fdda33df608aad9c37b93c2708a564736f6c63430008040033",
  "linkReferences": {},
  "deployedLinkReferences": {}
}